{"abi":[{"type":"function","name":"hash1","inputs":[{"name":"a0","type":"uint256","internalType":"uint256"}],"outputs":[{"name":"","type":"uint256","internalType":"uint256"}],"stateMutability":"pure"},{"type":"function","name":"hash2","inputs":[{"name":"a0","type":"uint256","internalType":"uint256"},{"name":"a1","type":"uint256","internalType":"uint256"}],"outputs":[{"name":"","type":"uint256","internalType":"uint256"}],"stateMutability":"pure"},{"type":"function","name":"hash3","inputs":[{"name":"a0","type":"uint256","internalType":"uint256"},{"name":"a1","type":"uint256","internalType":"uint256"},{"name":"a2","type":"uint256","internalType":"uint256"}],"outputs":[{"name":"","type":"uint256","internalType":"uint256"}],"stateMutability":"pure"},{"type":"function","name":"hash4","inputs":[{"name":"a0","type":"uint256","internalType":"uint256"},{"name":"a1","type":"uint256","internalType":"uint256"},{"name":"a2","type":"uint256","internalType":"uint256"},{"name":"a3","type":"uint256","internalType":"uint256"}],"outputs":[{"name":"","type":"uint256","internalType":"uint256"}],"stateMutability":"pure"},{"type":"function","name":"hash5","inputs":[{"name":"a0","type":"uint256","internalType":"uint256"},{"name":"a1","type":"uint256","internalType":"uint256"},{"name":"a2","type":"uint256","internalType":"uint256"},{"name":"a3","type":"uint256","internalType":"uint256"},{"name":"a4","type":"uint256","internalType":"uint256"}],"outputs":[{"name":"","type":"uint256","internalType":"uint256"}],"stateMutability":"pure"},{"type":"function","name":"perm","inputs":[{"name":"x","type":"uint256[4]","internalType":"uint256[4]"}],"outputs":[{"name":"","type":"uint256[4]","internalType":"uint256[4]"}],"stateMutability":"pure"}],"bytecode":{"object":"0x6080604052348015600e575f5ffd5b506136298061001c5f395ff3fe608060405234801561000f575f5ffd5b5060043610610060575f3560e01c80632dbf86c6146100645780633b3ccded14610094578063511c53ff146100c457806368769d67146100f4578063c98aeff514610124578063f527081e14610154575b5f5ffd5b61007e600480360381019061007991906112cf565b610184565b60405161008b919061132e565b60405180910390f35b6100ae60048036038101906100a99190611347565b610199565b6040516100bb919061132e565b60405180910390f35b6100de60048036038101906100d991906113ab565b6101b0565b6040516100eb919061132e565b60405180910390f35b61010e6004803603810190610109919061140e565b6101c3565b60405161011b91906114de565b60405180910390f35b61013e600480360381019061013991906114f7565b610211565b60405161014b919061132e565b60405180910390f35b61016e6004803603810190610169919061156e565b61022a565b60405161017b919061132e565b60405180910390f35b5f61019084848461023b565b90509392505050565b5f6101a685858585610312565b9050949350505050565b5f6101bb838361043a565b905092915050565b6101cb611276565b61020a8260048060200260405190810160405280929190826004602002808284375f81840152601f19601f8201169050808301925050505050506104dc565b9050919050565b5f61021f86868686866105db565b905095945050505050565b5f61023482610738565b9050919050565b5f5f5f5f5f61024a60036107a5565b93509350935093507f30644e72e131a029b85045b68181585d2833e84879b9709143e1f593f00000018061028157610280611599565b5b88850893507f30644e72e131a029b85045b68181585d2833e84879b9709143e1f593f0000001806102b5576102b4611599565b5b87840892507f30644e72e131a029b85045b68181585d2833e84879b9709143e1f593f0000001806102e9576102e8611599565b5b86830891506102fa848484846107f6565b90915090505080945050839450505050509392505050565b5f5f5f5f5f61032160046107a5565b93509350935093507f30644e72e131a029b85045b68181585d2833e84879b9709143e1f593f00000018061035857610357611599565b5b89850893507f30644e72e131a029b85045b68181585d2833e84879b9709143e1f593f00000018061038c5761038b611599565b5b88840892507f30644e72e131a029b85045b68181585d2833e84879b9709143e1f593f0000001806103c0576103bf611599565b5b87830891506103d1848484846107f6565b809450819550829650839750505050507f30644e72e131a029b85045b68181585d2833e84879b9709143e1f593f0000001806104105761040f611599565b5b8685089350610421848484846107f6565b9091509050508094505083945050505050949350505050565b5f5f5f5f5f61044960026107a5565b93509350935093507f30644e72e131a029b85045b68181585d2833e84879b9709143e1f593f0000001806104805761047f611599565b5b87850893507f30644e72e131a029b85045b68181585d2833e84879b9709143e1f593f0000001806104b4576104b3611599565b5b86840892506104c5848484846107f6565b909150905050809450508394505050505092915050565b6104e4611276565b5f5f5f5f610553865f600481106104fe576104fd6115c6565b5b602002015187600160048110610517576105166115c6565b5b6020020151886002600481106105305761052f6115c6565b5b602002015189600360048110610549576105486115c6565b5b60200201516107f6565b935093509350935083855f6004811061056f5761056e6115c6565b5b602002018181525050828560016004811061058d5761058c6115c6565b5b60200201818152505081856002600481106105ab576105aa6115c6565b5b60200201818152505080856003600481106105c9576105c86115c6565b5b60200201818152505050505050919050565b5f5f5f5f5f6105ea60056107a5565b93509350935093507f30644e72e131a029b85045b68181585d2833e84879b9709143e1f593f00000018061062157610620611599565b5b8a850893507f30644e72e131a029b85045b68181585d2833e84879b9709143e1f593f00000018061065557610654611599565b5b89840892507f30644e72e131a029b85045b68181585d2833e84879b9709143e1f593f00000018061068957610688611599565b5b888308915061069a848484846107f6565b809450819550829650839750505050507f30644e72e131a029b85045b68181585d2833e84879b9709143e1f593f0000001806106d9576106d8611599565b5b87850893507f30644e72e131a029b85045b68181585d2833e84879b9709143e1f593f00000018061070d5761070c611599565b5b868408925061071e848484846107f6565b909150905050809450508394505050505095945050505050565b5f5f5f5f5f61074760016107a5565b93509350935093507f30644e72e131a029b85045b68181585d2833e84879b9709143e1f593f00000018061077e5761077d611599565b5b868508935061078f848484846107f6565b9091509050508094505083945050505050919050565b5f5f5f5f5f93505f92505f91507f30644e72e131a029b85045b68181585d2833e84879b9709143e1f593f0000001806107e1576107e0611599565b5b68010000000000000000860990509193509193565b5f5f5f5f5f60405180612020016040528061200081526020016115f46120009139905061082589898989610ba8565b809950819a50829b50839c50505050505f5f90505b600481101561099f575f6004820290507f30644e72e131a029b85045b68181585d2833e84879b9709143e1f593f00000018061087957610878611599565b5b610885845f8401610ef7565b8c089a507f30644e72e131a029b85045b68181585d2833e84879b9709143e1f593f0000001806108b8576108b7611599565b5b6108c58460018401610ef7565b8b0899507f30644e72e131a029b85045b68181585d2833e84879b9709143e1f593f0000001806108f8576108f7611599565b5b6109058460028401610ef7565b8a0898507f30644e72e131a029b85045b68181585d2833e84879b9709143e1f593f00000018061093857610937611599565b5b6109458460038401610ef7565b890897506109528b610f0a565b9a5061095d8a610f0a565b995061096889610f0a565b985061097388610f0a565b97506109818b8b8b8b610ba8565b809b50819c50829d50839e505050505050808060010191505061083a565b505f600490505b603c811015610a23577f30644e72e131a029b85045b68181585d2833e84879b9709143e1f593f0000001806109de576109dd611599565b5b6109eb8360048402610ef7565b8b0899506109f88a610f0a565b9950610a068a8a8a8a610fb0565b809a50819b50829c50839d505050505080806001019150506109a6565b505f603c90505b6040811015610b8f575f6004820290507f30644e72e131a029b85045b68181585d2833e84879b9709143e1f593f000000180610a6957610a68611599565b5b610a75845f8401610ef7565b8c089a507f30644e72e131a029b85045b68181585d2833e84879b9709143e1f593f000000180610aa857610aa7611599565b5b610ab58460018401610ef7565b8b0899507f30644e72e131a029b85045b68181585d2833e84879b9709143e1f593f000000180610ae857610ae7611599565b5b610af58460028401610ef7565b8a0898507f30644e72e131a029b85045b68181585d2833e84879b9709143e1f593f000000180610b2857610b27611599565b5b610b358460038401610ef7565b89089750610b428b610f0a565b9a50610b4d8a610f0a565b9950610b5889610f0a565b9850610b6388610f0a565b9750610b718b8b8b8b610ba8565b809b50819c50829d50839e5050505050508080600101915050610a2a565b5088888888945094509450945050945094509450949050565b5f5f5f5f5f7f30644e72e131a029b85045b68181585d2833e84879b9709143e1f593f000000180610bdc57610bdb611599565b5b888a0890505f7f30644e72e131a029b85045b68181585d2833e84879b9709143e1f593f000000180610c1157610c10611599565b5b87890890505f7f30644e72e131a029b85045b68181585d2833e84879b9709143e1f593f000000180610c4657610c45611599565b5b827f30644e72e131a029b85045b68181585d2833e84879b9709143e1f593f000000180610c7657610c75611599565b5b8c8d080890505f7f30644e72e131a029b85045b68181585d2833e84879b9709143e1f593f000000180610cac57610cab611599565b5b847f30644e72e131a029b85045b68181585d2833e84879b9709143e1f593f000000180610cdc57610cdb611599565b5b8b8c080890505f7f30644e72e131a029b85045b68181585d2833e84879b9709143e1f593f000000180610d1257610d11611599565b5b7f30644e72e131a029b85045b68181585d2833e84879b9709143e1f593f000000180610d4157610d40611599565b5b8586087f30644e72e131a029b85045b68181585d2833e84879b9709143e1f593f000000180610d7357610d72611599565b5b8687080890507f30644e72e131a029b85045b68181585d2833e84879b9709143e1f593f000000180610da857610da7611599565b5b82820890505f7f30644e72e131a029b85045b68181585d2833e84879b9709143e1f593f000000180610ddd57610ddc611599565b5b7f30644e72e131a029b85045b68181585d2833e84879b9709143e1f593f000000180610e0c57610e0b611599565b5b8788087f30644e72e131a029b85045b68181585d2833e84879b9709143e1f593f000000180610e3e57610e3d611599565b5b8889080890507f30644e72e131a029b85045b68181585d2833e84879b9709143e1f593f000000180610e7357610e72611599565b5b84820890507f30644e72e131a029b85045b68181585d2833e84879b9709143e1f593f000000180610ea757610ea6611599565b5b818408817f30644e72e131a029b85045b68181585d2833e84879b9709143e1f593f000000180610eda57610ed9611599565b5b848708849950995099509950505050505050945094509450949050565b5f8160051b602001830151905092915050565b5f5f7f30644e72e131a029b85045b68181585d2833e84879b9709143e1f593f000000180610f3b57610f3a611599565b5b83840990505f7f30644e72e131a029b85045b68181585d2833e84879b9709143e1f593f000000180610f7057610f6f611599565b5b82830990507f30644e72e131a029b85045b68181585d2833e84879b9709143e1f593f000000180610fa457610fa3611599565b5b84820992505050919050565b5f5f5f5f5f7f30644e72e131a029b85045b68181585d2833e84879b9709143e1f593f000000180610fe457610fe3611599565b5b7f30644e72e131a029b85045b68181585d2833e84879b9709143e1f593f00000018061101357611012611599565b5b8789087f30644e72e131a029b85045b68181585d2833e84879b9709143e1f593f00000018061104557611044611599565b5b8a8c080890507f30644e72e131a029b85045b68181585d2833e84879b9709143e1f593f00000018061107a57611079611599565b5b817f30644e72e131a029b85045b68181585d2833e84879b9709143e1f593f0000001806110aa576110a9611599565b5b7f10dc6e9c006ea38b04b1e03b4bd9490c0d03f98929ca1d7fb56821fd19d3b6e78c090898507f30644e72e131a029b85045b68181585d2833e84879b9709143e1f593f0000001806110ff576110fe611599565b5b817f30644e72e131a029b85045b68181585d2833e84879b9709143e1f593f00000018061112f5761112e611599565b5b7f0c28145b6a44df3e0149b3d0a30b3bb599df9756d4dd9b84a86b38cfb45a740b8b090897507f30644e72e131a029b85045b68181585d2833e84879b9709143e1f593f00000018061118457611183611599565b5b817f30644e72e131a029b85045b68181585d2833e84879b9709143e1f593f0000001806111b4576111b3611599565b5b7e544b8338791518b2c7645a50392798b21f75bb60e3596170067d00141cac158a090896507f30644e72e131a029b85045b68181585d2833e84879b9709143e1f593f00000018061120857611207611599565b5b817f30644e72e131a029b85045b68181585d2833e84879b9709143e1f593f00000018061123857611237611599565b5b7f222c01175718386f2e2e82eb122789e352e105a3b8fa852613bc534433ee428b890908955088888888945094509450945050945094509450949050565b6040518060800160405280600490602082028036833780820191505090505090565b5f5ffd5b5f819050919050565b6112ae8161129c565b81146112b8575f5ffd5b50565b5f813590506112c9816112a5565b92915050565b5f5f5f606084860312156112e6576112e5611298565b5b5f6112f3868287016112bb565b9350506020611304868287016112bb565b9250506040611315868287016112bb565b9150509250925092565b6113288161129c565b82525050565b5f6020820190506113415f83018461131f565b92915050565b5f5f5f5f6080858703121561135f5761135e611298565b5b5f61136c878288016112bb565b945050602061137d878288016112bb565b935050604061138e878288016112bb565b925050606061139f878288016112bb565b91505092959194509250565b5f5f604083850312156113c1576113c0611298565b5b5f6113ce858286016112bb565b92505060206113df858286016112bb565b9150509250929050565b5f5ffd5b5f81905082602060040282011115611408576114076113e9565b5b92915050565b5f6080828403121561142357611422611298565b5b5f611430848285016113ed565b91505092915050565b5f60049050919050565b5f81905092915050565b5f819050919050565b61145f8161129c565b82525050565b5f6114708383611456565b60208301905092915050565b5f602082019050919050565b61149181611439565b61149b8184611443565b92506114a68261144d565b805f5b838110156114d65781516114bd8782611465565b96506114c88361147c565b9250506001810190506114a9565b505050505050565b5f6080820190506114f15f830184611488565b92915050565b5f5f5f5f5f60a086880312156115105761150f611298565b5b5f61151d888289016112bb565b955050602061152e888289016112bb565b945050604061153f888289016112bb565b9350506060611550888289016112bb565b9250506080611561888289016112bb565b9150509295509295909350565b5f6020828403121561158357611582611298565b5b5f611590848285016112bb565b91505092915050565b7f4e487b71000000000000000000000000000000000000000000000000000000005f52601260045260245ffd5b7f4e487b71000000000000000000000000000000000000000000000000000000005f52603260045260245ffdfe19b849f69450b06848da1d39bd5e4a4302bb86744edc26238b0878e269ed23e5265ddfe127dd51bd7239347b758f0a1320eb2cc7450acc1dad47f80c8dcf34d6199750ec472f1809e0f66a545e1e51624108ac845015c2aa3dfc36bab497d8aa157ff3fe65ac7208110f06a5f74302b14d743ea25067f0ffd032f787c7f1cdf82e49c43c4569dd9c5fd35ac45fca33f10b15c590692f8beefe18f4896ac949020e35fb89981890520d4aef2b6d6506c3cb2f0b6973c24fa82731345ffa2d1f1e251ad47cb15c4f1105f109ae5e944f1ba9d9e7806d667ffec6fe723002e0b99613da07dc64d428369873e97160234641f8beb56fdd05e5f3563fa39d9c22df4e0c009b84e650e6d23dc00c7dccef7483a553939689d350cd46e7b89055fd4738011f16b1c63a854f01992e3956f42d8b04eb650c6d535eb0203dec74befdca060ed69e5e383a688f209d9a561daa79612f3f78d0467ad45485df07093f36754904dba94a7b0ce9e221acad41472b6bbe3aec507f5eb3d33f463672264c9f789b0a3f2637d840f3a16eb094271c9d237b6036757d4bb50bf7ce732ff1d4fa28e8259a666f129eea198f8a1c502fdb38fa39b1f075569564b6e54a485d1182323f28bf7459c9b2f4c6d8e7d06a4ee3a47f7745d4271038e5157a32fdf7ede0d6a10a1ca941f057037526ea200f489be8d4c37c85bbcce6a2aeec91bd69414324470c6f8f958be0e93053d7fd4fc54512855535ed1539f051dcb43a26fd926361cf000000000000000000000000000000000000000000000000000000000000000000000000000000000000000000000000000000000000000000000000000000000000000000000000000000000000000000000000000000000000000000000000123106a93cd17578d426e8128ac9d90aa9e8a00708e296e084dd57e69caaf81100000000000000000000000000000000000000000000000000000000000000000000000000000000000000000000000000000000000000000000000000000000000000000000000000000000000000000000000000000000000000000000000026e1ba52ad9285d97dd3ab52f8e840085e8fa83ff1e8f1877b074867cd2dee750000000000000000000000000000000000000000000000000000000000000000000000000000000000000000000000000000000000000000000000000000000000000000000000000000000000000000000000000000000000000000000000001cb55cad7bd133de18a64c5c47b9c97cbe4d8b7bf9e095864471537e6a4ae2c50000000000000000000000000000000000000000000000000000000000000000000000000000000000000000000000000000000000000000000000000000000000000000000000000000000000000000000000000000000000000000000000001dcd73e46acd8f8e0e2c7ce04bde7f6d2a53043d5060a41c7143f08e6e9055d0000000000000000000000000000000000000000000000000000000000000000000000000000000000000000000000000000000000000000000000000000000000000000000000000000000000000000000000000000000000000000000000000011003e32f6d9c66f5852f05474a4def0cda294a0eb4e9b9b12b9bb4512e55740000000000000000000000000000000000000000000000000000000000000000000000000000000000000000000000000000000000000000000000000000000000000000000000000000000000000000000000000000000000000000000000002b1e809ac1d10ab29ad5f20d03a57dfebadfe5903f58bafed7c508dd2287ae8c0000000000000000000000000000000000000000000000000000000000000000000000000000000000000000000000000000000000000000000000000000000000000000000000000000000000000000000000000000000000000000000000002539de1785b735999fb4dac35ee17ed0ef995d05ab2fc5faeaa69ae87bcec0a50000000000000000000000000000000000000000000000000000000000000000000000000000000000000000000000000000000000000000000000000000000000000000000000000000000000000000000000000000000000000000000000000c246c5a2ef8ee0126497f222b3e0a0ef4e1c3d41c86d46e43982cb11d77951d000000000000000000000000000000000000000000000000000000000000000000000000000000000000000000000000000000000000000000000000000000000000000000000000000000000000000000000000000000000000000000000000192089c4974f68e95408148f7c0632edbb09e6a6ad1a1c2f3f0305f5d03b527b0000000000000000000000000000000000000000000000000000000000000000000000000000000000000000000000000000000000000000000000000000000000000000000000000000000000000000000000000000000000000000000000001eae0ad8ab68b2f06a0ee36eeb0d0c058529097d91096b756d8fdc2fb5a60d85000000000000000000000000000000000000000000000000000000000000000000000000000000000000000000000000000000000000000000000000000000000000000000000000000000000000000000000000000000000000000000000000179190e5d0e22179e46f8282872abc88db6e2fdc0dee99e69768bd98c5d06bfb00000000000000000000000000000000000000000000000000000000000000000000000000000000000000000000000000000000000000000000000000000000000000000000000000000000000000000000000000000000000000000000000029bb9e2c9076732576e9a81c7ac4b83214528f7db00f31bf6cafe794a9b3cd1c000000000000000000000000000000000000000000000000000000000000000000000000000000000000000000000000000000000000000000000000000000000000000000000000000000000000000000000000000000000000000000000000225d394e42207599403efd0c2464a90d52652645882aac35b10e590e6e691e08000000000000000000000000000000000000000000000000000000000000000000000000000000000000000000000000000000000000000000000000000000000000000000000000000000000000000000000000000000000000000000000000064760623c25c8cf753d238055b444532be13557451c087de09efd454b23fd5900000000000000000000000000000000000000000000000000000000000000000000000000000000000000000000000000000000000000000000000000000000000000000000000000000000000000000000000000000000000000000000000010ba3a0e01df92e87f301c4b716d8a394d67f4bf42a75c10922910a78f6b5b870000000000000000000000000000000000000000000000000000000000000000000000000000000000000000000000000000000000000000000000000000000000000000000000000000000000000000000000000000000000000000000000000e070bf53f8451b24f9c6e96b0c2a801cb511bc0c242eb9d361b77693f21471c0000000000000000000000000000000000000000000000000000000000000000000000000000000000000000000000000000000000000000000000000000000000000000000000000000000000000000000000000000000000000000000000001b94cd61b051b04dd39755ff93821a73ccd6cb11d2491d8aa7f921014de252fb0000000000000000000000000000000000000000000000000000000000000000000000000000000000000000000000000000000000000000000000000000000000000000000000000000000000000000000000000000000000000000000000001d7cb39bafb8c744e148787a2e70230f9d4e917d5713bb050487b5aa7d74070b0000000000000000000000000000000000000000000000000000000000000000000000000000000000000000000000000000000000000000000000000000000000000000000000000000000000000000000000000000000000000000000000002ec93189bd1ab4f69117d0fe980c80ff8785c2961829f701bb74ac1f303b17db0000000000000000000000000000000000000000000000000000000000000000000000000000000000000000000000000000000000000000000000000000000000000000000000000000000000000000000000000000000000000000000000002db366bfdd36d277a692bb825b86275beac404a19ae07a9082ea46bd83517926000000000000000000000000000000000000000000000000000000000000000000000000000000000000000000000000000000000000000000000000000000000000000000000000000000000000000000000000000000000000000000000000062100eb485db06269655cf186a68532985275428450359adc99cec6960711b80000000000000000000000000000000000000000000000000000000000000000000000000000000000000000000000000000000000000000000000000000000000000000000000000000000000000000000000000000000000000000000000000761d33c66614aaa570e7f1e8244ca1120243f92fa59e4f900c567bf41f5a59b00000000000000000000000000000000000000000000000000000000000000000000000000000000000000000000000000000000000000000000000000000000000000000000000000000000000000000000000000000000000000000000000020fc411a114d13992c2705aa034e3f315d78608a0f7de4ccf7a72e494855ad0d00000000000000000000000000000000000000000000000000000000000000000000000000000000000000000000000000000000000000000000000000000000000000000000000000000000000000000000000000000000000000000000000025b5c004a4bdfcb5add9ec4e9ab219ba102c67e8b3effb5fc3a30f317250bc5a00000000000000000000000000000000000000000000000000000000000000000000000000000000000000000000000000000000000000000000000000000000000000000000000000000000000000000000000000000000000000000000000023b1822d278ed632a494e58f6df6f5ed038b186d8474155ad87e7dff62b37f4b00000000000000000000000000000000000000000000000000000000000000000000000000000000000000000000000000000000000000000000000000000000000000000000000000000000000000000000000000000000000000000000000022734b4c5c3f9493606c4ba9012499bf0f14d13bfcfcccaa16102a29cc2f69e000000000000000000000000000000000000000000000000000000000000000000000000000000000000000000000000000000000000000000000000000000000000000000000000000000000000000000000000000000000000000000000000026c0c8fe09eb30b7e27a74dc33492347e5bdff409aa3610254413d3fad795ce5000000000000000000000000000000000000000000000000000000000000000000000000000000000000000000000000000000000000000000000000000000000000000000000000000000000000000000000000000000000000000000000000070dd0ccb6bd7bbae88eac03fa1fbb26196be3083a809829bbd626df348ccad900000000000000000000000000000000000000000000000000000000000000000000000000000000000000000000000000000000000000000000000000000000000000000000000000000000000000000000000000000000000000000000000012b6595bdb329b6fb043ba78bb28c3bec2c0a6de46d8c5ad6067c4ebfd4250da000000000000000000000000000000000000000000000000000000000000000000000000000000000000000000000000000000000000000000000000000000000000000000000000000000000000000000000000000000000000000000000000248d97d7f76283d63bec30e7a5876c11c06fca9b275c671c5e33d95bb7e8d7290000000000000000000000000000000000000000000000000000000000000000000000000000000000000000000000000000000000000000000000000000000000000000000000000000000000000000000000000000000000000000000000001a306d439d463b0816fc6fd64cc939318b45eb759ddde4aa106d15d9bd9baaaa00000000000000000000000000000000000000000000000000000000000000000000000000000000000000000000000000000000000000000000000000000000000000000000000000000000000000000000000000000000000000000000000028a8f8372e3c38daced7c00421cb4621f4f1b54ddc27821b0d62d3d6ec7c56cf0000000000000000000000000000000000000000000000000000000000000000000000000000000000000000000000000000000000000000000000000000000000000000000000000000000000000000000000000000000000000000000000000094975717f9a8a8bb35152f24d43294071ce320c829f388bc852183e1e2ce7e00000000000000000000000000000000000000000000000000000000000000000000000000000000000000000000000000000000000000000000000000000000000000000000000000000000000000000000000000000000000000000000000004d5ee4c3aa78f7d80fde60d716480d3593f74d4f653ae83f4103246db2e8d650000000000000000000000000000000000000000000000000000000000000000000000000000000000000000000000000000000000000000000000000000000000000000000000000000000000000000000000000000000000000000000000002a6cf5e9aa03d4336349ad6fb8ed2269c7bef54b8822cc76d08495c12efde1870000000000000000000000000000000000000000000000000000000000000000000000000000000000000000000000000000000000000000000000000000000000000000000000000000000000000000000000000000000000000000000000002304d31eaab960ba9274da43e19ddeb7f792180808fd6e43baae48d7efcba3f300000000000000000000000000000000000000000000000000000000000000000000000000000000000000000000000000000000000000000000000000000000000000000000000000000000000000000000000000000000000000000000000003fd9ac865a4b2a6d5e7009785817249bff08a7e0726fcb4e1c11d39d199f0b000000000000000000000000000000000000000000000000000000000000000000000000000000000000000000000000000000000000000000000000000000000000000000000000000000000000000000000000000000000000000000000000000b7258ded52bbda2248404d55ee5044798afc3a209193073f7954d4d63b0b64000000000000000000000000000000000000000000000000000000000000000000000000000000000000000000000000000000000000000000000000000000000000000000000000000000000000000000000000000000000000000000000000159f81ada0771799ec38fca2d4bf65ebb13d3a74f3298db36272c5ca65e92d9a0000000000000000000000000000000000000000000000000000000000000000000000000000000000000000000000000000000000000000000000000000000000000000000000000000000000000000000000000000000000000000000000001ef90e67437fbc8550237a75bc28e3bb9000130ea25f0c5471e144cf4264431f0000000000000000000000000000000000000000000000000000000000000000000000000000000000000000000000000000000000000000000000000000000000000000000000000000000000000000000000000000000000000000000000001e65f838515e5ff0196b49aa41a2d2568df739bc176b08ec95a79ed82932e30d0000000000000000000000000000000000000000000000000000000000000000000000000000000000000000000000000000000000000000000000000000000000000000000000000000000000000000000000000000000000000000000000002b1b045def3a166cec6ce768d079ba74b18c844e570e1f826575c1068c94c33f0000000000000000000000000000000000000000000000000000000000000000000000000000000000000000000000000000000000000000000000000000000000000000000000000000000000000000000000000000000000000000000000000832e5753ceb0ff6402543b1109229c165dc2d73bef715e3f1c6e07c168bb17300000000000000000000000000000000000000000000000000000000000000000000000000000000000000000000000000000000000000000000000000000000000000000000000000000000000000000000000000000000000000000000000002f614e9cedfb3dc6b762ae0a37d41bab1b841c2e8b6451bc5a8e3c390b6ad160000000000000000000000000000000000000000000000000000000000000000000000000000000000000000000000000000000000000000000000000000000000000000000000000000000000000000000000000000000000000000000000000e2427d38bd46a60dd640b8e362cad967370ebb777bedff40f6a0be27e7ed7050000000000000000000000000000000000000000000000000000000000000000000000000000000000000000000000000000000000000000000000000000000000000000000000000000000000000000000000000000000000000000000000000493630b7c670b6deb7c84d414e7ce79049f0ec098c3c7c50768bbe29214a53a00000000000000000000000000000000000000000000000000000000000000000000000000000000000000000000000000000000000000000000000000000000000000000000000000000000000000000000000000000000000000000000000022ead100e8e482674decdab17066c5a26bb1515355d5461a3dc06cc85327cea900000000000000000000000000000000000000000000000000000000000000000000000000000000000000000000000000000000000000000000000000000000000000000000000000000000000000000000000000000000000000000000000025b3e56e655b42cdaae2626ed2554d48583f1ae35626d04de5084e0b6d2a6f160000000000000000000000000000000000000000000000000000000000000000000000000000000000000000000000000000000000000000000000000000000000000000000000000000000000000000000000000000000000000000000000001e32752ada8836ef5837a6cde8ff13dbb599c336349e4c584b4fdc0a0cf6f9d00000000000000000000000000000000000000000000000000000000000000000000000000000000000000000000000000000000000000000000000000000000000000000000000000000000000000000000000000000000000000000000000002fa2a871c15a387cc50f68f6f3c3455b23c00995f05078f672a9864074d412e50000000000000000000000000000000000000000000000000000000000000000000000000000000000000000000000000000000000000000000000000000000000000000000000000000000000000000000000000000000000000000000000002f569b8a9a4424c9278e1db7311e889f54ccbf10661bab7fcd18e7c7a7d83505000000000000000000000000000000000000000000000000000000000000000000000000000000000000000000000000000000000000000000000000000000000000000000000000000000000000000000000000000000000000000000000000044cb455110a8fdd531ade530234c518a7df93f7332ffd2144165374b246b43d000000000000000000000000000000000000000000000000000000000000000000000000000000000000000000000000000000000000000000000000000000000000000000000000000000000000000000000000000000000000000000000000227808de93906d5d420246157f2e42b191fe8c90adfe118178ddc723a531902500000000000000000000000000000000000000000000000000000000000000000000000000000000000000000000000000000000000000000000000000000000000000000000000000000000000000000000000000000000000000000000000002fcca2934e046bc623adead873579865d03781ae090ad4a8579d2e7a68003550000000000000000000000000000000000000000000000000000000000000000000000000000000000000000000000000000000000000000000000000000000000000000000000000000000000000000000000000000000000000000000000000ef915f0ac120b876abccceb344a1d36bad3f3c5ab91a8ddcbec2e060d8befac0000000000000000000000000000000000000000000000000000000000000000000000000000000000000000000000000000000000000000000000000000000000000000000000000000000000000000000000000000000000000000000000001797130f4b7a3e1777eb757bc6f287f6ab0fb85f6be63b09f3b16ef2b1405d380a76225dc04170ae3306c85abab59e608c7f497c20156d4d36c668555decc6e51fffb9ec1992d66ba1e77a7b93209af6f8fa76d48acb664796174b5326a31a5c25721c4fc15a3f2853b57c338fa538d85f8fbba6c6b9c6090611889b797b9c5f0c817fd42d5f7a41215e3d07ba197216adb4c3790705da95eb63b982bfcaf75a13abe3f5239915d39f7e13c2c24970b6df8cf86ce00a22002bc15866e52b5a962106feea546224ea12ef7f39987a46c85c1bc3dc29bdbd7a92cd60acb4d391ce21ca859468a746b6aaa79474a37dab49f1ca5a28c748bc7157e1b3345bb0f95905ccd6255c1e6f0c5cf1f0df934194c62911d14d0321662a8f1a48999e34185b0f0e34a64b70a626e464d846674c4c8816c4fb267fe44fe6ea28678cb09490a40558531a4e25470c6157794ca36d0e9647dbfcfe350d64838f5b1a8a2de0d4bf09d3dca9173ed2faceea125157683d18924cadad3f655a60b72f5864961f14550328cbd54e8c0913493f866ed03d218bf23f92d68aaec48617d4c722e5bd43352bf07216e2aff0a223a487b1a7094e07e79e7bcc9798c648ee3347dd5329d34b1daf345a58006b736499c583cb76c316d6f78ed6a6dffc82111e11a63fe412df176563472456aaa746b694c60e1823611ef39039b2edc7ff391e6f2293d2c404a2646970667358221220b04ef42a429835957fe4d9c831275fb5666cbc611cf67958ab42fb2d2d9e86fd64736f6c634300081e0033","linkReferences":{}},"methodIdentifiers":{"hash1(uint256)":"f527081e","hash2(uint256,uint256)":"511c53ff","hash3(uint256,uint256,uint256)":"2dbf86c6","hash4(uint256,uint256,uint256,uint256)":"3b3ccded","hash5(uint256,uint256,uint256,uint256,uint256)":"c98aeff5","perm(uint256[4])":"68769d67"},"id":1}