{"abi":[{"type":"function","name":"hash1","inputs":[{"name":"a0","type":"uint256","internalType":"uint256"}],"outputs":[{"name":"","type":"uint256","internalType":"uint256"}],"stateMutability":"pure"},{"type":"function","name":"hash2","inputs":[{"name":"a0","type":"uint256","internalType":"uint256"},{"name":"a1","type":"uint256","internalType":"uint256"}],"outputs":[{"name":"","type":"uint256","internalType":"uint256"}],"stateMutability":"pure"},{"type":"function","name":"hash3","inputs":[{"name":"a0","type":"uint256","internalType":"uint256"},{"name":"a1","type":"uint256","internalType":"uint256"},{"name":"a2","type":"uint256","internalType":"uint256"}],"outputs":[{"name":"","type":"uint256","internalType":"uint256"}],"stateMutability":"pure"},{"type":"function","name":"hash4","inputs":[{"name":"a0","type":"uint256","internalType":"uint256"},{"name":"a1","type":"uint256","internalType":"uint256"},{"name":"a2","type":"uint256","internalType":"uint256"},{"name":"a3","type":"uint256","internalType":"uint256"}],"outputs":[{"name":"","type":"uint256","internalType":"uint256"}],"stateMutability":"pure"},{"type":"function","name":"hash5","inputs":[{"name":"a0","type":"uint256","internalType":"uint256"},{"name":"a1","type":"uint256","internalType":"uint256"},{"name":"a2","type":"uint256","internalType":"uint256"},{"name":"a3","type":"uint256","internalType":"uint256"},{"name":"a4","type":"uint256","internalType":"uint256"}],"outputs":[{"name":"","type":"uint256","internalType":"uint256"}],"stateMutability":"pure"},{"type":"function","name":"hash6","inputs":[{"name":"a0","type":"uint256","internalType":"uint256"},{"name":"a1","type":"uint256","internalType":"uint256"},{"name":"a2","type":"uint256","internalType":"uint256"},{"name":"a3","type":"uint256","internalType":"uint256"},{"name":"a4","type":"uint256","internalType":"uint256"},{"name":"a5","type":"uint256","internalType":"uint256"}],"outputs":[{"name":"","type":"uint256","internalType":"uint256"}],"stateMutability":"pure"},{"type":"function","name":"hash7","inputs":[{"name":"a0","type":"uint256","internalType":"uint256"},{"name":"a1","type":"uint256","internalType":"uint256"},{"name":"a2","type":"uint256","internalType":"uint256"},{"name":"a3","type":"uint256","internalType":"uint256"},{"name":"a4","type":"uint256","internalType":"uint256"},{"name":"a5","type":"uint256","internalType":"uint256"},{"name":"a6","type":"uint256","internalType":"uint256"}],"outputs":[{"name":"","type":"uint256","internalType":"uint256"}],"stateMutability":"pure"},{"type":"function","name":"hash8","inputs":[{"name":"a0","type":"uint256","internalType":"uint256"},{"name":"a1","type":"uint256","internalType":"uint256"},{"name":"a2","type":"uint256","internalType":"uint256"},{"name":"a3","type":"uint256","internalType":"uint256"},{"name":"a4","type":"uint256","internalType":"uint256"},{"name":"a5","type":"uint256","internalType":"uint256"},{"name":"a6","type":"uint256","internalType":"uint256"},{"name":"a7","type":"uint256","internalType":"uint256"}],"outputs":[{"name":"","type":"uint256","internalType":"uint256"}],"stateMutability":"pure"},{"type":"function","name":"hash9","inputs":[{"name":"a0","type":"uint256","internalType":"uint256"},{"name":"a1","type":"uint256","internalType":"uint256"},{"name":"a2","type":"uint256","internalType":"uint256"},{"name":"a3","type":"uint256","internalType":"uint256"},{"name":"a4","type":"uint256","internalType":"uint256"},{"name":"a5","type":"uint256","internalType":"uint256"},{"name":"a6","type":"uint256","internalType":"uint256"},{"name":"a7","type":"uint256","internalType":"uint256"},{"name":"a8","type":"uint256","internalType":"uint256"}],"outputs":[{"name":"","type":"uint256","internalType":"uint256"}],"stateMutability":"pure"},{"type":"function","name":"perm","inputs":[{"name":"x","type":"uint256[4]","internalType":"uint256[4]"}],"outputs":[{"name":"","type":"uint256[4]","internalType":"uint256[4]"}],"stateMutability":"pure"}],"bytecode":{"object":"0x6080604052348015600e575f5ffd5b506142128061001c5f395ff3fe608060405234801561000f575f5ffd5b506004361061009c575f3560e01c80637a5ac607116100645780637a5ac60714610190578063c98aeff5146101c0578063cd7c9bdb146101f0578063f46a2f4c14610220578063f527081e146102505761009c565b80632dbf86c6146100a057806331455ebc146100d05780633b3ccded14610100578063511c53ff1461013057806368769d6714610160575b5f5ffd5b6100ba60048036038101906100b59190611c1d565b610280565b6040516100c79190611c7c565b60405180910390f35b6100ea60048036038101906100e59190611c95565b610295565b6040516100f79190611c7c565b60405180910390f35b61011a60048036038101906101159190611d32565b6102b2565b6040516101279190611c7c565b60405180910390f35b61014a60048036038101906101459190611d96565b6102c9565b6040516101579190611c7c565b60405180910390f35b61017a60048036038101906101759190611df9565b6102dc565b6040516101879190611ec9565b60405180910390f35b6101aa60048036038101906101a59190611ee2565b61032a565b6040516101b79190611c7c565b60405180910390f35b6101da60048036038101906101d59190611f93565b610349565b6040516101e79190611c7c565b60405180910390f35b61020a6004803603810190610205919061200a565b610362565b6040516102179190611c7c565b60405180910390f35b61023a600480360381019061023591906120ce565b610383565b6040516102479190611c7c565b60405180910390f35b61026a60048036038101906102659190612157565b61039e565b6040516102779190611c7c565b60405180910390f35b5f61028c8484846103af565b90509392505050565b5f6102a588888888888888610486565b9050979650505050505050565b5f6102bf85858585610669565b9050949350505050565b5f6102d48383610791565b905092915050565b6102e4611bc4565b6103238260048060200260405190810160405280929190826004602002808284375f81840152601f19601f820116905080830192505050505050610833565b9050919050565b5f61033b8989898989898989610932565b905098975050505050505050565b5f6103578686868686610b4a565b905095945050505050565b5f6103748a8a8a8a8a8a8a8a8a610ca7565b90509998505050505050505050565b5f610392878787878787610ef4565b90509695505050505050565b5f6103a882611086565b9050919050565b5f5f5f5f5f6103be60036110f3565b93509350935093507f30644e72e131a029b85045b68181585d2833e84879b9709143e1f593f0000001806103f5576103f4612182565b5b88850893507f30644e72e131a029b85045b68181585d2833e84879b9709143e1f593f00000018061042957610428612182565b5b87840892507f30644e72e131a029b85045b68181585d2833e84879b9709143e1f593f00000018061045d5761045c612182565b5b868308915061046e84848484611144565b90915090505080945050839450505050509392505050565b5f5f5f5f5f61049560076110f3565b93509350935093507f30644e72e131a029b85045b68181585d2833e84879b9709143e1f593f0000001806104cc576104cb612182565b5b8c850893507f30644e72e131a029b85045b68181585d2833e84879b9709143e1f593f000000180610500576104ff612182565b5b8b840892507f30644e72e131a029b85045b68181585d2833e84879b9709143e1f593f00000018061053457610533612182565b5b8a8308915061054584848484611144565b809450819550829650839750505050507f30644e72e131a029b85045b68181585d2833e84879b9709143e1f593f00000018061058457610583612182565b5b89850893507f30644e72e131a029b85045b68181585d2833e84879b9709143e1f593f0000001806105b8576105b7612182565b5b88840892507f30644e72e131a029b85045b68181585d2833e84879b9709143e1f593f0000001806105ec576105eb612182565b5b87830891506105fd84848484611144565b809450819550829650839750505050507f30644e72e131a029b85045b68181585d2833e84879b9709143e1f593f00000018061063c5761063b612182565b5b868508935061064d84848484611144565b9091509050508094505083945050505050979650505050505050565b5f5f5f5f5f61067860046110f3565b93509350935093507f30644e72e131a029b85045b68181585d2833e84879b9709143e1f593f0000001806106af576106ae612182565b5b89850893507f30644e72e131a029b85045b68181585d2833e84879b9709143e1f593f0000001806106e3576106e2612182565b5b88840892507f30644e72e131a029b85045b68181585d2833e84879b9709143e1f593f00000018061071757610716612182565b5b878308915061072884848484611144565b809450819550829650839750505050507f30644e72e131a029b85045b68181585d2833e84879b9709143e1f593f00000018061076757610766612182565b5b868508935061077884848484611144565b9091509050508094505083945050505050949350505050565b5f5f5f5f5f6107a060026110f3565b93509350935093507f30644e72e131a029b85045b68181585d2833e84879b9709143e1f593f0000001806107d7576107d6612182565b5b87850893507f30644e72e131a029b85045b68181585d2833e84879b9709143e1f593f00000018061080b5761080a612182565b5b868408925061081c84848484611144565b909150905050809450508394505050505092915050565b61083b611bc4565b5f5f5f5f6108aa865f60048110610855576108546121af565b5b60200201518760016004811061086e5761086d6121af565b5b602002015188600260048110610887576108866121af565b5b6020020151896003600481106108a05761089f6121af565b5b6020020151611144565b935093509350935083855f600481106108c6576108c56121af565b5b60200201818152505082856001600481106108e4576108e36121af565b5b6020020181815250508185600260048110610902576109016121af565b5b60200201818152505080856003600481106109205761091f6121af565b5b60200201818152505050505050919050565b5f5f5f5f5f61094160086110f3565b93509350935093507f30644e72e131a029b85045b68181585d2833e84879b9709143e1f593f00000018061097857610977612182565b5b8d850893507f30644e72e131a029b85045b68181585d2833e84879b9709143e1f593f0000001806109ac576109ab612182565b5b8c840892507f30644e72e131a029b85045b68181585d2833e84879b9709143e1f593f0000001806109e0576109df612182565b5b8b830891506109f184848484611144565b809450819550829650839750505050507f30644e72e131a029b85045b68181585d2833e84879b9709143e1f593f000000180610a3057610a2f612182565b5b8a850893507f30644e72e131a029b85045b68181585d2833e84879b9709143e1f593f000000180610a6457610a63612182565b5b89840892507f30644e72e131a029b85045b68181585d2833e84879b9709143e1f593f000000180610a9857610a97612182565b5b8883089150610aa984848484611144565b809450819550829650839750505050507f30644e72e131a029b85045b68181585d2833e84879b9709143e1f593f000000180610ae857610ae7612182565b5b87850893507f30644e72e131a029b85045b68181585d2833e84879b9709143e1f593f000000180610b1c57610b1b612182565b5b8684089250610b2d84848484611144565b909150905050809450508394505050505098975050505050505050565b5f5f5f5f5f610b5960056110f3565b93509350935093507f30644e72e131a029b85045b68181585d2833e84879b9709143e1f593f000000180610b9057610b8f612182565b5b8a850893507f30644e72e131a029b85045b68181585d2833e84879b9709143e1f593f000000180610bc457610bc3612182565b5b89840892507f30644e72e131a029b85045b68181585d2833e84879b9709143e1f593f000000180610bf857610bf7612182565b5b8883089150610c0984848484611144565b809450819550829650839750505050507f30644e72e131a029b85045b68181585d2833e84879b9709143e1f593f000000180610c4857610c47612182565b5b87850893507f30644e72e131a029b85045b68181585d2833e84879b9709143e1f593f000000180610c7c57610c7b612182565b5b8684089250610c8d84848484611144565b909150905050809450508394505050505095945050505050565b5f5f5f5f5f610cb660096110f3565b93509350935093507f30644e72e131a029b85045b68181585d2833e84879b9709143e1f593f000000180610ced57610cec612182565b5b8e850893507f30644e72e131a029b85045b68181585d2833e84879b9709143e1f593f000000180610d2157610d20612182565b5b8d840892507f30644e72e131a029b85045b68181585d2833e84879b9709143e1f593f000000180610d5557610d54612182565b5b8c83089150610d6684848484611144565b809450819550829650839750505050507f30644e72e131a029b85045b68181585d2833e84879b9709143e1f593f000000180610da557610da4612182565b5b8b850893507f30644e72e131a029b85045b68181585d2833e84879b9709143e1f593f000000180610dd957610dd8612182565b5b8a840892507f30644e72e131a029b85045b68181585d2833e84879b9709143e1f593f000000180610e0d57610e0c612182565b5b8983089150610e1e84848484611144565b809450819550829650839750505050507f30644e72e131a029b85045b68181585d2833e84879b9709143e1f593f000000180610e5d57610e5c612182565b5b88850893507f30644e72e131a029b85045b68181585d2833e84879b9709143e1f593f000000180610e9157610e90612182565b5b87840892507f30644e72e131a029b85045b68181585d2833e84879b9709143e1f593f000000180610ec557610ec4612182565b5b8683089150610ed684848484611144565b90915090505080945050839450505050509998505050505050505050565b5f5f5f5f5f610f0360066110f3565b93509350935093507f30644e72e131a029b85045b68181585d2833e84879b9709143e1f593f000000180610f3a57610f39612182565b5b8b850893507f30644e72e131a029b85045b68181585d2833e84879b9709143e1f593f000000180610f6e57610f6d612182565b5b8a840892507f30644e72e131a029b85045b68181585d2833e84879b9709143e1f593f000000180610fa257610fa1612182565b5b8983089150610fb384848484611144565b809450819550829650839750505050507f30644e72e131a029b85045b68181585d2833e84879b9709143e1f593f000000180610ff257610ff1612182565b5b88850893507f30644e72e131a029b85045b68181585d2833e84879b9709143e1f593f00000018061102657611025612182565b5b87840892507f30644e72e131a029b85045b68181585d2833e84879b9709143e1f593f00000018061105a57611059612182565b5b868308915061106b84848484611144565b90915090505080945050839450505050509695505050505050565b5f5f5f5f5f61109560016110f3565b93509350935093507f30644e72e131a029b85045b68181585d2833e84879b9709143e1f593f0000001806110cc576110cb612182565b5b86850893506110dd84848484611144565b9091509050508094505083945050505050919050565b5f5f5f5f5f93505f92505f91507f30644e72e131a029b85045b68181585d2833e84879b9709143e1f593f00000018061112f5761112e612182565b5b68010000000000000000860990509193509193565b5f5f5f5f5f60405180612020016040528061200081526020016121dd61200091399050611173898989896114f6565b809950819a50829b50839c50505050505f5f90505b60048110156112ed575f6004820290507f30644e72e131a029b85045b68181585d2833e84879b9709143e1f593f0000001806111c7576111c6612182565b5b6111d3845f8401611845565b8c089a507f30644e72e131a029b85045b68181585d2833e84879b9709143e1f593f00000018061120657611205612182565b5b6112138460018401611845565b8b0899507f30644e72e131a029b85045b68181585d2833e84879b9709143e1f593f00000018061124657611245612182565b5b6112538460028401611845565b8a0898507f30644e72e131a029b85045b68181585d2833e84879b9709143e1f593f00000018061128657611285612182565b5b6112938460038401611845565b890897506112a08b611858565b9a506112ab8a611858565b99506112b689611858565b98506112c188611858565b97506112cf8b8b8b8b6114f6565b809b50819c50829d50839e5050505050508080600101915050611188565b505f600490505b603c811015611371577f30644e72e131a029b85045b68181585d2833e84879b9709143e1f593f00000018061132c5761132b612182565b5b6113398360048402611845565b8b0899506113468a611858565b99506113548a8a8a8a6118fe565b809a50819b50829c50839d505050505080806001019150506112f4565b505f603c90505b60408110156114dd575f6004820290507f30644e72e131a029b85045b68181585d2833e84879b9709143e1f593f0000001806113b7576113b6612182565b5b6113c3845f8401611845565b8c089a507f30644e72e131a029b85045b68181585d2833e84879b9709143e1f593f0000001806113f6576113f5612182565b5b6114038460018401611845565b8b0899507f30644e72e131a029b85045b68181585d2833e84879b9709143e1f593f00000018061143657611435612182565b5b6114438460028401611845565b8a0898507f30644e72e131a029b85045b68181585d2833e84879b9709143e1f593f00000018061147657611475612182565b5b6114838460038401611845565b890897506114908b611858565b9a5061149b8a611858565b99506114a689611858565b98506114b188611858565b97506114bf8b8b8b8b6114f6565b809b50819c50829d50839e5050505050508080600101915050611378565b5088888888945094509450945050945094509450949050565b5f5f5f5f5f7f30644e72e131a029b85045b68181585d2833e84879b9709143e1f593f00000018061152a57611529612182565b5b888a0890505f7f30644e72e131a029b85045b68181585d2833e84879b9709143e1f593f00000018061155f5761155e612182565b5b87890890505f7f30644e72e131a029b85045b68181585d2833e84879b9709143e1f593f00000018061159457611593612182565b5b827f30644e72e131a029b85045b68181585d2833e84879b9709143e1f593f0000001806115c4576115c3612182565b5b8c8d080890505f7f30644e72e131a029b85045b68181585d2833e84879b9709143e1f593f0000001806115fa576115f9612182565b5b847f30644e72e131a029b85045b68181585d2833e84879b9709143e1f593f00000018061162a57611629612182565b5b8b8c080890505f7f30644e72e131a029b85045b68181585d2833e84879b9709143e1f593f0000001806116605761165f612182565b5b7f30644e72e131a029b85045b68181585d2833e84879b9709143e1f593f00000018061168f5761168e612182565b5b8586087f30644e72e131a029b85045b68181585d2833e84879b9709143e1f593f0000001806116c1576116c0612182565b5b8687080890507f30644e72e131a029b85045b68181585d2833e84879b9709143e1f593f0000001806116f6576116f5612182565b5b82820890505f7f30644e72e131a029b85045b68181585d2833e84879b9709143e1f593f00000018061172b5761172a612182565b5b7f30644e72e131a029b85045b68181585d2833e84879b9709143e1f593f00000018061175a57611759612182565b5b8788087f30644e72e131a029b85045b68181585d2833e84879b9709143e1f593f00000018061178c5761178b612182565b5b8889080890507f30644e72e131a029b85045b68181585d2833e84879b9709143e1f593f0000001806117c1576117c0612182565b5b84820890507f30644e72e131a029b85045b68181585d2833e84879b9709143e1f593f0000001806117f5576117f4612182565b5b818408817f30644e72e131a029b85045b68181585d2833e84879b9709143e1f593f00000018061182857611827612182565b5b848708849950995099509950505050505050945094509450949050565b5f8160051b602001830151905092915050565b5f5f7f30644e72e131a029b85045b68181585d2833e84879b9709143e1f593f00000018061188957611888612182565b5b83840990505f7f30644e72e131a029b85045b68181585d2833e84879b9709143e1f593f0000001806118be576118bd612182565b5b82830990507f30644e72e131a029b85045b68181585d2833e84879b9709143e1f593f0000001806118f2576118f1612182565b5b84820992505050919050565b5f5f5f5f5f7f30644e72e131a029b85045b68181585d2833e84879b9709143e1f593f00000018061193257611931612182565b5b7f30644e72e131a029b85045b68181585d2833e84879b9709143e1f593f00000018061196157611960612182565b5b8789087f30644e72e131a029b85045b68181585d2833e84879b9709143e1f593f00000018061199357611992612182565b5b8a8c080890507f30644e72e131a029b85045b68181585d2833e84879b9709143e1f593f0000001806119c8576119c7612182565b5b817f30644e72e131a029b85045b68181585d2833e84879b9709143e1f593f0000001806119f8576119f7612182565b5b7f10dc6e9c006ea38b04b1e03b4bd9490c0d03f98929ca1d7fb56821fd19d3b6e78c090898507f30644e72e131a029b85045b68181585d2833e84879b9709143e1f593f000000180611a4d57611a4c612182565b5b817f30644e72e131a029b85045b68181585d2833e84879b9709143e1f593f000000180611a7d57611a7c612182565b5b7f0c28145b6a44df3e0149b3d0a30b3bb599df9756d4dd9b84a86b38cfb45a740b8b090897507f30644e72e131a029b85045b68181585d2833e84879b9709143e1f593f000000180611ad257611ad1612182565b5b817f30644e72e131a029b85045b68181585d2833e84879b9709143e1f593f000000180611b0257611b01612182565b5b7e544b8338791518b2c7645a50392798b21f75bb60e3596170067d00141cac158a090896507f30644e72e131a029b85045b68181585d2833e84879b9709143e1f593f000000180611b5657611b55612182565b5b817f30644e72e131a029b85045b68181585d2833e84879b9709143e1f593f000000180611b8657611b85612182565b5b7f222c01175718386f2e2e82eb122789e352e105a3b8fa852613bc534433ee428b890908955088888888945094509450945050945094509450949050565b6040518060800160405280600490602082028036833780820191505090505090565b5f5ffd5b5f819050919050565b611bfc81611bea565b8114611c06575f5ffd5b50565b5f81359050611c1781611bf3565b92915050565b5f5f5f60608486031215611c3457611c33611be6565b5b5f611c4186828701611c09565b9350506020611c5286828701611c09565b9250506040611c6386828701611c09565b9150509250925092565b611c7681611bea565b82525050565b5f602082019050611c8f5f830184611c6d565b92915050565b5f5f5f5f5f5f5f60e0888a031215611cb057611caf611be6565b5b5f611cbd8a828b01611c09565b9750506020611cce8a828b01611c09565b9650506040611cdf8a828b01611c09565b9550506060611cf08a828b01611c09565b9450506080611d018a828b01611c09565b93505060a0611d128a828b01611c09565b92505060c0611d238a828b01611c09565b91505092959891949750929550565b5f5f5f5f60808587031215611d4a57611d49611be6565b5b5f611d5787828801611c09565b9450506020611d6887828801611c09565b9350506040611d7987828801611c09565b9250506060611d8a87828801611c09565b91505092959194509250565b5f5f60408385031215611dac57611dab611be6565b5b5f611db985828601611c09565b9250506020611dca85828601611c09565b9150509250929050565b5f5ffd5b5f81905082602060040282011115611df357611df2611dd4565b5b92915050565b5f60808284031215611e0e57611e0d611be6565b5b5f611e1b84828501611dd8565b91505092915050565b5f60049050919050565b5f81905092915050565b5f819050919050565b611e4a81611bea565b82525050565b5f611e5b8383611e41565b60208301905092915050565b5f602082019050919050565b611e7c81611e24565b611e868184611e2e565b9250611e9182611e38565b805f5b83811015611ec1578151611ea88782611e50565b9650611eb383611e67565b925050600181019050611e94565b505050505050565b5f608082019050611edc5f830184611e73565b92915050565b5f5f5f5f5f5f5f5f610100898b031215611eff57611efe611be6565b5b5f611f0c8b828c01611c09565b9850506020611f1d8b828c01611c09565b9750506040611f2e8b828c01611c09565b9650506060611f3f8b828c01611c09565b9550506080611f508b828c01611c09565b94505060a0611f618b828c01611c09565b93505060c0611f728b828c01611c09565b92505060e0611f838b828c01611c09565b9150509295985092959890939650565b5f5f5f5f5f60a08688031215611fac57611fab611be6565b5b5f611fb988828901611c09565b9550506020611fca88828901611c09565b9450506040611fdb88828901611c09565b9350506060611fec88828901611c09565b9250506080611ffd88828901611c09565b9150509295509295909350565b5f5f5f5f5f5f5f5f5f6101208a8c03121561202857612027611be6565b5b5f6120358c828d01611c09565b99505060206120468c828d01611c09565b98505060406120578c828d01611c09565b97505060606120688c828d01611c09565b96505060806120798c828d01611c09565b95505060a061208a8c828d01611c09565b94505060c061209b8c828d01611c09565b93505060e06120ac8c828d01611c09565b9250506101006120be8c828d01611c09565b9150509295985092959850929598565b5f5f5f5f5f5f60c087890312156120e8576120e7611be6565b5b5f6120f589828a01611c09565b965050602061210689828a01611c09565b955050604061211789828a01611c09565b945050606061212889828a01611c09565b935050608061213989828a01611c09565b92505060a061214a89828a01611c09565b9150509295509295509295565b5f6020828403121561216c5761216b611be6565b5b5f61217984828501611c09565b91505092915050565b7f4e487b71000000000000000000000000000000000000000000000000000000005f52601260045260245ffd5b7f4e487b71000000000000000000000000000000000000000000000000000000005f52603260045260245ffdfe19b849f69450b06848da1d39bd5e4a4302bb86744edc26238b0878e269ed23e5265ddfe127dd51bd7239347b758f0a1320eb2cc7450acc1dad47f80c8dcf34d6199750ec472f1809e0f66a545e1e51624108ac845015c2aa3dfc36bab497d8aa157ff3fe65ac7208110f06a5f74302b14d743ea25067f0ffd032f787c7f1cdf82e49c43c4569dd9c5fd35ac45fca33f10b15c590692f8beefe18f4896ac949020e35fb89981890520d4aef2b6d6506c3cb2f0b6973c24fa82731345ffa2d1f1e251ad47cb15c4f1105f109ae5e944f1ba9d9e7806d667ffec6fe723002e0b99613da07dc64d428369873e97160234641f8beb56fdd05e5f3563fa39d9c22df4e0c009b84e650e6d23dc00c7dccef7483a553939689d350cd46e7b89055fd4738011f16b1c63a854f01992e3956f42d8b04eb650c6d535eb0203dec74befdca060ed69e5e383a688f209d9a561daa79612f3f78d0467ad45485df07093f36754904dba94a7b0ce9e221acad41472b6bbe3aec507f5eb3d33f463672264c9f789b0a3f2637d840f3a16eb094271c9d237b6036757d4bb50bf7ce732ff1d4fa28e8259a666f129eea198f8a1c502fdb38fa39b1f075569564b6e54a485d1182323f28bf7459c9b2f4c6d8e7d06a4ee3a47f7745d4271038e5157a32fdf7ede0d6a10a1ca941f057037526ea200f489be8d4c37c85bbcce6a2aeec91bd69414324470c6f8f958be0e93053d7fd4fc54512855535ed1539f051dcb43a26fd926361cf000000000000000000000000000000000000000000000000000000000000000000000000000000000000000000000000000000000000000000000000000000000000000000000000000000000000000000000000000000000000000000000000123106a93cd17578d426e8128ac9d90aa9e8a00708e296e084dd57e69caaf81100000000000000000000000000000000000000000000000000000000000000000000000000000000000000000000000000000000000000000000000000000000000000000000000000000000000000000000000000000000000000000000000026e1ba52ad9285d97dd3ab52f8e840085e8fa83ff1e8f1877b074867cd2dee750000000000000000000000000000000000000000000000000000000000000000000000000000000000000000000000000000000000000000000000000000000000000000000000000000000000000000000000000000000000000000000000001cb55cad7bd133de18a64c5c47b9c97cbe4d8b7bf9e095864471537e6a4ae2c50000000000000000000000000000000000000000000000000000000000000000000000000000000000000000000000000000000000000000000000000000000000000000000000000000000000000000000000000000000000000000000000001dcd73e46acd8f8e0e2c7ce04bde7f6d2a53043d5060a41c7143f08e6e9055d0000000000000000000000000000000000000000000000000000000000000000000000000000000000000000000000000000000000000000000000000000000000000000000000000000000000000000000000000000000000000000000000000011003e32f6d9c66f5852f05474a4def0cda294a0eb4e9b9b12b9bb4512e55740000000000000000000000000000000000000000000000000000000000000000000000000000000000000000000000000000000000000000000000000000000000000000000000000000000000000000000000000000000000000000000000002b1e809ac1d10ab29ad5f20d03a57dfebadfe5903f58bafed7c508dd2287ae8c0000000000000000000000000000000000000000000000000000000000000000000000000000000000000000000000000000000000000000000000000000000000000000000000000000000000000000000000000000000000000000000000002539de1785b735999fb4dac35ee17ed0ef995d05ab2fc5faeaa69ae87bcec0a50000000000000000000000000000000000000000000000000000000000000000000000000000000000000000000000000000000000000000000000000000000000000000000000000000000000000000000000000000000000000000000000000c246c5a2ef8ee0126497f222b3e0a0ef4e1c3d41c86d46e43982cb11d77951d000000000000000000000000000000000000000000000000000000000000000000000000000000000000000000000000000000000000000000000000000000000000000000000000000000000000000000000000000000000000000000000000192089c4974f68e95408148f7c0632edbb09e6a6ad1a1c2f3f0305f5d03b527b0000000000000000000000000000000000000000000000000000000000000000000000000000000000000000000000000000000000000000000000000000000000000000000000000000000000000000000000000000000000000000000000001eae0ad8ab68b2f06a0ee36eeb0d0c058529097d91096b756d8fdc2fb5a60d85000000000000000000000000000000000000000000000000000000000000000000000000000000000000000000000000000000000000000000000000000000000000000000000000000000000000000000000000000000000000000000000000179190e5d0e22179e46f8282872abc88db6e2fdc0dee99e69768bd98c5d06bfb00000000000000000000000000000000000000000000000000000000000000000000000000000000000000000000000000000000000000000000000000000000000000000000000000000000000000000000000000000000000000000000000029bb9e2c9076732576e9a81c7ac4b83214528f7db00f31bf6cafe794a9b3cd1c000000000000000000000000000000000000000000000000000000000000000000000000000000000000000000000000000000000000000000000000000000000000000000000000000000000000000000000000000000000000000000000000225d394e42207599403efd0c2464a90d52652645882aac35b10e590e6e691e08000000000000000000000000000000000000000000000000000000000000000000000000000000000000000000000000000000000000000000000000000000000000000000000000000000000000000000000000000000000000000000000000064760623c25c8cf753d238055b444532be13557451c087de09efd454b23fd5900000000000000000000000000000000000000000000000000000000000000000000000000000000000000000000000000000000000000000000000000000000000000000000000000000000000000000000000000000000000000000000000010ba3a0e01df92e87f301c4b716d8a394d67f4bf42a75c10922910a78f6b5b870000000000000000000000000000000000000000000000000000000000000000000000000000000000000000000000000000000000000000000000000000000000000000000000000000000000000000000000000000000000000000000000000e070bf53f8451b24f9c6e96b0c2a801cb511bc0c242eb9d361b77693f21471c0000000000000000000000000000000000000000000000000000000000000000000000000000000000000000000000000000000000000000000000000000000000000000000000000000000000000000000000000000000000000000000000001b94cd61b051b04dd39755ff93821a73ccd6cb11d2491d8aa7f921014de252fb0000000000000000000000000000000000000000000000000000000000000000000000000000000000000000000000000000000000000000000000000000000000000000000000000000000000000000000000000000000000000000000000001d7cb39bafb8c744e148787a2e70230f9d4e917d5713bb050487b5aa7d74070b0000000000000000000000000000000000000000000000000000000000000000000000000000000000000000000000000000000000000000000000000000000000000000000000000000000000000000000000000000000000000000000000002ec93189bd1ab4f69117d0fe980c80ff8785c2961829f701bb74ac1f303b17db0000000000000000000000000000000000000000000000000000000000000000000000000000000000000000000000000000000000000000000000000000000000000000000000000000000000000000000000000000000000000000000000002db366bfdd36d277a692bb825b86275beac404a19ae07a9082ea46bd83517926000000000000000000000000000000000000000000000000000000000000000000000000000000000000000000000000000000000000000000000000000000000000000000000000000000000000000000000000000000000000000000000000062100eb485db06269655cf186a68532985275428450359adc99cec6960711b80000000000000000000000000000000000000000000000000000000000000000000000000000000000000000000000000000000000000000000000000000000000000000000000000000000000000000000000000000000000000000000000000761d33c66614aaa570e7f1e8244ca1120243f92fa59e4f900c567bf41f5a59b00000000000000000000000000000000000000000000000000000000000000000000000000000000000000000000000000000000000000000000000000000000000000000000000000000000000000000000000000000000000000000000000020fc411a114d13992c2705aa034e3f315d78608a0f7de4ccf7a72e494855ad0d00000000000000000000000000000000000000000000000000000000000000000000000000000000000000000000000000000000000000000000000000000000000000000000000000000000000000000000000000000000000000000000000025b5c004a4bdfcb5add9ec4e9ab219ba102c67e8b3effb5fc3a30f317250bc5a00000000000000000000000000000000000000000000000000000000000000000000000000000000000000000000000000000000000000000000000000000000000000000000000000000000000000000000000000000000000000000000000023b1822d278ed632a494e58f6df6f5ed038b186d8474155ad87e7dff62b37f4b00000000000000000000000000000000000000000000000000000000000000000000000000000000000000000000000000000000000000000000000000000000000000000000000000000000000000000000000000000000000000000000000022734b4c5c3f9493606c4ba9012499bf0f14d13bfcfcccaa16102a29cc2f69e000000000000000000000000000000000000000000000000000000000000000000000000000000000000000000000000000000000000000000000000000000000000000000000000000000000000000000000000000000000000000000000000026c0c8fe09eb30b7e27a74dc33492347e5bdff409aa3610254413d3fad795ce5000000000000000000000000000000000000000000000000000000000000000000000000000000000000000000000000000000000000000000000000000000000000000000000000000000000000000000000000000000000000000000000000070dd0ccb6bd7bbae88eac03fa1fbb26196be3083a809829bbd626df348ccad900000000000000000000000000000000000000000000000000000000000000000000000000000000000000000000000000000000000000000000000000000000000000000000000000000000000000000000000000000000000000000000000012b6595bdb329b6fb043ba78bb28c3bec2c0a6de46d8c5ad6067c4ebfd4250da000000000000000000000000000000000000000000000000000000000000000000000000000000000000000000000000000000000000000000000000000000000000000000000000000000000000000000000000000000000000000000000000248d97d7f76283d63bec30e7a5876c11c06fca9b275c671c5e33d95bb7e8d7290000000000000000000000000000000000000000000000000000000000000000000000000000000000000000000000000000000000000000000000000000000000000000000000000000000000000000000000000000000000000000000000001a306d439d463b0816fc6fd64cc939318b45eb759ddde4aa106d15d9bd9baaaa00000000000000000000000000000000000000000000000000000000000000000000000000000000000000000000000000000000000000000000000000000000000000000000000000000000000000000000000000000000000000000000000028a8f8372e3c38daced7c00421cb4621f4f1b54ddc27821b0d62d3d6ec7c56cf0000000000000000000000000000000000000000000000000000000000000000000000000000000000000000000000000000000000000000000000000000000000000000000000000000000000000000000000000000000000000000000000000094975717f9a8a8bb35152f24d43294071ce320c829f388bc852183e1e2ce7e00000000000000000000000000000000000000000000000000000000000000000000000000000000000000000000000000000000000000000000000000000000000000000000000000000000000000000000000000000000000000000000000004d5ee4c3aa78f7d80fde60d716480d3593f74d4f653ae83f4103246db2e8d650000000000000000000000000000000000000000000000000000000000000000000000000000000000000000000000000000000000000000000000000000000000000000000000000000000000000000000000000000000000000000000000002a6cf5e9aa03d4336349ad6fb8ed2269c7bef54b8822cc76d08495c12efde1870000000000000000000000000000000000000000000000000000000000000000000000000000000000000000000000000000000000000000000000000000000000000000000000000000000000000000000000000000000000000000000000002304d31eaab960ba9274da43e19ddeb7f792180808fd6e43baae48d7efcba3f300000000000000000000000000000000000000000000000000000000000000000000000000000000000000000000000000000000000000000000000000000000000000000000000000000000000000000000000000000000000000000000000003fd9ac865a4b2a6d5e7009785817249bff08a7e0726fcb4e1c11d39d199f0b000000000000000000000000000000000000000000000000000000000000000000000000000000000000000000000000000000000000000000000000000000000000000000000000000000000000000000000000000000000000000000000000000b7258ded52bbda2248404d55ee5044798afc3a209193073f7954d4d63b0b64000000000000000000000000000000000000000000000000000000000000000000000000000000000000000000000000000000000000000000000000000000000000000000000000000000000000000000000000000000000000000000000000159f81ada0771799ec38fca2d4bf65ebb13d3a74f3298db36272c5ca65e92d9a0000000000000000000000000000000000000000000000000000000000000000000000000000000000000000000000000000000000000000000000000000000000000000000000000000000000000000000000000000000000000000000000001ef90e67437fbc8550237a75bc28e3bb9000130ea25f0c5471e144cf4264431f0000000000000000000000000000000000000000000000000000000000000000000000000000000000000000000000000000000000000000000000000000000000000000000000000000000000000000000000000000000000000000000000001e65f838515e5ff0196b49aa41a2d2568df739bc176b08ec95a79ed82932e30d0000000000000000000000000000000000000000000000000000000000000000000000000000000000000000000000000000000000000000000000000000000000000000000000000000000000000000000000000000000000000000000000002b1b045def3a166cec6ce768d079ba74b18c844e570e1f826575c1068c94c33f0000000000000000000000000000000000000000000000000000000000000000000000000000000000000000000000000000000000000000000000000000000000000000000000000000000000000000000000000000000000000000000000000832e5753ceb0ff6402543b1109229c165dc2d73bef715e3f1c6e07c168bb17300000000000000000000000000000000000000000000000000000000000000000000000000000000000000000000000000000000000000000000000000000000000000000000000000000000000000000000000000000000000000000000000002f614e9cedfb3dc6b762ae0a37d41bab1b841c2e8b6451bc5a8e3c390b6ad160000000000000000000000000000000000000000000000000000000000000000000000000000000000000000000000000000000000000000000000000000000000000000000000000000000000000000000000000000000000000000000000000e2427d38bd46a60dd640b8e362cad967370ebb777bedff40f6a0be27e7ed7050000000000000000000000000000000000000000000000000000000000000000000000000000000000000000000000000000000000000000000000000000000000000000000000000000000000000000000000000000000000000000000000000493630b7c670b6deb7c84d414e7ce79049f0ec098c3c7c50768bbe29214a53a00000000000000000000000000000000000000000000000000000000000000000000000000000000000000000000000000000000000000000000000000000000000000000000000000000000000000000000000000000000000000000000000022ead100e8e482674decdab17066c5a26bb1515355d5461a3dc06cc85327cea900000000000000000000000000000000000000000000000000000000000000000000000000000000000000000000000000000000000000000000000000000000000000000000000000000000000000000000000000000000000000000000000025b3e56e655b42cdaae2626ed2554d48583f1ae35626d04de5084e0b6d2a6f160000000000000000000000000000000000000000000000000000000000000000000000000000000000000000000000000000000000000000000000000000000000000000000000000000000000000000000000000000000000000000000000001e32752ada8836ef5837a6cde8ff13dbb599c336349e4c584b4fdc0a0cf6f9d00000000000000000000000000000000000000000000000000000000000000000000000000000000000000000000000000000000000000000000000000000000000000000000000000000000000000000000000000000000000000000000000002fa2a871c15a387cc50f68f6f3c3455b23c00995f05078f672a9864074d412e50000000000000000000000000000000000000000000000000000000000000000000000000000000000000000000000000000000000000000000000000000000000000000000000000000000000000000000000000000000000000000000000002f569b8a9a4424c9278e1db7311e889f54ccbf10661bab7fcd18e7c7a7d83505000000000000000000000000000000000000000000000000000000000000000000000000000000000000000000000000000000000000000000000000000000000000000000000000000000000000000000000000000000000000000000000000044cb455110a8fdd531ade530234c518a7df93f7332ffd2144165374b246b43d000000000000000000000000000000000000000000000000000000000000000000000000000000000000000000000000000000000000000000000000000000000000000000000000000000000000000000000000000000000000000000000000227808de93906d5d420246157f2e42b191fe8c90adfe118178ddc723a531902500000000000000000000000000000000000000000000000000000000000000000000000000000000000000000000000000000000000000000000000000000000000000000000000000000000000000000000000000000000000000000000000002fcca2934e046bc623adead873579865d03781ae090ad4a8579d2e7a68003550000000000000000000000000000000000000000000000000000000000000000000000000000000000000000000000000000000000000000000000000000000000000000000000000000000000000000000000000000000000000000000000000ef915f0ac120b876abccceb344a1d36bad3f3c5ab91a8ddcbec2e060d8befac0000000000000000000000000000000000000000000000000000000000000000000000000000000000000000000000000000000000000000000000000000000000000000000000000000000000000000000000000000000000000000000000001797130f4b7a3e1777eb757bc6f287f6ab0fb85f6be63b09f3b16ef2b1405d380a76225dc04170ae3306c85abab59e608c7f497c20156d4d36c668555decc6e51fffb9ec1992d66ba1e77a7b93209af6f8fa76d48acb664796174b5326a31a5c25721c4fc15a3f2853b57c338fa538d85f8fbba6c6b9c6090611889b797b9c5f0c817fd42d5f7a41215e3d07ba197216adb4c3790705da95eb63b982bfcaf75a13abe3f5239915d39f7e13c2c24970b6df8cf86ce00a22002bc15866e52b5a962106feea546224ea12ef7f39987a46c85c1bc3dc29bdbd7a92cd60acb4d391ce21ca859468a746b6aaa79474a37dab49f1ca5a28c748bc7157e1b3345bb0f95905ccd6255c1e6f0c5cf1f0df934194c62911d14d0321662a8f1a48999e34185b0f0e34a64b70a626e464d846674c4c8816c4fb267fe44fe6ea28678cb09490a40558531a4e25470c6157794ca36d0e9647dbfcfe350d64838f5b1a8a2de0d4bf09d3dca9173ed2faceea125157683d18924cadad3f655a60b72f5864961f14550328cbd54e8c0913493f866ed03d218bf23f92d68aaec48617d4c722e5bd43352bf07216e2aff0a223a487b1a7094e07e79e7bcc9798c648ee3347dd5329d34b1daf345a58006b736499c583cb76c316d6f78ed6a6dffc82111e11a63fe412df176563472456aaa746b694c60e1823611ef39039b2edc7ff391e6f2293d2c404a26469706673582212209c19acbe0785825959fc3fe9579dd0dd54181e654ee75b30c2eaff0cc30166fc64736f6c634300081e0033","linkReferences":{}},"methodIdentifiers":{"hash1(uint256)":"f527081e","hash2(uint256,uint256)":"511c53ff","hash3(uint256,uint256,uint256)":"2dbf86c6","hash4(uint256,uint256,uint256,uint256)":"3b3ccded","hash5(uint256,uint256,uint256,uint256,uint256)":"c98aeff5","hash6(uint256,uint256,uint256,uint256,uint256,uint256)":"f46a2f4c","hash7(uint256,uint256,uint256,uint256,uint256,uint256,uint256)":"31455ebc","hash8(uint256,uint256,uint256,uint256,uint256,uint256,uint256,uint256)":"7a5ac607","hash9(uint256,uint256,uint256,uint256,uint256,uint256,uint256,uint256,uint256)":"cd7c9bdb","perm(uint256[4])":"68769d67"},"id":1}