{
	"data": {
		"bytecode": {
			"linkReferences": {
				"remix_tests.sol": {
					"Assert": [
						{
							"length": 20,
							"start": 322
						},
						{
							"length": 20,
							"start": 634
						}
					]
				}
			},
			"object": "6080604052348015600e575f5ffd5b50613eaf8061001c5f395ff3fe608060405234801561000f575f5ffd5b506004361061003f575f3560e01c806312020c03146100435780637bab16911461004d5780637fea0d4b14610057575b5f5ffd5b61004b610061565b005b6100556101b9565b005b61005f6102d9565b005b5f60405180608001604052805f81526020015f81526020015f81526020015f81525090505f5f5f9054906101000a900473ffffffffffffffffffffffffffffffffffffffff1673ffffffffffffffffffffffffffffffffffffffff166368769d67836040518263ffffffff1660e01b81526004016100df91906103fa565b608060405180830381865afa1580156100fa573d5f5f3e3d5ffd5b505050506040513d601f19601f8201168201806040525081019061011e9190610588565b90505f5f905073__$acbfb1c35000d78352310b16a054a6b106$__63abcd7960835f60048110610151576101506105b3565b5b6020020151836040518363ffffffff1660e01b8152600401610174929190610649565b602060405180830381865af415801561018f573d5f5f3e3d5ffd5b505050506040513d601f19601f820116820180604052508101906101b391906106b8565b50505050565b5f5f5f9054906101000a900473ffffffffffffffffffffffffffffffffffffffff1673ffffffffffffffffffffffffffffffffffffffff1663511c53ff600160026040518363ffffffff1660e01b815260040161021792919061075e565b602060405180830381865afa158015610232573d5f5f3e3d5ffd5b505050506040513d601f19601f820116820180604052508101906102569190610785565b90505f5f905073__$acbfb1c35000d78352310b16a054a6b106$__63abcd796083836040518363ffffffff1660e01b81526004016102959291906107fa565b602060405180830381865af41580156102b0573d5f5f3e3d5ffd5b505050506040513d601f19601f820116820180604052508101906102d491906106b8565b505050565b6040516102e59061033f565b604051809103905ff0801580156102fe573d5f5f3e3d5ffd5b505f5f6101000a81548173ffffffffffffffffffffffffffffffffffffffff021916908373ffffffffffffffffffffffffffffffffffffffff160217905550565b6136458061083583390190565b5f60049050919050565b5f81905092915050565b5f819050919050565b5f819050919050565b61037b81610369565b82525050565b5f61038c8383610372565b60208301905092915050565b5f602082019050919050565b6103ad8161034c565b6103b78184610356565b92506103c282610360565b805f5b838110156103f25781516103d98782610381565b96506103e483610398565b9250506001810190506103c5565b505050505050565b5f60808201905061040d5f8301846103a4565b92915050565b5f604051905090565b5f5ffd5b5f5ffd5b5f601f19601f8301169050919050565b7f4e487b71000000000000000000000000000000000000000000000000000000005f52604160045260245ffd5b61046a82610424565b810181811067ffffffffffffffff8211171561048957610488610434565b5b80604052505050565b5f61049b610413565b90506104a78282610461565b919050565b5f67ffffffffffffffff8211156104c6576104c5610434565b5b602082029050919050565b5f5ffd5b6104de81610369565b81146104e8575f5ffd5b50565b5f815190506104f9816104d5565b92915050565b5f61051161050c846104ac565b610492565b9050806020840283018581111561052b5761052a6104d1565b5b835b81811015610554578061054088826104eb565b84526020840193505060208101905061052d565b5050509392505050565b5f82601f83011261057257610571610420565b5b600461057f8482856104ff565b91505092915050565b5f6080828403121561059d5761059c61041c565b5b5f6105aa8482850161055e565b91505092915050565b7f4e487b71000000000000000000000000000000000000000000000000000000005f52603260045260245ffd5b6105e981610369565b82525050565b5f82825260208201905092915050565b7f7065726d5b305d206d69736d61746368000000000000000000000000000000005f82015250565b5f6106336010836105ef565b915061063e826105ff565b602082019050919050565b5f60608201905061065c5f8301856105e0565b61066960208301846105e0565b818103604083015261067a81610627565b90509392505050565b5f8115159050919050565b61069781610683565b81146106a1575f5ffd5b50565b5f815190506106b28161068e565b92915050565b5f602082840312156106cd576106cc61041c565b5b5f6106da848285016106a4565b91505092915050565b5f819050919050565b5f819050919050565b5f61070f61070a610705846106e3565b6106ec565b610369565b9050919050565b61071f816106f5565b82525050565b5f819050919050565b5f61074861074361073e84610725565b6106ec565b610369565b9050919050565b6107588161072e565b82525050565b5f6040820190506107715f830185610716565b61077e602083018461074f565b9392505050565b5f6020828403121561079a5761079961041c565b5b5f6107a7848285016104eb565b91505092915050565b7f686173683228312c3229206d69736d61746368000000000000000000000000005f82015250565b5f6107e46013836105ef565b91506107ef826107b0565b602082019050919050565b5f60608201905061080d5f8301856105e0565b61081a60208301846105e0565b818103604083015261082b816107d8565b9050939250505056fe6080604052348015600e575f5ffd5b506136298061001c5f395ff3fe608060405234801561000f575f5ffd5b5060043610610060575f3560e01c80632dbf86c6146100645780633b3ccded14610094578063511c53ff146100c457806368769d67146100f4578063c98aeff514610124578063f527081e14610154575b5f5ffd5b61007e600480360381019061007991906112cf565b610184565b60405161008b919061132e565b60405180910390f35b6100ae60048036038101906100a99190611347565b610199565b6040516100bb919061132e565b60405180910390f35b6100de60048036038101906100d991906113ab565b6101b0565b6040516100eb919061132e565b60405180910390f35b61010e6004803603810190610109919061140e565b6101c3565b60405161011b91906114de565b60405180910390f35b61013e600480360381019061013991906114f7565b610211565b60405161014b919061132e565b60405180910390f35b61016e6004803603810190610169919061156e565b61022a565b60405161017b919061132e565b60405180910390f35b5f61019084848461023b565b90509392505050565b5f6101a685858585610312565b9050949350505050565b5f6101bb838361043a565b905092915050565b6101cb611276565b61020a8260048060200260405190810160405280929190826004602002808284375f81840152601f19601f8201169050808301925050505050506104dc565b9050919050565b5f61021f86868686866105db565b905095945050505050565b5f61023482610738565b9050919050565b5f5f5f5f5f61024a60036107a5565b93509350935093507f30644e72e131a029b85045b68181585d2833e84879b9709143e1f593f00000018061028157610280611599565b5b88850893507f30644e72e131a029b85045b68181585d2833e84879b9709143e1f593f0000001806102b5576102b4611599565b5b87840892507f30644e72e131a029b85045b68181585d2833e84879b9709143e1f593f0000001806102e9576102e8611599565b5b86830891506102fa848484846107f6565b90915090505080945050839450505050509392505050565b5f5f5f5f5f61032160046107a5565b93509350935093507f30644e72e131a029b85045b68181585d2833e84879b9709143e1f593f00000018061035857610357611599565b5b89850893507f30644e72e131a029b85045b68181585d2833e84879b9709143e1f593f00000018061038c5761038b611599565b5b88840892507f30644e72e131a029b85045b68181585d2833e84879b9709143e1f593f0000001806103c0576103bf611599565b5b87830891506103d1848484846107f6565b809450819550829650839750505050507f30644e72e131a029b85045b68181585d2833e84879b9709143e1f593f0000001806104105761040f611599565b5b8685089350610421848484846107f6565b9091509050508094505083945050505050949350505050565b5f5f5f5f5f61044960026107a5565b93509350935093507f30644e72e131a029b85045b68181585d2833e84879b9709143e1f593f0000001806104805761047f611599565b5b87850893507f30644e72e131a029b85045b68181585d2833e84879b9709143e1f593f0000001806104b4576104b3611599565b5b86840892506104c5848484846107f6565b909150905050809450508394505050505092915050565b6104e4611276565b5f5f5f5f610553865f600481106104fe576104fd6115c6565b5b602002015187600160048110610517576105166115c6565b5b6020020151886002600481106105305761052f6115c6565b5b602002015189600360048110610549576105486115c6565b5b60200201516107f6565b935093509350935083855f6004811061056f5761056e6115c6565b5b602002018181525050828560016004811061058d5761058c6115c6565b5b60200201818152505081856002600481106105ab576105aa6115c6565b5b60200201818152505080856003600481106105c9576105c86115c6565b5b60200201818152505050505050919050565b5f5f5f5f5f6105ea60056107a5565b93509350935093507f30644e72e131a029b85045b68181585d2833e84879b9709143e1f593f00000018061062157610620611599565b5b8a850893507f30644e72e131a029b85045b68181585d2833e84879b9709143e1f593f00000018061065557610654611599565b5b89840892507f30644e72e131a029b85045b68181585d2833e84879b9709143e1f593f00000018061068957610688611599565b5b888308915061069a848484846107f6565b809450819550829650839750505050507f30644e72e131a029b85045b68181585d2833e84879b9709143e1f593f0000001806106d9576106d8611599565b5b87850893507f30644e72e131a029b85045b68181585d2833e84879b9709143e1f593f00000018061070d5761070c611599565b5b868408925061071e848484846107f6565b909150905050809450508394505050505095945050505050565b5f5f5f5f5f61074760016107a5565b93509350935093507f30644e72e131a029b85045b68181585d2833e84879b9709143e1f593f00000018061077e5761077d611599565b5b868508935061078f848484846107f6565b9091509050508094505083945050505050919050565b5f5f5f5f5f93505f92505f91507f30644e72e131a029b85045b68181585d2833e84879b9709143e1f593f0000001806107e1576107e0611599565b5b68010000000000000000860990509193509193565b5f5f5f5f5f60405180612020016040528061200081526020016115f46120009139905061082589898989610ba8565b809950819a50829b50839c50505050505f5f90505b600481101561099f575f6004820290507f30644e72e131a029b85045b68181585d2833e84879b9709143e1f593f00000018061087957610878611599565b5b610885845f8401610ef7565b8c089a507f30644e72e131a029b85045b68181585d2833e84879b9709143e1f593f0000001806108b8576108b7611599565b5b6108c58460018401610ef7565b8b0899507f30644e72e131a029b85045b68181585d2833e84879b9709143e1f593f0000001806108f8576108f7611599565b5b6109058460028401610ef7565b8a0898507f30644e72e131a029b85045b68181585d2833e84879b9709143e1f593f00000018061093857610937611599565b5b6109458460038401610ef7565b890897506109528b610f0a565b9a5061095d8a610f0a565b995061096889610f0a565b985061097388610f0a565b97506109818b8b8b8b610ba8565b809b50819c50829d50839e505050505050808060010191505061083a565b505f600490505b603c811015610a23577f30644e72e131a029b85045b68181585d2833e84879b9709143e1f593f0000001806109de576109dd611599565b5b6109eb8360048402610ef7565b8b0899506109f88a610f0a565b9950610a068a8a8a8a610fb0565b809a50819b50829c50839d505050505080806001019150506109a6565b505f603c90505b6040811015610b8f575f6004820290507f30644e72e131a029b85045b68181585d2833e84879b9709143e1f593f000000180610a6957610a68611599565b5b610a75845f8401610ef7565b8c089a507f30644e72e131a029b85045b68181585d2833e84879b9709143e1f593f000000180610aa857610aa7611599565b5b610ab58460018401610ef7565b8b0899507f30644e72e131a029b85045b68181585d2833e84879b9709143e1f593f000000180610ae857610ae7611599565b5b610af58460028401610ef7565b8a0898507f30644e72e131a029b85045b68181585d2833e84879b9709143e1f593f000000180610b2857610b27611599565b5b610b358460038401610ef7565b89089750610b428b610f0a565b9a50610b4d8a610f0a565b9950610b5889610f0a565b9850610b6388610f0a565b9750610b718b8b8b8b610ba8565b809b50819c50829d50839e5050505050508080600101915050610a2a565b5088888888945094509450945050945094509450949050565b5f5f5f5f5f7f30644e72e131a029b85045b68181585d2833e84879b9709143e1f593f000000180610bdc57610bdb611599565b5b888a0890505f7f30644e72e131a029b85045b68181585d2833e84879b9709143e1f593f000000180610c1157610c10611599565b5b87890890505f7f30644e72e131a029b85045b68181585d2833e84879b9709143e1f593f000000180610c4657610c45611599565b5b827f30644e72e131a029b85045b68181585d2833e84879b9709143e1f593f000000180610c7657610c75611599565b5b8c8d080890505f7f30644e72e131a029b85045b68181585d2833e84879b9709143e1f593f000000180610cac57610cab611599565b5b847f30644e72e131a029b85045b68181585d2833e84879b9709143e1f593f000000180610cdc57610cdb611599565b5b8b8c080890505f7f30644e72e131a029b85045b68181585d2833e84879b9709143e1f593f000000180610d1257610d11611599565b5b7f30644e72e131a029b85045b68181585d2833e84879b9709143e1f593f000000180610d4157610d40611599565b5b8586087f30644e72e131a029b85045b68181585d2833e84879b9709143e1f593f000000180610d7357610d72611599565b5b8687080890507f30644e72e131a029b85045b68181585d2833e84879b9709143e1f593f000000180610da857610da7611599565b5b82820890505f7f30644e72e131a029b85045b68181585d2833e84879b9709143e1f593f000000180610ddd57610ddc611599565b5b7f30644e72e131a029b85045b68181585d2833e84879b9709143e1f593f000000180610e0c57610e0b611599565b5b8788087f30644e72e131a029b85045b68181585d2833e84879b9709143e1f593f000000180610e3e57610e3d611599565b5b8889080890507f30644e72e131a029b85045b68181585d2833e84879b9709143e1f593f000000180610e7357610e72611599565b5b84820890507f30644e72e131a029b85045b68181585d2833e84879b9709143e1f593f000000180610ea757610ea6611599565b5b818408817f30644e72e131a029b85045b68181585d2833e84879b9709143e1f593f000000180610eda57610ed9611599565b5b848708849950995099509950505050505050945094509450949050565b5f8160051b602001830151905092915050565b5f5f7f30644e72e131a029b85045b68181585d2833e84879b9709143e1f593f000000180610f3b57610f3a611599565b5b83840990505f7f30644e72e131a029b85045b68181585d2833e84879b9709143e1f593f000000180610f7057610f6f611599565b5b82830990507f30644e72e131a029b85045b68181585d2833e84879b9709143e1f593f000000180610fa457610fa3611599565b5b84820992505050919050565b5f5f5f5f5f7f30644e72e131a029b85045b68181585d2833e84879b9709143e1f593f000000180610fe457610fe3611599565b5b7f30644e72e131a029b85045b68181585d2833e84879b9709143e1f593f00000018061101357611012611599565b5b8789087f30644e72e131a029b85045b68181585d2833e84879b9709143e1f593f00000018061104557611044611599565b5b8a8c080890507f30644e72e131a029b85045b68181585d2833e84879b9709143e1f593f00000018061107a57611079611599565b5b817f30644e72e131a029b85045b68181585d2833e84879b9709143e1f593f0000001806110aa576110a9611599565b5b7f10dc6e9c006ea38b04b1e03b4bd9490c0d03f98929ca1d7fb56821fd19d3b6e78c090898507f30644e72e131a029b85045b68181585d2833e84879b9709143e1f593f0000001806110ff576110fe611599565b5b817f30644e72e131a029b85045b68181585d2833e84879b9709143e1f593f00000018061112f5761112e611599565b5b7f0c28145b6a44df3e0149b3d0a30b3bb599df9756d4dd9b84a86b38cfb45a740b8b090897507f30644e72e131a029b85045b68181585d2833e84879b9709143e1f593f00000018061118457611183611599565b5b817f30644e72e131a029b85045b68181585d2833e84879b9709143e1f593f0000001806111b4576111b3611599565b5b7e544b8338791518b2c7645a50392798b21f75bb60e3596170067d00141cac158a090896507f30644e72e131a029b85045b68181585d2833e84879b9709143e1f593f00000018061120857611207611599565b5b817f30644e72e131a029b85045b68181585d2833e84879b9709143e1f593f00000018061123857611237611599565b5b7f222c01175718386f2e2e82eb122789e352e105a3b8fa852613bc534433ee428b890908955088888888945094509450945050945094509450949050565b6040518060800160405280600490602082028036833780820191505090505090565b5f5ffd5b5f819050919050565b6112ae8161129c565b81146112b8575f5ffd5b50565b5f813590506112c9816112a5565b92915050565b5f5f5f606084860312156112e6576112e5611298565b5b5f6112f3868287016112bb565b9350506020611304868287016112bb565b9250506040611315868287016112bb565b9150509250925092565b6113288161129c565b82525050565b5f6020820190506113415f83018461131f565b92915050565b5f5f5f5f6080858703121561135f5761135e611298565b5b5f61136c878288016112bb565b945050602061137d878288016112bb565b935050604061138e878288016112bb565b925050606061139f878288016112bb565b91505092959194509250565b5f5f604083850312156113c1576113c0611298565b5b5f6113ce858286016112bb565b92505060206113df858286016112bb565b9150509250929050565b5f5ffd5b5f81905082602060040282011115611408576114076113e9565b5b92915050565b5f6080828403121561142357611422611298565b5b5f611430848285016113ed565b91505092915050565b5f60049050919050565b5f81905092915050565b5f819050919050565b61145f8161129c565b82525050565b5f6114708383611456565b60208301905092915050565b5f602082019050919050565b61149181611439565b61149b8184611443565b92506114a68261144d565b805f5b838110156114d65781516114bd8782611465565b96506114c88361147c565b9250506001810190506114a9565b505050505050565b5f6080820190506114f15f830184611488565b92915050565b5f5f5f5f5f60a086880312156115105761150f611298565b5b5f61151d888289016112bb565b955050602061152e888289016112bb565b945050604061153f888289016112bb565b9350506060611550888289016112bb565b9250506080611561888289016112bb565b9150509295509295909350565b5f6020828403121561158357611582611298565b5b5f611590848285016112bb565b91505092915050565b7f4e487b71000000000000000000000000000000000000000000000000000000005f52601260045260245ffd5b7f4e487b71000000000000000000000000000000000000000000000000000000005f52603260045260245ffdfe19b849f69450b06848da1d39bd5e4a4302bb86744edc26238b0878e269ed23e5265ddfe127dd51bd7239347b758f0a1320eb2cc7450acc1dad47f80c8dcf34d6199750ec472f1809e0f66a545e1e51624108ac845015c2aa3dfc36bab497d8aa157ff3fe65ac7208110f06a5f74302b14d743ea25067f0ffd032f787c7f1cdf82e49c43c4569dd9c5fd35ac45fca33f10b15c590692f8beefe18f4896ac949020e35fb89981890520d4aef2b6d6506c3cb2f0b6973c24fa82731345ffa2d1f1e251ad47cb15c4f1105f109ae5e944f1ba9d9e7806d667ffec6fe723002e0b99613da07dc64d428369873e97160234641f8beb56fdd05e5f3563fa39d9c22df4e0c009b84e650e6d23dc00c7dccef7483a553939689d350cd46e7b89055fd4738011f16b1c63a854f01992e3956f42d8b04eb650c6d535eb0203dec74befdca060ed69e5e383a688f209d9a561daa79612f3f78d0467ad45485df07093f36754904dba94a7b0ce9e221acad41472b6bbe3aec507f5eb3d33f463672264c9f789b0a3f2637d840f3a16eb094271c9d237b6036757d4bb50bf7ce732ff1d4fa28e8259a666f129eea198f8a1c502fdb38fa39b1f075569564b6e54a485d1182323f28bf7459c9b2f4c6d8e7d06a4ee3a47f7745d4271038e5157a32fdf7ede0d6a10a1ca941f057037526ea200f489be8d4c37c85bbcce6a2aeec91bd69414324470c6f8f958be0e93053d7fd4fc54512855535ed1539f051dcb43a26fd926361cf000000000000000000000000000000000000000000000000000000000000000000000000000000000000000000000000000000000000000000000000000000000000000000000000000000000000000000000000000000000000000000000000123106a93cd17578d426e8128ac9d90aa9e8a00708e296e084dd57e69caaf81100000000000000000000000000000000000000000000000000000000000000000000000000000000000000000000000000000000000000000000000000000000000000000000000000000000000000000000000000000000000000000000000026e1ba52ad9285d97dd3ab52f8e840085e8fa83ff1e8f1877b074867cd2dee750000000000000000000000000000000000000000000000000000000000000000000000000000000000000000000000000000000000000000000000000000000000000000000000000000000000000000000000000000000000000000000000001cb55cad7bd133de18a64c5c47b9c97cbe4d8b7bf9e095864471537e6a4ae2c50000000000000000000000000000000000000000000000000000000000000000000000000000000000000000000000000000000000000000000000000000000000000000000000000000000000000000000000000000000000000000000000001dcd73e46acd8f8e0e2c7ce04bde7f6d2a53043d5060a41c7143f08e6e9055d0000000000000000000000000000000000000000000000000000000000000000000000000000000000000000000000000000000000000000000000000000000000000000000000000000000000000000000000000000000000000000000000000011003e32f6d9c66f5852f05474a4def0cda294a0eb4e9b9b12b9bb4512e55740000000000000000000000000000000000000000000000000000000000000000000000000000000000000000000000000000000000000000000000000000000000000000000000000000000000000000000000000000000000000000000000002b1e809ac1d10ab29ad5f20d03a57dfebadfe5903f58bafed7c508dd2287ae8c0000000000000000000000000000000000000000000000000000000000000000000000000000000000000000000000000000000000000000000000000000000000000000000000000000000000000000000000000000000000000000000000002539de1785b735999fb4dac35ee17ed0ef995d05ab2fc5faeaa69ae87bcec0a50000000000000000000000000000000000000000000000000000000000000000000000000000000000000000000000000000000000000000000000000000000000000000000000000000000000000000000000000000000000000000000000000c246c5a2ef8ee0126497f222b3e0a0ef4e1c3d41c86d46e43982cb11d77951d000000000000000000000000000000000000000000000000000000000000000000000000000000000000000000000000000000000000000000000000000000000000000000000000000000000000000000000000000000000000000000000000192089c4974f68e95408148f7c0632edbb09e6a6ad1a1c2f3f0305f5d03b527b0000000000000000000000000000000000000000000000000000000000000000000000000000000000000000000000000000000000000000000000000000000000000000000000000000000000000000000000000000000000000000000000001eae0ad8ab68b2f06a0ee36eeb0d0c058529097d91096b756d8fdc2fb5a60d85000000000000000000000000000000000000000000000000000000000000000000000000000000000000000000000000000000000000000000000000000000000000000000000000000000000000000000000000000000000000000000000000179190e5d0e22179e46f8282872abc88db6e2fdc0dee99e69768bd98c5d06bfb00000000000000000000000000000000000000000000000000000000000000000000000000000000000000000000000000000000000000000000000000000000000000000000000000000000000000000000000000000000000000000000000029bb9e2c9076732576e9a81c7ac4b83214528f7db00f31bf6cafe794a9b3cd1c000000000000000000000000000000000000000000000000000000000000000000000000000000000000000000000000000000000000000000000000000000000000000000000000000000000000000000000000000000000000000000000000225d394e42207599403efd0c2464a90d52652645882aac35b10e590e6e691e08000000000000000000000000000000000000000000000000000000000000000000000000000000000000000000000000000000000000000000000000000000000000000000000000000000000000000000000000000000000000000000000000064760623c25c8cf753d238055b444532be13557451c087de09efd454b23fd5900000000000000000000000000000000000000000000000000000000000000000000000000000000000000000000000000000000000000000000000000000000000000000000000000000000000000000000000000000000000000000000000010ba3a0e01df92e87f301c4b716d8a394d67f4bf42a75c10922910a78f6b5b870000000000000000000000000000000000000000000000000000000000000000000000000000000000000000000000000000000000000000000000000000000000000000000000000000000000000000000000000000000000000000000000000e070bf53f8451b24f9c6e96b0c2a801cb511bc0c242eb9d361b77693f21471c0000000000000000000000000000000000000000000000000000000000000000000000000000000000000000000000000000000000000000000000000000000000000000000000000000000000000000000000000000000000000000000000001b94cd61b051b04dd39755ff93821a73ccd6cb11d2491d8aa7f921014de252fb0000000000000000000000000000000000000000000000000000000000000000000000000000000000000000000000000000000000000000000000000000000000000000000000000000000000000000000000000000000000000000000000001d7cb39bafb8c744e148787a2e70230f9d4e917d5713bb050487b5aa7d74070b0000000000000000000000000000000000000000000000000000000000000000000000000000000000000000000000000000000000000000000000000000000000000000000000000000000000000000000000000000000000000000000000002ec93189bd1ab4f69117d0fe980c80ff8785c2961829f701bb74ac1f303b17db0000000000000000000000000000000000000000000000000000000000000000000000000000000000000000000000000000000000000000000000000000000000000000000000000000000000000000000000000000000000000000000000002db366bfdd36d277a692bb825b86275beac404a19ae07a9082ea46bd83517926000000000000000000000000000000000000000000000000000000000000000000000000000000000000000000000000000000000000000000000000000000000000000000000000000000000000000000000000000000000000000000000000062100eb485db06269655cf186a68532985275428450359adc99cec6960711b80000000000000000000000000000000000000000000000000000000000000000000000000000000000000000000000000000000000000000000000000000000000000000000000000000000000000000000000000000000000000000000000000761d33c66614aaa570e7f1e8244ca1120243f92fa59e4f900c567bf41f5a59b00000000000000000000000000000000000000000000000000000000000000000000000000000000000000000000000000000000000000000000000000000000000000000000000000000000000000000000000000000000000000000000000020fc411a114d13992c2705aa034e3f315d78608a0f7de4ccf7a72e494855ad0d00000000000000000000000000000000000000000000000000000000000000000000000000000000000000000000000000000000000000000000000000000000000000000000000000000000000000000000000000000000000000000000000025b5c004a4bdfcb5add9ec4e9ab219ba102c67e8b3effb5fc3a30f317250bc5a00000000000000000000000000000000000000000000000000000000000000000000000000000000000000000000000000000000000000000000000000000000000000000000000000000000000000000000000000000000000000000000000023b1822d278ed632a494e58f6df6f5ed038b186d8474155ad87e7dff62b37f4b00000000000000000000000000000000000000000000000000000000000000000000000000000000000000000000000000000000000000000000000000000000000000000000000000000000000000000000000000000000000000000000000022734b4c5c3f9493606c4ba9012499bf0f14d13bfcfcccaa16102a29cc2f69e000000000000000000000000000000000000000000000000000000000000000000000000000000000000000000000000000000000000000000000000000000000000000000000000000000000000000000000000000000000000000000000000026c0c8fe09eb30b7e27a74dc33492347e5bdff409aa3610254413d3fad795ce5000000000000000000000000000000000000000000000000000000000000000000000000000000000000000000000000000000000000000000000000000000000000000000000000000000000000000000000000000000000000000000000000070dd0ccb6bd7bbae88eac03fa1fbb26196be3083a809829bbd626df348ccad900000000000000000000000000000000000000000000000000000000000000000000000000000000000000000000000000000000000000000000000000000000000000000000000000000000000000000000000000000000000000000000000012b6595bdb329b6fb043ba78bb28c3bec2c0a6de46d8c5ad6067c4ebfd4250da000000000000000000000000000000000000000000000000000000000000000000000000000000000000000000000000000000000000000000000000000000000000000000000000000000000000000000000000000000000000000000000000248d97d7f76283d63bec30e7a5876c11c06fca9b275c671c5e33d95bb7e8d7290000000000000000000000000000000000000000000000000000000000000000000000000000000000000000000000000000000000000000000000000000000000000000000000000000000000000000000000000000000000000000000000001a306d439d463b0816fc6fd64cc939318b45eb759ddde4aa106d15d9bd9baaaa00000000000000000000000000000000000000000000000000000000000000000000000000000000000000000000000000000000000000000000000000000000000000000000000000000000000000000000000000000000000000000000000028a8f8372e3c38daced7c00421cb4621f4f1b54ddc27821b0d62d3d6ec7c56cf0000000000000000000000000000000000000000000000000000000000000000000000000000000000000000000000000000000000000000000000000000000000000000000000000000000000000000000000000000000000000000000000000094975717f9a8a8bb35152f24d43294071ce320c829f388bc852183e1e2ce7e00000000000000000000000000000000000000000000000000000000000000000000000000000000000000000000000000000000000000000000000000000000000000000000000000000000000000000000000000000000000000000000000004d5ee4c3aa78f7d80fde60d716480d3593f74d4f653ae83f4103246db2e8d650000000000000000000000000000000000000000000000000000000000000000000000000000000000000000000000000000000000000000000000000000000000000000000000000000000000000000000000000000000000000000000000002a6cf5e9aa03d4336349ad6fb8ed2269c7bef54b8822cc76d08495c12efde1870000000000000000000000000000000000000000000000000000000000000000000000000000000000000000000000000000000000000000000000000000000000000000000000000000000000000000000000000000000000000000000000002304d31eaab960ba9274da43e19ddeb7f792180808fd6e43baae48d7efcba3f300000000000000000000000000000000000000000000000000000000000000000000000000000000000000000000000000000000000000000000000000000000000000000000000000000000000000000000000000000000000000000000000003fd9ac865a4b2a6d5e7009785817249bff08a7e0726fcb4e1c11d39d199f0b000000000000000000000000000000000000000000000000000000000000000000000000000000000000000000000000000000000000000000000000000000000000000000000000000000000000000000000000000000000000000000000000000b7258ded52bbda2248404d55ee5044798afc3a209193073f7954d4d63b0b64000000000000000000000000000000000000000000000000000000000000000000000000000000000000000000000000000000000000000000000000000000000000000000000000000000000000000000000000000000000000000000000000159f81ada0771799ec38fca2d4bf65ebb13d3a74f3298db36272c5ca65e92d9a0000000000000000000000000000000000000000000000000000000000000000000000000000000000000000000000000000000000000000000000000000000000000000000000000000000000000000000000000000000000000000000000001ef90e67437fbc8550237a75bc28e3bb9000130ea25f0c5471e144cf4264431f0000000000000000000000000000000000000000000000000000000000000000000000000000000000000000000000000000000000000000000000000000000000000000000000000000000000000000000000000000000000000000000000001e65f838515e5ff0196b49aa41a2d2568df739bc176b08ec95a79ed82932e30d0000000000000000000000000000000000000000000000000000000000000000000000000000000000000000000000000000000000000000000000000000000000000000000000000000000000000000000000000000000000000000000000002b1b045def3a166cec6ce768d079ba74b18c844e570e1f826575c1068c94c33f0000000000000000000000000000000000000000000000000000000000000000000000000000000000000000000000000000000000000000000000000000000000000000000000000000000000000000000000000000000000000000000000000832e5753ceb0ff6402543b1109229c165dc2d73bef715e3f1c6e07c168bb17300000000000000000000000000000000000000000000000000000000000000000000000000000000000000000000000000000000000000000000000000000000000000000000000000000000000000000000000000000000000000000000000002f614e9cedfb3dc6b762ae0a37d41bab1b841c2e8b6451bc5a8e3c390b6ad160000000000000000000000000000000000000000000000000000000000000000000000000000000000000000000000000000000000000000000000000000000000000000000000000000000000000000000000000000000000000000000000000e2427d38bd46a60dd640b8e362cad967370ebb777bedff40f6a0be27e7ed7050000000000000000000000000000000000000000000000000000000000000000000000000000000000000000000000000000000000000000000000000000000000000000000000000000000000000000000000000000000000000000000000000493630b7c670b6deb7c84d414e7ce79049f0ec098c3c7c50768bbe29214a53a00000000000000000000000000000000000000000000000000000000000000000000000000000000000000000000000000000000000000000000000000000000000000000000000000000000000000000000000000000000000000000000000022ead100e8e482674decdab17066c5a26bb1515355d5461a3dc06cc85327cea900000000000000000000000000000000000000000000000000000000000000000000000000000000000000000000000000000000000000000000000000000000000000000000000000000000000000000000000000000000000000000000000025b3e56e655b42cdaae2626ed2554d48583f1ae35626d04de5084e0b6d2a6f160000000000000000000000000000000000000000000000000000000000000000000000000000000000000000000000000000000000000000000000000000000000000000000000000000000000000000000000000000000000000000000000001e32752ada8836ef5837a6cde8ff13dbb599c336349e4c584b4fdc0a0cf6f9d00000000000000000000000000000000000000000000000000000000000000000000000000000000000000000000000000000000000000000000000000000000000000000000000000000000000000000000000000000000000000000000000002fa2a871c15a387cc50f68f6f3c3455b23c00995f05078f672a9864074d412e50000000000000000000000000000000000000000000000000000000000000000000000000000000000000000000000000000000000000000000000000000000000000000000000000000000000000000000000000000000000000000000000002f569b8a9a4424c9278e1db7311e889f54ccbf10661bab7fcd18e7c7a7d83505000000000000000000000000000000000000000000000000000000000000000000000000000000000000000000000000000000000000000000000000000000000000000000000000000000000000000000000000000000000000000000000000044cb455110a8fdd531ade530234c518a7df93f7332ffd2144165374b246b43d000000000000000000000000000000000000000000000000000000000000000000000000000000000000000000000000000000000000000000000000000000000000000000000000000000000000000000000000000000000000000000000000227808de93906d5d420246157f2e42b191fe8c90adfe118178ddc723a531902500000000000000000000000000000000000000000000000000000000000000000000000000000000000000000000000000000000000000000000000000000000000000000000000000000000000000000000000000000000000000000000000002fcca2934e046bc623adead873579865d03781ae090ad4a8579d2e7a68003550000000000000000000000000000000000000000000000000000000000000000000000000000000000000000000000000000000000000000000000000000000000000000000000000000000000000000000000000000000000000000000000000ef915f0ac120b876abccceb344a1d36bad3f3c5ab91a8ddcbec2e060d8befac0000000000000000000000000000000000000000000000000000000000000000000000000000000000000000000000000000000000000000000000000000000000000000000000000000000000000000000000000000000000000000000000001797130f4b7a3e1777eb757bc6f287f6ab0fb85f6be63b09f3b16ef2b1405d380a76225dc04170ae3306c85abab59e608c7f497c20156d4d36c668555decc6e51fffb9ec1992d66ba1e77a7b93209af6f8fa76d48acb664796174b5326a31a5c25721c4fc15a3f2853b57c338fa538d85f8fbba6c6b9c6090611889b797b9c5f0c817fd42d5f7a41215e3d07ba197216adb4c3790705da95eb63b982bfcaf75a13abe3f5239915d39f7e13c2c24970b6df8cf86ce00a22002bc15866e52b5a962106feea546224ea12ef7f39987a46c85c1bc3dc29bdbd7a92cd60acb4d391ce21ca859468a746b6aaa79474a37dab49f1ca5a28c748bc7157e1b3345bb0f95905ccd6255c1e6f0c5cf1f0df934194c62911d14d0321662a8f1a48999e34185b0f0e34a64b70a626e464d846674c4c8816c4fb267fe44fe6ea28678cb09490a40558531a4e25470c6157794ca36d0e9647dbfcfe350d64838f5b1a8a2de0d4bf09d3dca9173ed2faceea125157683d18924cadad3f655a60b72f5864961f14550328cbd54e8c0913493f866ed03d218bf23f92d68aaec48617d4c722e5bd43352bf07216e2aff0a223a487b1a7094e07e79e7bcc9798c648ee3347dd5329d34b1daf345a58006b736499c583cb76c316d6f78ed6a6dffc82111e11a63fe412df176563472456aaa746b694c60e1823611ef39039b2edc7ff391e6f2293d2c404a2646970667358221220756d7ffe7eaf7cad1e23127418152a3d61ae8528b43ba04c996208eb2726f7af64736f6c634300081e0033a264697066735822122013449e39111a78541332a84019dc7911a6cf5cfe4fb0759dd05f0f59ce49803f64736f6c634300081e0033",
			"opcodes": "PUSH1 0x80 PUSH1 0x40 MSTORE CALLVALUE DUP1 ISZERO PUSH1 0xE JUMPI PUSH0 PUSH0 REVERT JUMPDEST POP PUSH2 0x3EAF DUP1 PUSH2 0x1C PUSH0 CODECOPY PUSH0 RETURN INVALID PUSH1 0x80 PUSH1 0x40 MSTORE CALLVALUE DUP1 ISZERO PUSH2 0xF JUMPI PUSH0 PUSH0 REVERT JUMPDEST POP PUSH1 0x4 CALLDATASIZE LT PUSH2 0x3F JUMPI PUSH0 CALLDATALOAD PUSH1 0xE0 SHR DUP1 PUSH4 0x12020C03 EQ PUSH2 0x43 JUMPI DUP1 PUSH4 0x7BAB1691 EQ PUSH2 0x4D JUMPI DUP1 PUSH4 0x7FEA0D4B EQ PUSH2 0x57 JUMPI JUMPDEST PUSH0 PUSH0 REVERT JUMPDEST PUSH2 0x4B PUSH2 0x61 JUMP JUMPDEST STOP JUMPDEST PUSH2 0x55 PUSH2 0x1B9 JUMP JUMPDEST STOP JUMPDEST PUSH2 0x5F PUSH2 0x2D9 JUMP JUMPDEST STOP JUMPDEST PUSH0 PUSH1 0x40 MLOAD DUP1 PUSH1 0x80 ADD PUSH1 0x40 MSTORE DUP1 PUSH0 DUP2 MSTORE PUSH1 0x20 ADD PUSH0 DUP2 MSTORE PUSH1 0x20 ADD PUSH0 DUP2 MSTORE PUSH1 0x20 ADD PUSH0 DUP2 MSTORE POP SWAP1 POP PUSH0 PUSH0 PUSH0 SWAP1 SLOAD SWAP1 PUSH2 0x100 EXP SWAP1 DIV PUSH20 0xFFFFFFFFFFFFFFFFFFFFFFFFFFFFFFFFFFFFFFFF AND PUSH20 0xFFFFFFFFFFFFFFFFFFFFFFFFFFFFFFFFFFFFFFFF AND PUSH4 0x68769D67 DUP4 PUSH1 0x40 MLOAD DUP3 PUSH4 0xFFFFFFFF AND PUSH1 0xE0 SHL DUP2 MSTORE PUSH1 0x4 ADD PUSH2 0xDF SWAP2 SWAP1 PUSH2 0x3FA JUMP JUMPDEST PUSH1 0x80 PUSH1 0x40 MLOAD DUP1 DUP4 SUB DUP2 DUP7 GAS STATICCALL ISZERO DUP1 ISZERO PUSH2 0xFA JUMPI RETURNDATASIZE PUSH0 PUSH0 RETURNDATACOPY RETURNDATASIZE PUSH0 REVERT JUMPDEST POP POP POP POP PUSH1 0x40 MLOAD RETURNDATASIZE PUSH1 0x1F NOT PUSH1 0x1F DUP3 ADD AND DUP3 ADD DUP1 PUSH1 0x40 MSTORE POP DUP2 ADD SWAP1 PUSH2 0x11E SWAP2 SWAP1 PUSH2 0x588 JUMP JUMPDEST SWAP1 POP PUSH0 PUSH0 SWAP1 POP PUSH20 0x0 PUSH4 0xABCD7960 DUP4 PUSH0 PUSH1 0x4 DUP2 LT PUSH2 0x151 JUMPI PUSH2 0x150 PUSH2 0x5B3 JUMP JUMPDEST JUMPDEST PUSH1 0x20 MUL ADD MLOAD DUP4 PUSH1 0x40 MLOAD DUP4 PUSH4 0xFFFFFFFF AND PUSH1 0xE0 SHL DUP2 MSTORE PUSH1 0x4 ADD PUSH2 0x174 SWAP3 SWAP2 SWAP1 PUSH2 0x649 JUMP JUMPDEST PUSH1 0x20 PUSH1 0x40 MLOAD DUP1 DUP4 SUB DUP2 DUP7 GAS DELEGATECALL ISZERO DUP1 ISZERO PUSH2 0x18F JUMPI RETURNDATASIZE PUSH0 PUSH0 RETURNDATACOPY RETURNDATASIZE PUSH0 REVERT JUMPDEST POP POP POP POP PUSH1 0x40 MLOAD RETURNDATASIZE PUSH1 0x1F NOT PUSH1 0x1F DUP3 ADD AND DUP3 ADD DUP1 PUSH1 0x40 MSTORE POP DUP2 ADD SWAP1 PUSH2 0x1B3 SWAP2 SWAP1 PUSH2 0x6B8 JUMP JUMPDEST POP POP POP POP JUMP JUMPDEST PUSH0 PUSH0 PUSH0 SWAP1 SLOAD SWAP1 PUSH2 0x100 EXP SWAP1 DIV PUSH20 0xFFFFFFFFFFFFFFFFFFFFFFFFFFFFFFFFFFFFFFFF AND PUSH20 0xFFFFFFFFFFFFFFFFFFFFFFFFFFFFFFFFFFFFFFFF AND PUSH4 0x511C53FF PUSH1 0x1 PUSH1 0x2 PUSH1 0x40 MLOAD DUP4 PUSH4 0xFFFFFFFF AND PUSH1 0xE0 SHL DUP2 MSTORE PUSH1 0x4 ADD PUSH2 0x217 SWAP3 SWAP2 SWAP1 PUSH2 0x75E JUMP JUMPDEST PUSH1 0x20 PUSH1 0x40 MLOAD DUP1 DUP4 SUB DUP2 DUP7 GAS STATICCALL ISZERO DUP1 ISZERO PUSH2 0x232 JUMPI RETURNDATASIZE PUSH0 PUSH0 RETURNDATACOPY RETURNDATASIZE PUSH0 REVERT JUMPDEST POP POP POP POP PUSH1 0x40 MLOAD RETURNDATASIZE PUSH1 0x1F NOT PUSH1 0x1F DUP3 ADD AND DUP3 ADD DUP1 PUSH1 0x40 MSTORE POP DUP2 ADD SWAP1 PUSH2 0x256 SWAP2 SWAP1 PUSH2 0x785 JUMP JUMPDEST SWAP1 POP PUSH0 PUSH0 SWAP1 POP PUSH20 0x0 PUSH4 0xABCD7960 DUP4 DUP4 PUSH1 0x40 MLOAD DUP4 PUSH4 0xFFFFFFFF AND PUSH1 0xE0 SHL DUP2 MSTORE PUSH1 0x4 ADD PUSH2 0x295 SWAP3 SWAP2 SWAP1 PUSH2 0x7FA JUMP JUMPDEST PUSH1 0x20 PUSH1 0x40 MLOAD DUP1 DUP4 SUB DUP2 DUP7 GAS DELEGATECALL ISZERO DUP1 ISZERO PUSH2 0x2B0 JUMPI RETURNDATASIZE PUSH0 PUSH0 RETURNDATACOPY RETURNDATASIZE PUSH0 REVERT JUMPDEST POP POP POP POP PUSH1 0x40 MLOAD RETURNDATASIZE PUSH1 0x1F NOT PUSH1 0x1F DUP3 ADD AND DUP3 ADD DUP1 PUSH1 0x40 MSTORE POP DUP2 ADD SWAP1 PUSH2 0x2D4 SWAP2 SWAP1 PUSH2 0x6B8 JUMP JUMPDEST POP POP POP JUMP JUMPDEST PUSH1 0x40 MLOAD PUSH2 0x2E5 SWAP1 PUSH2 0x33F JUMP JUMPDEST PUSH1 0x40 MLOAD DUP1 SWAP2 SUB SWAP1 PUSH0 CREATE DUP1 ISZERO DUP1 ISZERO PUSH2 0x2FE JUMPI RETURNDATASIZE PUSH0 PUSH0 RETURNDATACOPY RETURNDATASIZE PUSH0 REVERT JUMPDEST POP PUSH0 PUSH0 PUSH2 0x100 EXP DUP2 SLOAD DUP2 PUSH20 0xFFFFFFFFFFFFFFFFFFFFFFFFFFFFFFFFFFFFFFFF MUL NOT AND SWAP1 DUP4 PUSH20 0xFFFFFFFFFFFFFFFFFFFFFFFFFFFFFFFFFFFFFFFF AND MUL OR SWAP1 SSTORE POP JUMP JUMPDEST PUSH2 0x3645 DUP1 PUSH2 0x835 DUP4 CODECOPY ADD SWAP1 JUMP JUMPDEST PUSH0 PUSH1 0x4 SWAP1 POP SWAP2 SWAP1 POP JUMP JUMPDEST PUSH0 DUP2 SWAP1 POP SWAP3 SWAP2 POP POP JUMP JUMPDEST PUSH0 DUP2 SWAP1 POP SWAP2 SWAP1 POP JUMP JUMPDEST PUSH0 DUP2 SWAP1 POP SWAP2 SWAP1 POP JUMP JUMPDEST PUSH2 0x37B DUP2 PUSH2 0x369 JUMP JUMPDEST DUP3 MSTORE POP POP JUMP JUMPDEST PUSH0 PUSH2 0x38C DUP4 DUP4 PUSH2 0x372 JUMP JUMPDEST PUSH1 0x20 DUP4 ADD SWAP1 POP SWAP3 SWAP2 POP POP JUMP JUMPDEST PUSH0 PUSH1 0x20 DUP3 ADD SWAP1 POP SWAP2 SWAP1 POP JUMP JUMPDEST PUSH2 0x3AD DUP2 PUSH2 0x34C JUMP JUMPDEST PUSH2 0x3B7 DUP2 DUP5 PUSH2 0x356 JUMP JUMPDEST SWAP3 POP PUSH2 0x3C2 DUP3 PUSH2 0x360 JUMP JUMPDEST DUP1 PUSH0 JUMPDEST DUP4 DUP2 LT ISZERO PUSH2 0x3F2 JUMPI DUP2 MLOAD PUSH2 0x3D9 DUP8 DUP3 PUSH2 0x381 JUMP JUMPDEST SWAP7 POP PUSH2 0x3E4 DUP4 PUSH2 0x398 JUMP JUMPDEST SWAP3 POP POP PUSH1 0x1 DUP2 ADD SWAP1 POP PUSH2 0x3C5 JUMP JUMPDEST POP POP POP POP POP POP JUMP JUMPDEST PUSH0 PUSH1 0x80 DUP3 ADD SWAP1 POP PUSH2 0x40D PUSH0 DUP4 ADD DUP5 PUSH2 0x3A4 JUMP JUMPDEST SWAP3 SWAP2 POP POP JUMP JUMPDEST PUSH0 PUSH1 0x40 MLOAD SWAP1 POP SWAP1 JUMP JUMPDEST PUSH0 PUSH0 REVERT JUMPDEST PUSH0 PUSH0 REVERT JUMPDEST PUSH0 PUSH1 0x1F NOT PUSH1 0x1F DUP4 ADD AND SWAP1 POP SWAP2 SWAP1 POP JUMP JUMPDEST PUSH32 0x4E487B7100000000000000000000000000000000000000000000000000000000 PUSH0 MSTORE PUSH1 0x41 PUSH1 0x4 MSTORE PUSH1 0x24 PUSH0 REVERT JUMPDEST PUSH2 0x46A DUP3 PUSH2 0x424 JUMP JUMPDEST DUP2 ADD DUP2 DUP2 LT PUSH8 0xFFFFFFFFFFFFFFFF DUP3 GT OR ISZERO PUSH2 0x489 JUMPI PUSH2 0x488 PUSH2 0x434 JUMP JUMPDEST JUMPDEST DUP1 PUSH1 0x40 MSTORE POP POP POP JUMP JUMPDEST PUSH0 PUSH2 0x49B PUSH2 0x413 JUMP JUMPDEST SWAP1 POP PUSH2 0x4A7 DUP3 DUP3 PUSH2 0x461 JUMP JUMPDEST SWAP2 SWAP1 POP JUMP JUMPDEST PUSH0 PUSH8 0xFFFFFFFFFFFFFFFF DUP3 GT ISZERO PUSH2 0x4C6 JUMPI PUSH2 0x4C5 PUSH2 0x434 JUMP JUMPDEST JUMPDEST PUSH1 0x20 DUP3 MUL SWAP1 POP SWAP2 SWAP1 POP JUMP JUMPDEST PUSH0 PUSH0 REVERT JUMPDEST PUSH2 0x4DE DUP2 PUSH2 0x369 JUMP JUMPDEST DUP2 EQ PUSH2 0x4E8 JUMPI PUSH0 PUSH0 REVERT JUMPDEST POP JUMP JUMPDEST PUSH0 DUP2 MLOAD SWAP1 POP PUSH2 0x4F9 DUP2 PUSH2 0x4D5 JUMP JUMPDEST SWAP3 SWAP2 POP POP JUMP JUMPDEST PUSH0 PUSH2 0x511 PUSH2 0x50C DUP5 PUSH2 0x4AC JUMP JUMPDEST PUSH2 0x492 JUMP JUMPDEST SWAP1 POP DUP1 PUSH1 0x20 DUP5 MUL DUP4 ADD DUP6 DUP2 GT ISZERO PUSH2 0x52B JUMPI PUSH2 0x52A PUSH2 0x4D1 JUMP JUMPDEST JUMPDEST DUP4 JUMPDEST DUP2 DUP2 LT ISZERO PUSH2 0x554 JUMPI DUP1 PUSH2 0x540 DUP9 DUP3 PUSH2 0x4EB JUMP JUMPDEST DUP5 MSTORE PUSH1 0x20 DUP5 ADD SWAP4 POP POP PUSH1 0x20 DUP2 ADD SWAP1 POP PUSH2 0x52D JUMP JUMPDEST POP POP POP SWAP4 SWAP3 POP POP POP JUMP JUMPDEST PUSH0 DUP3 PUSH1 0x1F DUP4 ADD SLT PUSH2 0x572 JUMPI PUSH2 0x571 PUSH2 0x420 JUMP JUMPDEST JUMPDEST PUSH1 0x4 PUSH2 0x57F DUP5 DUP3 DUP6 PUSH2 0x4FF JUMP JUMPDEST SWAP2 POP POP SWAP3 SWAP2 POP POP JUMP JUMPDEST PUSH0 PUSH1 0x80 DUP3 DUP5 SUB SLT ISZERO PUSH2 0x59D JUMPI PUSH2 0x59C PUSH2 0x41C JUMP JUMPDEST JUMPDEST PUSH0 PUSH2 0x5AA DUP5 DUP3 DUP6 ADD PUSH2 0x55E JUMP JUMPDEST SWAP2 POP POP SWAP3 SWAP2 POP POP JUMP JUMPDEST PUSH32 0x4E487B7100000000000000000000000000000000000000000000000000000000 PUSH0 MSTORE PUSH1 0x32 PUSH1 0x4 MSTORE PUSH1 0x24 PUSH0 REVERT JUMPDEST PUSH2 0x5E9 DUP2 PUSH2 0x369 JUMP JUMPDEST DUP3 MSTORE POP POP JUMP JUMPDEST PUSH0 DUP3 DUP3 MSTORE PUSH1 0x20 DUP3 ADD SWAP1 POP SWAP3 SWAP2 POP POP JUMP JUMPDEST PUSH32 0x7065726D5B305D206D69736D6174636800000000000000000000000000000000 PUSH0 DUP3 ADD MSTORE POP JUMP JUMPDEST PUSH0 PUSH2 0x633 PUSH1 0x10 DUP4 PUSH2 0x5EF JUMP JUMPDEST SWAP2 POP PUSH2 0x63E DUP3 PUSH2 0x5FF JUMP JUMPDEST PUSH1 0x20 DUP3 ADD SWAP1 POP SWAP2 SWAP1 POP JUMP JUMPDEST PUSH0 PUSH1 0x60 DUP3 ADD SWAP1 POP PUSH2 0x65C PUSH0 DUP4 ADD DUP6 PUSH2 0x5E0 JUMP JUMPDEST PUSH2 0x669 PUSH1 0x20 DUP4 ADD DUP5 PUSH2 0x5E0 JUMP JUMPDEST DUP2 DUP2 SUB PUSH1 0x40 DUP4 ADD MSTORE PUSH2 0x67A DUP2 PUSH2 0x627 JUMP JUMPDEST SWAP1 POP SWAP4 SWAP3 POP POP POP JUMP JUMPDEST PUSH0 DUP2 ISZERO ISZERO SWAP1 POP SWAP2 SWAP1 POP JUMP JUMPDEST PUSH2 0x697 DUP2 PUSH2 0x683 JUMP JUMPDEST DUP2 EQ PUSH2 0x6A1 JUMPI PUSH0 PUSH0 REVERT JUMPDEST POP JUMP JUMPDEST PUSH0 DUP2 MLOAD SWAP1 POP PUSH2 0x6B2 DUP2 PUSH2 0x68E JUMP JUMPDEST SWAP3 SWAP2 POP POP JUMP JUMPDEST PUSH0 PUSH1 0x20 DUP3 DUP5 SUB SLT ISZERO PUSH2 0x6CD JUMPI PUSH2 0x6CC PUSH2 0x41C JUMP JUMPDEST JUMPDEST PUSH0 PUSH2 0x6DA DUP5 DUP3 DUP6 ADD PUSH2 0x6A4 JUMP JUMPDEST SWAP2 POP POP SWAP3 SWAP2 POP POP JUMP JUMPDEST PUSH0 DUP2 SWAP1 POP SWAP2 SWAP1 POP JUMP JUMPDEST PUSH0 DUP2 SWAP1 POP SWAP2 SWAP1 POP JUMP JUMPDEST PUSH0 PUSH2 0x70F PUSH2 0x70A PUSH2 0x705 DUP5 PUSH2 0x6E3 JUMP JUMPDEST PUSH2 0x6EC JUMP JUMPDEST PUSH2 0x369 JUMP JUMPDEST SWAP1 POP SWAP2 SWAP1 POP JUMP JUMPDEST PUSH2 0x71F DUP2 PUSH2 0x6F5 JUMP JUMPDEST DUP3 MSTORE POP POP JUMP JUMPDEST PUSH0 DUP2 SWAP1 POP SWAP2 SWAP1 POP JUMP JUMPDEST PUSH0 PUSH2 0x748 PUSH2 0x743 PUSH2 0x73E DUP5 PUSH2 0x725 JUMP JUMPDEST PUSH2 0x6EC JUMP JUMPDEST PUSH2 0x369 JUMP JUMPDEST SWAP1 POP SWAP2 SWAP1 POP JUMP JUMPDEST PUSH2 0x758 DUP2 PUSH2 0x72E JUMP JUMPDEST DUP3 MSTORE POP POP JUMP JUMPDEST PUSH0 PUSH1 0x40 DUP3 ADD SWAP1 POP PUSH2 0x771 PUSH0 DUP4 ADD DUP6 PUSH2 0x716 JUMP JUMPDEST PUSH2 0x77E PUSH1 0x20 DUP4 ADD DUP5 PUSH2 0x74F JUMP JUMPDEST SWAP4 SWAP3 POP POP POP JUMP JUMPDEST PUSH0 PUSH1 0x20 DUP3 DUP5 SUB SLT ISZERO PUSH2 0x79A JUMPI PUSH2 0x799 PUSH2 0x41C JUMP JUMPDEST JUMPDEST PUSH0 PUSH2 0x7A7 DUP5 DUP3 DUP6 ADD PUSH2 0x4EB JUMP JUMPDEST SWAP2 POP POP SWAP3 SWAP2 POP POP JUMP JUMPDEST PUSH32 0x686173683228312C3229206D69736D6174636800000000000000000000000000 PUSH0 DUP3 ADD MSTORE POP JUMP JUMPDEST PUSH0 PUSH2 0x7E4 PUSH1 0x13 DUP4 PUSH2 0x5EF JUMP JUMPDEST SWAP2 POP PUSH2 0x7EF DUP3 PUSH2 0x7B0 JUMP JUMPDEST PUSH1 0x20 DUP3 ADD SWAP1 POP SWAP2 SWAP1 POP JUMP JUMPDEST PUSH0 PUSH1 0x60 DUP3 ADD SWAP1 POP PUSH2 0x80D PUSH0 DUP4 ADD DUP6 PUSH2 0x5E0 JUMP JUMPDEST PUSH2 0x81A PUSH1 0x20 DUP4 ADD DUP5 PUSH2 0x5E0 JUMP JUMPDEST DUP2 DUP2 SUB PUSH1 0x40 DUP4 ADD MSTORE PUSH2 0x82B DUP2 PUSH2 0x7D8 JUMP JUMPDEST SWAP1 POP SWAP4 SWAP3 POP POP POP JUMP INVALID PUSH1 0x80 PUSH1 0x40 MSTORE CALLVALUE DUP1 ISZERO PUSH1 0xE JUMPI PUSH0 PUSH0 REVERT JUMPDEST POP PUSH2 0x3629 DUP1 PUSH2 0x1C PUSH0 CODECOPY PUSH0 RETURN INVALID PUSH1 0x80 PUSH1 0x40 MSTORE CALLVALUE DUP1 ISZERO PUSH2 0xF JUMPI PUSH0 PUSH0 REVERT JUMPDEST POP PUSH1 0x4 CALLDATASIZE LT PUSH2 0x60 JUMPI PUSH0 CALLDATALOAD PUSH1 0xE0 SHR DUP1 PUSH4 0x2DBF86C6 EQ PUSH2 0x64 JUMPI DUP1 PUSH4 0x3B3CCDED EQ PUSH2 0x94 JUMPI DUP1 PUSH4 0x511C53FF EQ PUSH2 0xC4 JUMPI DUP1 PUSH4 0x68769D67 EQ PUSH2 0xF4 JUMPI DUP1 PUSH4 0xC98AEFF5 EQ PUSH2 0x124 JUMPI DUP1 PUSH4 0xF527081E EQ PUSH2 0x154 JUMPI JUMPDEST PUSH0 PUSH0 REVERT JUMPDEST PUSH2 0x7E PUSH1 0x4 DUP1 CALLDATASIZE SUB DUP2 ADD SWAP1 PUSH2 0x79 SWAP2 SWAP1 PUSH2 0x12CF JUMP JUMPDEST PUSH2 0x184 JUMP JUMPDEST PUSH1 0x40 MLOAD PUSH2 0x8B SWAP2 SWAP1 PUSH2 0x132E JUMP JUMPDEST PUSH1 0x40 MLOAD DUP1 SWAP2 SUB SWAP1 RETURN JUMPDEST PUSH2 0xAE PUSH1 0x4 DUP1 CALLDATASIZE SUB DUP2 ADD SWAP1 PUSH2 0xA9 SWAP2 SWAP1 PUSH2 0x1347 JUMP JUMPDEST PUSH2 0x199 JUMP JUMPDEST PUSH1 0x40 MLOAD PUSH2 0xBB SWAP2 SWAP1 PUSH2 0x132E JUMP JUMPDEST PUSH1 0x40 MLOAD DUP1 SWAP2 SUB SWAP1 RETURN JUMPDEST PUSH2 0xDE PUSH1 0x4 DUP1 CALLDATASIZE SUB DUP2 ADD SWAP1 PUSH2 0xD9 SWAP2 SWAP1 PUSH2 0x13AB JUMP JUMPDEST PUSH2 0x1B0 JUMP JUMPDEST PUSH1 0x40 MLOAD PUSH2 0xEB SWAP2 SWAP1 PUSH2 0x132E JUMP JUMPDEST PUSH1 0x40 MLOAD DUP1 SWAP2 SUB SWAP1 RETURN JUMPDEST PUSH2 0x10E PUSH1 0x4 DUP1 CALLDATASIZE SUB DUP2 ADD SWAP1 PUSH2 0x109 SWAP2 SWAP1 PUSH2 0x140E JUMP JUMPDEST PUSH2 0x1C3 JUMP JUMPDEST PUSH1 0x40 MLOAD PUSH2 0x11B SWAP2 SWAP1 PUSH2 0x14DE JUMP JUMPDEST PUSH1 0x40 MLOAD DUP1 SWAP2 SUB SWAP1 RETURN JUMPDEST PUSH2 0x13E PUSH1 0x4 DUP1 CALLDATASIZE SUB DUP2 ADD SWAP1 PUSH2 0x139 SWAP2 SWAP1 PUSH2 0x14F7 JUMP JUMPDEST PUSH2 0x211 JUMP JUMPDEST PUSH1 0x40 MLOAD PUSH2 0x14B SWAP2 SWAP1 PUSH2 0x132E JUMP JUMPDEST PUSH1 0x40 MLOAD DUP1 SWAP2 SUB SWAP1 RETURN JUMPDEST PUSH2 0x16E PUSH1 0x4 DUP1 CALLDATASIZE SUB DUP2 ADD SWAP1 PUSH2 0x169 SWAP2 SWAP1 PUSH2 0x156E JUMP JUMPDEST PUSH2 0x22A JUMP JUMPDEST PUSH1 0x40 MLOAD PUSH2 0x17B SWAP2 SWAP1 PUSH2 0x132E JUMP JUMPDEST PUSH1 0x40 MLOAD DUP1 SWAP2 SUB SWAP1 RETURN JUMPDEST PUSH0 PUSH2 0x190 DUP5 DUP5 DUP5 PUSH2 0x23B JUMP JUMPDEST SWAP1 POP SWAP4 SWAP3 POP POP POP JUMP JUMPDEST PUSH0 PUSH2 0x1A6 DUP6 DUP6 DUP6 DUP6 PUSH2 0x312 JUMP JUMPDEST SWAP1 POP SWAP5 SWAP4 POP POP POP POP JUMP JUMPDEST PUSH0 PUSH2 0x1BB DUP4 DUP4 PUSH2 0x43A JUMP JUMPDEST SWAP1 POP SWAP3 SWAP2 POP POP JUMP JUMPDEST PUSH2 0x1CB PUSH2 0x1276 JUMP JUMPDEST PUSH2 0x20A DUP3 PUSH1 0x4 DUP1 PUSH1 0x20 MUL PUSH1 0x40 MLOAD SWAP1 DUP2 ADD PUSH1 0x40 MSTORE DUP1 SWAP3 SWAP2 SWAP1 DUP3 PUSH1 0x4 PUSH1 0x20 MUL DUP1 DUP3 DUP5 CALLDATACOPY PUSH0 DUP2 DUP5 ADD MSTORE PUSH1 0x1F NOT PUSH1 0x1F DUP3 ADD AND SWAP1 POP DUP1 DUP4 ADD SWAP3 POP POP POP POP POP POP PUSH2 0x4DC JUMP JUMPDEST SWAP1 POP SWAP2 SWAP1 POP JUMP JUMPDEST PUSH0 PUSH2 0x21F DUP7 DUP7 DUP7 DUP7 DUP7 PUSH2 0x5DB JUMP JUMPDEST SWAP1 POP SWAP6 SWAP5 POP POP POP POP POP JUMP JUMPDEST PUSH0 PUSH2 0x234 DUP3 PUSH2 0x738 JUMP JUMPDEST SWAP1 POP SWAP2 SWAP1 POP JUMP JUMPDEST PUSH0 PUSH0 PUSH0 PUSH0 PUSH0 PUSH2 0x24A PUSH1 0x3 PUSH2 0x7A5 JUMP JUMPDEST SWAP4 POP SWAP4 POP SWAP4 POP SWAP4 POP PUSH32 0x30644E72E131A029B85045B68181585D2833E84879B9709143E1F593F0000001 DUP1 PUSH2 0x281 JUMPI PUSH2 0x280 PUSH2 0x1599 JUMP JUMPDEST JUMPDEST DUP9 DUP6 ADDMOD SWAP4 POP PUSH32 0x30644E72E131A029B85045B68181585D2833E84879B9709143E1F593F0000001 DUP1 PUSH2 0x2B5 JUMPI PUSH2 0x2B4 PUSH2 0x1599 JUMP JUMPDEST JUMPDEST DUP8 DUP5 ADDMOD SWAP3 POP PUSH32 0x30644E72E131A029B85045B68181585D2833E84879B9709143E1F593F0000001 DUP1 PUSH2 0x2E9 JUMPI PUSH2 0x2E8 PUSH2 0x1599 JUMP JUMPDEST JUMPDEST DUP7 DUP4 ADDMOD SWAP2 POP PUSH2 0x2FA DUP5 DUP5 DUP5 DUP5 PUSH2 0x7F6 JUMP JUMPDEST SWAP1 SWAP2 POP SWAP1 POP POP DUP1 SWAP5 POP POP DUP4 SWAP5 POP POP POP POP POP SWAP4 SWAP3 POP POP POP JUMP JUMPDEST PUSH0 PUSH0 PUSH0 PUSH0 PUSH0 PUSH2 0x321 PUSH1 0x4 PUSH2 0x7A5 JUMP JUMPDEST SWAP4 POP SWAP4 POP SWAP4 POP SWAP4 POP PUSH32 0x30644E72E131A029B85045B68181585D2833E84879B9709143E1F593F0000001 DUP1 PUSH2 0x358 JUMPI PUSH2 0x357 PUSH2 0x1599 JUMP JUMPDEST JUMPDEST DUP10 DUP6 ADDMOD SWAP4 POP PUSH32 0x30644E72E131A029B85045B68181585D2833E84879B9709143E1F593F0000001 DUP1 PUSH2 0x38C JUMPI PUSH2 0x38B PUSH2 0x1599 JUMP JUMPDEST JUMPDEST DUP9 DUP5 ADDMOD SWAP3 POP PUSH32 0x30644E72E131A029B85045B68181585D2833E84879B9709143E1F593F0000001 DUP1 PUSH2 0x3C0 JUMPI PUSH2 0x3BF PUSH2 0x1599 JUMP JUMPDEST JUMPDEST DUP8 DUP4 ADDMOD SWAP2 POP PUSH2 0x3D1 DUP5 DUP5 DUP5 DUP5 PUSH2 0x7F6 JUMP JUMPDEST DUP1 SWAP5 POP DUP2 SWAP6 POP DUP3 SWAP7 POP DUP4 SWAP8 POP POP POP POP POP PUSH32 0x30644E72E131A029B85045B68181585D2833E84879B9709143E1F593F0000001 DUP1 PUSH2 0x410 JUMPI PUSH2 0x40F PUSH2 0x1599 JUMP JUMPDEST JUMPDEST DUP7 DUP6 ADDMOD SWAP4 POP PUSH2 0x421 DUP5 DUP5 DUP5 DUP5 PUSH2 0x7F6 JUMP JUMPDEST SWAP1 SWAP2 POP SWAP1 POP POP DUP1 SWAP5 POP POP DUP4 SWAP5 POP POP POP POP POP SWAP5 SWAP4 POP POP POP POP JUMP JUMPDEST PUSH0 PUSH0 PUSH0 PUSH0 PUSH0 PUSH2 0x449 PUSH1 0x2 PUSH2 0x7A5 JUMP JUMPDEST SWAP4 POP SWAP4 POP SWAP4 POP SWAP4 POP PUSH32 0x30644E72E131A029B85045B68181585D2833E84879B9709143E1F593F0000001 DUP1 PUSH2 0x480 JUMPI PUSH2 0x47F PUSH2 0x1599 JUMP JUMPDEST JUMPDEST DUP8 DUP6 ADDMOD SWAP4 POP PUSH32 0x30644E72E131A029B85045B68181585D2833E84879B9709143E1F593F0000001 DUP1 PUSH2 0x4B4 JUMPI PUSH2 0x4B3 PUSH2 0x1599 JUMP JUMPDEST JUMPDEST DUP7 DUP5 ADDMOD SWAP3 POP PUSH2 0x4C5 DUP5 DUP5 DUP5 DUP5 PUSH2 0x7F6 JUMP JUMPDEST SWAP1 SWAP2 POP SWAP1 POP POP DUP1 SWAP5 POP POP DUP4 SWAP5 POP POP POP POP POP SWAP3 SWAP2 POP POP JUMP JUMPDEST PUSH2 0x4E4 PUSH2 0x1276 JUMP JUMPDEST PUSH0 PUSH0 PUSH0 PUSH0 PUSH2 0x553 DUP7 PUSH0 PUSH1 0x4 DUP2 LT PUSH2 0x4FE JUMPI PUSH2 0x4FD PUSH2 0x15C6 JUMP JUMPDEST JUMPDEST PUSH1 0x20 MUL ADD MLOAD DUP8 PUSH1 0x1 PUSH1 0x4 DUP2 LT PUSH2 0x517 JUMPI PUSH2 0x516 PUSH2 0x15C6 JUMP JUMPDEST JUMPDEST PUSH1 0x20 MUL ADD MLOAD DUP9 PUSH1 0x2 PUSH1 0x4 DUP2 LT PUSH2 0x530 JUMPI PUSH2 0x52F PUSH2 0x15C6 JUMP JUMPDEST JUMPDEST PUSH1 0x20 MUL ADD MLOAD DUP10 PUSH1 0x3 PUSH1 0x4 DUP2 LT PUSH2 0x549 JUMPI PUSH2 0x548 PUSH2 0x15C6 JUMP JUMPDEST JUMPDEST PUSH1 0x20 MUL ADD MLOAD PUSH2 0x7F6 JUMP JUMPDEST SWAP4 POP SWAP4 POP SWAP4 POP SWAP4 POP DUP4 DUP6 PUSH0 PUSH1 0x4 DUP2 LT PUSH2 0x56F JUMPI PUSH2 0x56E PUSH2 0x15C6 JUMP JUMPDEST JUMPDEST PUSH1 0x20 MUL ADD DUP2 DUP2 MSTORE POP POP DUP3 DUP6 PUSH1 0x1 PUSH1 0x4 DUP2 LT PUSH2 0x58D JUMPI PUSH2 0x58C PUSH2 0x15C6 JUMP JUMPDEST JUMPDEST PUSH1 0x20 MUL ADD DUP2 DUP2 MSTORE POP POP DUP2 DUP6 PUSH1 0x2 PUSH1 0x4 DUP2 LT PUSH2 0x5AB JUMPI PUSH2 0x5AA PUSH2 0x15C6 JUMP JUMPDEST JUMPDEST PUSH1 0x20 MUL ADD DUP2 DUP2 MSTORE POP POP DUP1 DUP6 PUSH1 0x3 PUSH1 0x4 DUP2 LT PUSH2 0x5C9 JUMPI PUSH2 0x5C8 PUSH2 0x15C6 JUMP JUMPDEST JUMPDEST PUSH1 0x20 MUL ADD DUP2 DUP2 MSTORE POP POP POP POP POP POP SWAP2 SWAP1 POP JUMP JUMPDEST PUSH0 PUSH0 PUSH0 PUSH0 PUSH0 PUSH2 0x5EA PUSH1 0x5 PUSH2 0x7A5 JUMP JUMPDEST SWAP4 POP SWAP4 POP SWAP4 POP SWAP4 POP PUSH32 0x30644E72E131A029B85045B68181585D2833E84879B9709143E1F593F0000001 DUP1 PUSH2 0x621 JUMPI PUSH2 0x620 PUSH2 0x1599 JUMP JUMPDEST JUMPDEST DUP11 DUP6 ADDMOD SWAP4 POP PUSH32 0x30644E72E131A029B85045B68181585D2833E84879B9709143E1F593F0000001 DUP1 PUSH2 0x655 JUMPI PUSH2 0x654 PUSH2 0x1599 JUMP JUMPDEST JUMPDEST DUP10 DUP5 ADDMOD SWAP3 POP PUSH32 0x30644E72E131A029B85045B68181585D2833E84879B9709143E1F593F0000001 DUP1 PUSH2 0x689 JUMPI PUSH2 0x688 PUSH2 0x1599 JUMP JUMPDEST JUMPDEST DUP9 DUP4 ADDMOD SWAP2 POP PUSH2 0x69A DUP5 DUP5 DUP5 DUP5 PUSH2 0x7F6 JUMP JUMPDEST DUP1 SWAP5 POP DUP2 SWAP6 POP DUP3 SWAP7 POP DUP4 SWAP8 POP POP POP POP POP PUSH32 0x30644E72E131A029B85045B68181585D2833E84879B9709143E1F593F0000001 DUP1 PUSH2 0x6D9 JUMPI PUSH2 0x6D8 PUSH2 0x1599 JUMP JUMPDEST JUMPDEST DUP8 DUP6 ADDMOD SWAP4 POP PUSH32 0x30644E72E131A029B85045B68181585D2833E84879B9709143E1F593F0000001 DUP1 PUSH2 0x70D JUMPI PUSH2 0x70C PUSH2 0x1599 JUMP JUMPDEST JUMPDEST DUP7 DUP5 ADDMOD SWAP3 POP PUSH2 0x71E DUP5 DUP5 DUP5 DUP5 PUSH2 0x7F6 JUMP JUMPDEST SWAP1 SWAP2 POP SWAP1 POP POP DUP1 SWAP5 POP POP DUP4 SWAP5 POP POP POP POP POP SWAP6 SWAP5 POP POP POP POP POP JUMP JUMPDEST PUSH0 PUSH0 PUSH0 PUSH0 PUSH0 PUSH2 0x747 PUSH1 0x1 PUSH2 0x7A5 JUMP JUMPDEST SWAP4 POP SWAP4 POP SWAP4 POP SWAP4 POP PUSH32 0x30644E72E131A029B85045B68181585D2833E84879B9709143E1F593F0000001 DUP1 PUSH2 0x77E JUMPI PUSH2 0x77D PUSH2 0x1599 JUMP JUMPDEST JUMPDEST DUP7 DUP6 ADDMOD SWAP4 POP PUSH2 0x78F DUP5 DUP5 DUP5 DUP5 PUSH2 0x7F6 JUMP JUMPDEST SWAP1 SWAP2 POP SWAP1 POP POP DUP1 SWAP5 POP POP DUP4 SWAP5 POP POP POP POP POP SWAP2 SWAP1 POP JUMP JUMPDEST PUSH0 PUSH0 PUSH0 PUSH0 PUSH0 SWAP4 POP PUSH0 SWAP3 POP PUSH0 SWAP2 POP PUSH32 0x30644E72E131A029B85045B68181585D2833E84879B9709143E1F593F0000001 DUP1 PUSH2 0x7E1 JUMPI PUSH2 0x7E0 PUSH2 0x1599 JUMP JUMPDEST JUMPDEST PUSH9 0x10000000000000000 DUP7 MULMOD SWAP1 POP SWAP2 SWAP4 POP SWAP2 SWAP4 JUMP JUMPDEST PUSH0 PUSH0 PUSH0 PUSH0 PUSH0 PUSH1 0x40 MLOAD DUP1 PUSH2 0x2020 ADD PUSH1 0x40 MSTORE DUP1 PUSH2 0x2000 DUP2 MSTORE PUSH1 0x20 ADD PUSH2 0x15F4 PUSH2 0x2000 SWAP2 CODECOPY SWAP1 POP PUSH2 0x825 DUP10 DUP10 DUP10 DUP10 PUSH2 0xBA8 JUMP JUMPDEST DUP1 SWAP10 POP DUP2 SWAP11 POP DUP3 SWAP12 POP DUP4 SWAP13 POP POP POP POP POP PUSH0 PUSH0 SWAP1 POP JUMPDEST PUSH1 0x4 DUP2 LT ISZERO PUSH2 0x99F JUMPI PUSH0 PUSH1 0x4 DUP3 MUL SWAP1 POP PUSH32 0x30644E72E131A029B85045B68181585D2833E84879B9709143E1F593F0000001 DUP1 PUSH2 0x879 JUMPI PUSH2 0x878 PUSH2 0x1599 JUMP JUMPDEST JUMPDEST PUSH2 0x885 DUP5 PUSH0 DUP5 ADD PUSH2 0xEF7 JUMP JUMPDEST DUP13 ADDMOD SWAP11 POP PUSH32 0x30644E72E131A029B85045B68181585D2833E84879B9709143E1F593F0000001 DUP1 PUSH2 0x8B8 JUMPI PUSH2 0x8B7 PUSH2 0x1599 JUMP JUMPDEST JUMPDEST PUSH2 0x8C5 DUP5 PUSH1 0x1 DUP5 ADD PUSH2 0xEF7 JUMP JUMPDEST DUP12 ADDMOD SWAP10 POP PUSH32 0x30644E72E131A029B85045B68181585D2833E84879B9709143E1F593F0000001 DUP1 PUSH2 0x8F8 JUMPI PUSH2 0x8F7 PUSH2 0x1599 JUMP JUMPDEST JUMPDEST PUSH2 0x905 DUP5 PUSH1 0x2 DUP5 ADD PUSH2 0xEF7 JUMP JUMPDEST DUP11 ADDMOD SWAP9 POP PUSH32 0x30644E72E131A029B85045B68181585D2833E84879B9709143E1F593F0000001 DUP1 PUSH2 0x938 JUMPI PUSH2 0x937 PUSH2 0x1599 JUMP JUMPDEST JUMPDEST PUSH2 0x945 DUP5 PUSH1 0x3 DUP5 ADD PUSH2 0xEF7 JUMP JUMPDEST DUP10 ADDMOD SWAP8 POP PUSH2 0x952 DUP12 PUSH2 0xF0A JUMP JUMPDEST SWAP11 POP PUSH2 0x95D DUP11 PUSH2 0xF0A JUMP JUMPDEST SWAP10 POP PUSH2 0x968 DUP10 PUSH2 0xF0A JUMP JUMPDEST SWAP9 POP PUSH2 0x973 DUP9 PUSH2 0xF0A JUMP JUMPDEST SWAP8 POP PUSH2 0x981 DUP12 DUP12 DUP12 DUP12 PUSH2 0xBA8 JUMP JUMPDEST DUP1 SWAP12 POP DUP2 SWAP13 POP DUP3 SWAP14 POP DUP4 SWAP15 POP POP POP POP POP POP DUP1 DUP1 PUSH1 0x1 ADD SWAP2 POP POP PUSH2 0x83A JUMP JUMPDEST POP PUSH0 PUSH1 0x4 SWAP1 POP JUMPDEST PUSH1 0x3C DUP2 LT ISZERO PUSH2 0xA23 JUMPI PUSH32 0x30644E72E131A029B85045B68181585D2833E84879B9709143E1F593F0000001 DUP1 PUSH2 0x9DE JUMPI PUSH2 0x9DD PUSH2 0x1599 JUMP JUMPDEST JUMPDEST PUSH2 0x9EB DUP4 PUSH1 0x4 DUP5 MUL PUSH2 0xEF7 JUMP JUMPDEST DUP12 ADDMOD SWAP10 POP PUSH2 0x9F8 DUP11 PUSH2 0xF0A JUMP JUMPDEST SWAP10 POP PUSH2 0xA06 DUP11 DUP11 DUP11 DUP11 PUSH2 0xFB0 JUMP JUMPDEST DUP1 SWAP11 POP DUP2 SWAP12 POP DUP3 SWAP13 POP DUP4 SWAP14 POP POP POP POP POP DUP1 DUP1 PUSH1 0x1 ADD SWAP2 POP POP PUSH2 0x9A6 JUMP JUMPDEST POP PUSH0 PUSH1 0x3C SWAP1 POP JUMPDEST PUSH1 0x40 DUP2 LT ISZERO PUSH2 0xB8F JUMPI PUSH0 PUSH1 0x4 DUP3 MUL SWAP1 POP PUSH32 0x30644E72E131A029B85045B68181585D2833E84879B9709143E1F593F0000001 DUP1 PUSH2 0xA69 JUMPI PUSH2 0xA68 PUSH2 0x1599 JUMP JUMPDEST JUMPDEST PUSH2 0xA75 DUP5 PUSH0 DUP5 ADD PUSH2 0xEF7 JUMP JUMPDEST DUP13 ADDMOD SWAP11 POP PUSH32 0x30644E72E131A029B85045B68181585D2833E84879B9709143E1F593F0000001 DUP1 PUSH2 0xAA8 JUMPI PUSH2 0xAA7 PUSH2 0x1599 JUMP JUMPDEST JUMPDEST PUSH2 0xAB5 DUP5 PUSH1 0x1 DUP5 ADD PUSH2 0xEF7 JUMP JUMPDEST DUP12 ADDMOD SWAP10 POP PUSH32 0x30644E72E131A029B85045B68181585D2833E84879B9709143E1F593F0000001 DUP1 PUSH2 0xAE8 JUMPI PUSH2 0xAE7 PUSH2 0x1599 JUMP JUMPDEST JUMPDEST PUSH2 0xAF5 DUP5 PUSH1 0x2 DUP5 ADD PUSH2 0xEF7 JUMP JUMPDEST DUP11 ADDMOD SWAP9 POP PUSH32 0x30644E72E131A029B85045B68181585D2833E84879B9709143E1F593F0000001 DUP1 PUSH2 0xB28 JUMPI PUSH2 0xB27 PUSH2 0x1599 JUMP JUMPDEST JUMPDEST PUSH2 0xB35 DUP5 PUSH1 0x3 DUP5 ADD PUSH2 0xEF7 JUMP JUMPDEST DUP10 ADDMOD SWAP8 POP PUSH2 0xB42 DUP12 PUSH2 0xF0A JUMP JUMPDEST SWAP11 POP PUSH2 0xB4D DUP11 PUSH2 0xF0A JUMP JUMPDEST SWAP10 POP PUSH2 0xB58 DUP10 PUSH2 0xF0A JUMP JUMPDEST SWAP9 POP PUSH2 0xB63 DUP9 PUSH2 0xF0A JUMP JUMPDEST SWAP8 POP PUSH2 0xB71 DUP12 DUP12 DUP12 DUP12 PUSH2 0xBA8 JUMP JUMPDEST DUP1 SWAP12 POP DUP2 SWAP13 POP DUP3 SWAP14 POP DUP4 SWAP15 POP POP POP POP POP POP DUP1 DUP1 PUSH1 0x1 ADD SWAP2 POP POP PUSH2 0xA2A JUMP JUMPDEST POP DUP9 DUP9 DUP9 DUP9 SWAP5 POP SWAP5 POP SWAP5 POP SWAP5 POP POP SWAP5 POP SWAP5 POP SWAP5 POP SWAP5 SWAP1 POP JUMP JUMPDEST PUSH0 PUSH0 PUSH0 PUSH0 PUSH0 PUSH32 0x30644E72E131A029B85045B68181585D2833E84879B9709143E1F593F0000001 DUP1 PUSH2 0xBDC JUMPI PUSH2 0xBDB PUSH2 0x1599 JUMP JUMPDEST JUMPDEST DUP9 DUP11 ADDMOD SWAP1 POP PUSH0 PUSH32 0x30644E72E131A029B85045B68181585D2833E84879B9709143E1F593F0000001 DUP1 PUSH2 0xC11 JUMPI PUSH2 0xC10 PUSH2 0x1599 JUMP JUMPDEST JUMPDEST DUP8 DUP10 ADDMOD SWAP1 POP PUSH0 PUSH32 0x30644E72E131A029B85045B68181585D2833E84879B9709143E1F593F0000001 DUP1 PUSH2 0xC46 JUMPI PUSH2 0xC45 PUSH2 0x1599 JUMP JUMPDEST JUMPDEST DUP3 PUSH32 0x30644E72E131A029B85045B68181585D2833E84879B9709143E1F593F0000001 DUP1 PUSH2 0xC76 JUMPI PUSH2 0xC75 PUSH2 0x1599 JUMP JUMPDEST JUMPDEST DUP13 DUP14 ADDMOD ADDMOD SWAP1 POP PUSH0 PUSH32 0x30644E72E131A029B85045B68181585D2833E84879B9709143E1F593F0000001 DUP1 PUSH2 0xCAC JUMPI PUSH2 0xCAB PUSH2 0x1599 JUMP JUMPDEST JUMPDEST DUP5 PUSH32 0x30644E72E131A029B85045B68181585D2833E84879B9709143E1F593F0000001 DUP1 PUSH2 0xCDC JUMPI PUSH2 0xCDB PUSH2 0x1599 JUMP JUMPDEST JUMPDEST DUP12 DUP13 ADDMOD ADDMOD SWAP1 POP PUSH0 PUSH32 0x30644E72E131A029B85045B68181585D2833E84879B9709143E1F593F0000001 DUP1 PUSH2 0xD12 JUMPI PUSH2 0xD11 PUSH2 0x1599 JUMP JUMPDEST JUMPDEST PUSH32 0x30644E72E131A029B85045B68181585D2833E84879B9709143E1F593F0000001 DUP1 PUSH2 0xD41 JUMPI PUSH2 0xD40 PUSH2 0x1599 JUMP JUMPDEST JUMPDEST DUP6 DUP7 ADDMOD PUSH32 0x30644E72E131A029B85045B68181585D2833E84879B9709143E1F593F0000001 DUP1 PUSH2 0xD73 JUMPI PUSH2 0xD72 PUSH2 0x1599 JUMP JUMPDEST JUMPDEST DUP7 DUP8 ADDMOD ADDMOD SWAP1 POP PUSH32 0x30644E72E131A029B85045B68181585D2833E84879B9709143E1F593F0000001 DUP1 PUSH2 0xDA8 JUMPI PUSH2 0xDA7 PUSH2 0x1599 JUMP JUMPDEST JUMPDEST DUP3 DUP3 ADDMOD SWAP1 POP PUSH0 PUSH32 0x30644E72E131A029B85045B68181585D2833E84879B9709143E1F593F0000001 DUP1 PUSH2 0xDDD JUMPI PUSH2 0xDDC PUSH2 0x1599 JUMP JUMPDEST JUMPDEST PUSH32 0x30644E72E131A029B85045B68181585D2833E84879B9709143E1F593F0000001 DUP1 PUSH2 0xE0C JUMPI PUSH2 0xE0B PUSH2 0x1599 JUMP JUMPDEST JUMPDEST DUP8 DUP9 ADDMOD PUSH32 0x30644E72E131A029B85045B68181585D2833E84879B9709143E1F593F0000001 DUP1 PUSH2 0xE3E JUMPI PUSH2 0xE3D PUSH2 0x1599 JUMP JUMPDEST JUMPDEST DUP9 DUP10 ADDMOD ADDMOD SWAP1 POP PUSH32 0x30644E72E131A029B85045B68181585D2833E84879B9709143E1F593F0000001 DUP1 PUSH2 0xE73 JUMPI PUSH2 0xE72 PUSH2 0x1599 JUMP JUMPDEST JUMPDEST DUP5 DUP3 ADDMOD SWAP1 POP PUSH32 0x30644E72E131A029B85045B68181585D2833E84879B9709143E1F593F0000001 DUP1 PUSH2 0xEA7 JUMPI PUSH2 0xEA6 PUSH2 0x1599 JUMP JUMPDEST JUMPDEST DUP2 DUP5 ADDMOD DUP2 PUSH32 0x30644E72E131A029B85045B68181585D2833E84879B9709143E1F593F0000001 DUP1 PUSH2 0xEDA JUMPI PUSH2 0xED9 PUSH2 0x1599 JUMP JUMPDEST JUMPDEST DUP5 DUP8 ADDMOD DUP5 SWAP10 POP SWAP10 POP SWAP10 POP SWAP10 POP POP POP POP POP POP POP SWAP5 POP SWAP5 POP SWAP5 POP SWAP5 SWAP1 POP JUMP JUMPDEST PUSH0 DUP2 PUSH1 0x5 SHL PUSH1 0x20 ADD DUP4 ADD MLOAD SWAP1 POP SWAP3 SWAP2 POP POP JUMP JUMPDEST PUSH0 PUSH0 PUSH32 0x30644E72E131A029B85045B68181585D2833E84879B9709143E1F593F0000001 DUP1 PUSH2 0xF3B JUMPI PUSH2 0xF3A PUSH2 0x1599 JUMP JUMPDEST JUMPDEST DUP4 DUP5 MULMOD SWAP1 POP PUSH0 PUSH32 0x30644E72E131A029B85045B68181585D2833E84879B9709143E1F593F0000001 DUP1 PUSH2 0xF70 JUMPI PUSH2 0xF6F PUSH2 0x1599 JUMP JUMPDEST JUMPDEST DUP3 DUP4 MULMOD SWAP1 POP PUSH32 0x30644E72E131A029B85045B68181585D2833E84879B9709143E1F593F0000001 DUP1 PUSH2 0xFA4 JUMPI PUSH2 0xFA3 PUSH2 0x1599 JUMP JUMPDEST JUMPDEST DUP5 DUP3 MULMOD SWAP3 POP POP POP SWAP2 SWAP1 POP JUMP JUMPDEST PUSH0 PUSH0 PUSH0 PUSH0 PUSH0 PUSH32 0x30644E72E131A029B85045B68181585D2833E84879B9709143E1F593F0000001 DUP1 PUSH2 0xFE4 JUMPI PUSH2 0xFE3 PUSH2 0x1599 JUMP JUMPDEST JUMPDEST PUSH32 0x30644E72E131A029B85045B68181585D2833E84879B9709143E1F593F0000001 DUP1 PUSH2 0x1013 JUMPI PUSH2 0x1012 PUSH2 0x1599 JUMP JUMPDEST JUMPDEST DUP8 DUP10 ADDMOD PUSH32 0x30644E72E131A029B85045B68181585D2833E84879B9709143E1F593F0000001 DUP1 PUSH2 0x1045 JUMPI PUSH2 0x1044 PUSH2 0x1599 JUMP JUMPDEST JUMPDEST DUP11 DUP13 ADDMOD ADDMOD SWAP1 POP PUSH32 0x30644E72E131A029B85045B68181585D2833E84879B9709143E1F593F0000001 DUP1 PUSH2 0x107A JUMPI PUSH2 0x1079 PUSH2 0x1599 JUMP JUMPDEST JUMPDEST DUP2 PUSH32 0x30644E72E131A029B85045B68181585D2833E84879B9709143E1F593F0000001 DUP1 PUSH2 0x10AA JUMPI PUSH2 0x10A9 PUSH2 0x1599 JUMP JUMPDEST JUMPDEST PUSH32 0x10DC6E9C006EA38B04B1E03B4BD9490C0D03F98929CA1D7FB56821FD19D3B6E7 DUP13 MULMOD ADDMOD SWAP9 POP PUSH32 0x30644E72E131A029B85045B68181585D2833E84879B9709143E1F593F0000001 DUP1 PUSH2 0x10FF JUMPI PUSH2 0x10FE PUSH2 0x1599 JUMP JUMPDEST JUMPDEST DUP2 PUSH32 0x30644E72E131A029B85045B68181585D2833E84879B9709143E1F593F0000001 DUP1 PUSH2 0x112F JUMPI PUSH2 0x112E PUSH2 0x1599 JUMP JUMPDEST JUMPDEST PUSH32 0xC28145B6A44DF3E0149B3D0A30B3BB599DF9756D4DD9B84A86B38CFB45A740B DUP12 MULMOD ADDMOD SWAP8 POP PUSH32 0x30644E72E131A029B85045B68181585D2833E84879B9709143E1F593F0000001 DUP1 PUSH2 0x1184 JUMPI PUSH2 0x1183 PUSH2 0x1599 JUMP JUMPDEST JUMPDEST DUP2 PUSH32 0x30644E72E131A029B85045B68181585D2833E84879B9709143E1F593F0000001 DUP1 PUSH2 0x11B4 JUMPI PUSH2 0x11B3 PUSH2 0x1599 JUMP JUMPDEST JUMPDEST PUSH31 0x544B8338791518B2C7645A50392798B21F75BB60E3596170067D00141CAC15 DUP11 MULMOD ADDMOD SWAP7 POP PUSH32 0x30644E72E131A029B85045B68181585D2833E84879B9709143E1F593F0000001 DUP1 PUSH2 0x1208 JUMPI PUSH2 0x1207 PUSH2 0x1599 JUMP JUMPDEST JUMPDEST DUP2 PUSH32 0x30644E72E131A029B85045B68181585D2833E84879B9709143E1F593F0000001 DUP1 PUSH2 0x1238 JUMPI PUSH2 0x1237 PUSH2 0x1599 JUMP JUMPDEST JUMPDEST PUSH32 0x222C01175718386F2E2E82EB122789E352E105A3B8FA852613BC534433EE428B DUP10 MULMOD ADDMOD SWAP6 POP DUP9 DUP9 DUP9 DUP9 SWAP5 POP SWAP5 POP SWAP5 POP SWAP5 POP POP SWAP5 POP SWAP5 POP SWAP5 POP SWAP5 SWAP1 POP JUMP JUMPDEST PUSH1 0x40 MLOAD DUP1 PUSH1 0x80 ADD PUSH1 0x40 MSTORE DUP1 PUSH1 0x4 SWAP1 PUSH1 0x20 DUP3 MUL DUP1 CALLDATASIZE DUP4 CALLDATACOPY DUP1 DUP3 ADD SWAP2 POP POP SWAP1 POP POP SWAP1 JUMP JUMPDEST PUSH0 PUSH0 REVERT JUMPDEST PUSH0 DUP2 SWAP1 POP SWAP2 SWAP1 POP JUMP JUMPDEST PUSH2 0x12AE DUP2 PUSH2 0x129C JUMP JUMPDEST DUP2 EQ PUSH2 0x12B8 JUMPI PUSH0 PUSH0 REVERT JUMPDEST POP JUMP JUMPDEST PUSH0 DUP2 CALLDATALOAD SWAP1 POP PUSH2 0x12C9 DUP2 PUSH2 0x12A5 JUMP JUMPDEST SWAP3 SWAP2 POP POP JUMP JUMPDEST PUSH0 PUSH0 PUSH0 PUSH1 0x60 DUP5 DUP7 SUB SLT ISZERO PUSH2 0x12E6 JUMPI PUSH2 0x12E5 PUSH2 0x1298 JUMP JUMPDEST JUMPDEST PUSH0 PUSH2 0x12F3 DUP7 DUP3 DUP8 ADD PUSH2 0x12BB JUMP JUMPDEST SWAP4 POP POP PUSH1 0x20 PUSH2 0x1304 DUP7 DUP3 DUP8 ADD PUSH2 0x12BB JUMP JUMPDEST SWAP3 POP POP PUSH1 0x40 PUSH2 0x1315 DUP7 DUP3 DUP8 ADD PUSH2 0x12BB JUMP JUMPDEST SWAP2 POP POP SWAP3 POP SWAP3 POP SWAP3 JUMP JUMPDEST PUSH2 0x1328 DUP2 PUSH2 0x129C JUMP JUMPDEST DUP3 MSTORE POP POP JUMP JUMPDEST PUSH0 PUSH1 0x20 DUP3 ADD SWAP1 POP PUSH2 0x1341 PUSH0 DUP4 ADD DUP5 PUSH2 0x131F JUMP JUMPDEST SWAP3 SWAP2 POP POP JUMP JUMPDEST PUSH0 PUSH0 PUSH0 PUSH0 PUSH1 0x80 DUP6 DUP8 SUB SLT ISZERO PUSH2 0x135F JUMPI PUSH2 0x135E PUSH2 0x1298 JUMP JUMPDEST JUMPDEST PUSH0 PUSH2 0x136C DUP8 DUP3 DUP9 ADD PUSH2 0x12BB JUMP JUMPDEST SWAP5 POP POP PUSH1 0x20 PUSH2 0x137D DUP8 DUP3 DUP9 ADD PUSH2 0x12BB JUMP JUMPDEST SWAP4 POP POP PUSH1 0x40 PUSH2 0x138E DUP8 DUP3 DUP9 ADD PUSH2 0x12BB JUMP JUMPDEST SWAP3 POP POP PUSH1 0x60 PUSH2 0x139F DUP8 DUP3 DUP9 ADD PUSH2 0x12BB JUMP JUMPDEST SWAP2 POP POP SWAP3 SWAP6 SWAP2 SWAP5 POP SWAP3 POP JUMP JUMPDEST PUSH0 PUSH0 PUSH1 0x40 DUP4 DUP6 SUB SLT ISZERO PUSH2 0x13C1 JUMPI PUSH2 0x13C0 PUSH2 0x1298 JUMP JUMPDEST JUMPDEST PUSH0 PUSH2 0x13CE DUP6 DUP3 DUP7 ADD PUSH2 0x12BB JUMP JUMPDEST SWAP3 POP POP PUSH1 0x20 PUSH2 0x13DF DUP6 DUP3 DUP7 ADD PUSH2 0x12BB JUMP JUMPDEST SWAP2 POP POP SWAP3 POP SWAP3 SWAP1 POP JUMP JUMPDEST PUSH0 PUSH0 REVERT JUMPDEST PUSH0 DUP2 SWAP1 POP DUP3 PUSH1 0x20 PUSH1 0x4 MUL DUP3 ADD GT ISZERO PUSH2 0x1408 JUMPI PUSH2 0x1407 PUSH2 0x13E9 JUMP JUMPDEST JUMPDEST SWAP3 SWAP2 POP POP JUMP JUMPDEST PUSH0 PUSH1 0x80 DUP3 DUP5 SUB SLT ISZERO PUSH2 0x1423 JUMPI PUSH2 0x1422 PUSH2 0x1298 JUMP JUMPDEST JUMPDEST PUSH0 PUSH2 0x1430 DUP5 DUP3 DUP6 ADD PUSH2 0x13ED JUMP JUMPDEST SWAP2 POP POP SWAP3 SWAP2 POP POP JUMP JUMPDEST PUSH0 PUSH1 0x4 SWAP1 POP SWAP2 SWAP1 POP JUMP JUMPDEST PUSH0 DUP2 SWAP1 POP SWAP3 SWAP2 POP POP JUMP JUMPDEST PUSH0 DUP2 SWAP1 POP SWAP2 SWAP1 POP JUMP JUMPDEST PUSH2 0x145F DUP2 PUSH2 0x129C JUMP JUMPDEST DUP3 MSTORE POP POP JUMP JUMPDEST PUSH0 PUSH2 0x1470 DUP4 DUP4 PUSH2 0x1456 JUMP JUMPDEST PUSH1 0x20 DUP4 ADD SWAP1 POP SWAP3 SWAP2 POP POP JUMP JUMPDEST PUSH0 PUSH1 0x20 DUP3 ADD SWAP1 POP SWAP2 SWAP1 POP JUMP JUMPDEST PUSH2 0x1491 DUP2 PUSH2 0x1439 JUMP JUMPDEST PUSH2 0x149B DUP2 DUP5 PUSH2 0x1443 JUMP JUMPDEST SWAP3 POP PUSH2 0x14A6 DUP3 PUSH2 0x144D JUMP JUMPDEST DUP1 PUSH0 JUMPDEST DUP4 DUP2 LT ISZERO PUSH2 0x14D6 JUMPI DUP2 MLOAD PUSH2 0x14BD DUP8 DUP3 PUSH2 0x1465 JUMP JUMPDEST SWAP7 POP PUSH2 0x14C8 DUP4 PUSH2 0x147C JUMP JUMPDEST SWAP3 POP POP PUSH1 0x1 DUP2 ADD SWAP1 POP PUSH2 0x14A9 JUMP JUMPDEST POP POP POP POP POP POP JUMP JUMPDEST PUSH0 PUSH1 0x80 DUP3 ADD SWAP1 POP PUSH2 0x14F1 PUSH0 DUP4 ADD DUP5 PUSH2 0x1488 JUMP JUMPDEST SWAP3 SWAP2 POP POP JUMP JUMPDEST PUSH0 PUSH0 PUSH0 PUSH0 PUSH0 PUSH1 0xA0 DUP7 DUP9 SUB SLT ISZERO PUSH2 0x1510 JUMPI PUSH2 0x150F PUSH2 0x1298 JUMP JUMPDEST JUMPDEST PUSH0 PUSH2 0x151D DUP9 DUP3 DUP10 ADD PUSH2 0x12BB JUMP JUMPDEST SWAP6 POP POP PUSH1 0x20 PUSH2 0x152E DUP9 DUP3 DUP10 ADD PUSH2 0x12BB JUMP JUMPDEST SWAP5 POP POP PUSH1 0x40 PUSH2 0x153F DUP9 DUP3 DUP10 ADD PUSH2 0x12BB JUMP JUMPDEST SWAP4 POP POP PUSH1 0x60 PUSH2 0x1550 DUP9 DUP3 DUP10 ADD PUSH2 0x12BB JUMP JUMPDEST SWAP3 POP POP PUSH1 0x80 PUSH2 0x1561 DUP9 DUP3 DUP10 ADD PUSH2 0x12BB JUMP JUMPDEST SWAP2 POP POP SWAP3 SWAP6 POP SWAP3 SWAP6 SWAP1 SWAP4 POP JUMP JUMPDEST PUSH0 PUSH1 0x20 DUP3 DUP5 SUB SLT ISZERO PUSH2 0x1583 JUMPI PUSH2 0x1582 PUSH2 0x1298 JUMP JUMPDEST JUMPDEST PUSH0 PUSH2 0x1590 DUP5 DUP3 DUP6 ADD PUSH2 0x12BB JUMP JUMPDEST SWAP2 POP POP SWAP3 SWAP2 POP POP JUMP JUMPDEST PUSH32 0x4E487B7100000000000000000000000000000000000000000000000000000000 PUSH0 MSTORE PUSH1 0x12 PUSH1 0x4 MSTORE PUSH1 0x24 PUSH0 REVERT JUMPDEST PUSH32 0x4E487B7100000000000000000000000000000000000000000000000000000000 PUSH0 MSTORE PUSH1 0x32 PUSH1 0x4 MSTORE PUSH1 0x24 PUSH0 REVERT INVALID NOT 0xB8 BLOBHASH 0xF6 SWAP5 POP 0xB0 PUSH9 0x48DA1D39BD5E4A4302 0xBB DUP7 PUSH21 0x4EDC26238B0878E269ED23E5265DDFE127DD51BD72 CODECOPY CALLVALUE PUSH28 0x758F0A1320EB2CC7450ACC1DAD47F80C8DCF34D6199750EC472F1809 RJUMP 0xF66A SLOAD MCOPY 0x1E MLOAD PUSH3 0x4108AC DUP5 POP ISZERO 0xC2 0xAA RETURNDATASIZE 0xFC CALLDATASIZE 0xBA 0xB4 SWAP8 0xD8 0xAA ISZERO PUSH32 0xF3FE65AC7208110F06A5F74302B14D743EA25067F0FFD032F787C7F1CDF82E49 0xC4 EXTCODECOPY GASLIMIT PUSH10 0xDD9C5FD35AC45FCA33F1 SIGNEXTEND ISZERO 0xC5 SWAP1 PUSH10 0x2F8BEEFE18F4896AC949 MUL 0xE CALLDATALOAD EXTSTATICCALL DUP10 SWAP9 XOR SWAP1 MSTORE 0xD BLOBBASEFEE 0xEF 0x2B PUSH14 0x6506C3CB2F0B6973C24FA8273134 PUSH0 STATICCALL 0x2D 0x1F 0x1E 0x25 BYTE 0xD4 PUSH29 0xB15C4F1105F109AE5E944F1BA9D9E7806D667FFEC6FE723002E0B99613 0xDA SMOD 0xDC PUSH5 0xD428369873 0xE9 PUSH18 0x60234641F8BEB56FDD05E5F3563FA39D9C22 0xDF 0x4E 0xC STOP SWAP12 DUP5 DUPN 0x50 DUPN 0xD2 RETURNDATASIZE 0xC0 0xC PUSH30 0xCCEF7483A553939689D350CD46E7B89055FD4738011F16B1C63A854F0199 0x2E CODECOPY JUMP DELEGATECALL 0x2D DUP12 DIV 0xEB PUSH6 0xC6D535EB020 RETURNDATASIZE EOFCREATE 0x74 0xBE REVERT 0xCA MOD 0xE 0xD6 SWAP15 MCOPY CODESIZE GASPRICE PUSH9 0x8F209D9A561DAA7961 0x2F EXTCODEHASH PUSH25 0xD0467AD45485DF07093F36754904DBA94A7B0CE9E221ACAD41 SELFBALANCE 0x2B PUSH12 0xBE3AEC507F5EB3D33F463672 0x26 0x4C SWAP16 PUSH25 0x9B0A3F2637D840F3A16EB094271C9D237B6036757D4BB50BF7 0xCE PUSH20 0x2FF1D4FA28E8259A666F129EEA198F8A1C502FDB CODESIZE STATICCALL CODECOPY 0xB1 CREATE PUSH22 0x569564B6E54A485D1182323F28BF7459C9B2F4C6D8E7 0xD0 PUSH11 0x4EE3A47F7745D4271038E5 ISZERO PUSH27 0x32FDF7EDE0D6A10A1CA941F057037526EA200F489BE8D4C37C85BB 0xCC DUPN 0xA2 0xAE EOFCREATE 0x91 0xBD PUSH10 0x414324470C6F8F958BE0 0xE9 ADDRESS MSTORE8 0xD7 REVERT 0x4F 0xC5 GASLIMIT SLT DUP6 SSTORE CALLDATALOAD 0xED ISZERO CODECOPY CREATE MLOAD 0xDC 0xB4 GASPRICE 0x26 REVERT SWAP3 PUSH4 0x61CF0000 STOP STOP STOP STOP STOP STOP STOP STOP STOP STOP STOP STOP STOP STOP STOP STOP STOP STOP STOP STOP STOP STOP STOP STOP STOP STOP STOP STOP STOP STOP STOP STOP STOP STOP STOP STOP STOP STOP STOP STOP STOP STOP STOP STOP STOP STOP STOP STOP STOP STOP STOP STOP STOP STOP STOP STOP STOP STOP STOP STOP STOP STOP STOP STOP STOP STOP STOP STOP STOP STOP STOP STOP STOP STOP STOP STOP STOP STOP STOP STOP STOP STOP STOP STOP STOP STOP STOP STOP STOP STOP STOP STOP STOP STOP SLT BALANCE MOD 0xA9 EXTCODECOPY DATALOADN 0x7578 0xD4 0x26 0xE8 SLT DUP11 0xC9 0xD9 EXP 0xA9 0xE8 LOG0 SMOD ADDMOD 0xE2 SWAP7 RJUMP 0x84DD JUMPI DUPN 0x9C 0xAA EXTCALL GT STOP STOP STOP STOP STOP STOP STOP STOP STOP STOP STOP STOP STOP STOP STOP STOP STOP STOP STOP STOP STOP STOP STOP STOP STOP STOP STOP STOP STOP STOP STOP STOP STOP STOP STOP STOP STOP STOP STOP STOP STOP STOP STOP STOP STOP STOP STOP STOP STOP STOP STOP STOP STOP STOP STOP STOP STOP STOP STOP STOP STOP STOP STOP STOP STOP STOP STOP STOP STOP STOP STOP STOP STOP STOP STOP STOP STOP STOP STOP STOP STOP STOP STOP STOP STOP STOP STOP STOP STOP STOP STOP STOP STOP STOP STOP STOP 0x26 RJUMPI 0xBA52 0xAD SWAP3 DUP6 0xD9 PUSH30 0xD3AB52F8E840085E8FA83FF1E8F1877B074867CD2DEE7500000000000000 STOP STOP STOP STOP STOP STOP STOP STOP STOP STOP STOP STOP STOP STOP STOP STOP STOP STOP STOP STOP STOP STOP STOP STOP STOP STOP STOP STOP STOP STOP STOP STOP STOP STOP STOP STOP STOP STOP STOP STOP STOP STOP STOP STOP STOP STOP STOP STOP STOP STOP STOP STOP STOP STOP STOP STOP STOP STOP STOP STOP STOP STOP STOP STOP STOP STOP STOP STOP STOP STOP STOP STOP STOP STOP STOP STOP STOP STOP STOP STOP STOP STOP STOP STOP STOP STOP STOP STOP STOP SHR 0xB5 TLOAD 0xAD PUSH28 0xD133DE18A64C5C47B9C97CBE4D8B7BF9E095864471537E6A4AE2C500 STOP STOP STOP STOP STOP STOP STOP STOP STOP STOP STOP STOP STOP STOP STOP STOP STOP STOP STOP STOP STOP STOP STOP STOP STOP STOP STOP STOP STOP STOP STOP STOP STOP STOP STOP STOP STOP STOP STOP STOP STOP STOP STOP STOP STOP STOP STOP STOP STOP STOP STOP STOP STOP STOP STOP STOP STOP STOP STOP STOP STOP STOP STOP STOP STOP STOP STOP STOP STOP STOP STOP STOP STOP STOP STOP STOP STOP STOP STOP STOP STOP STOP STOP STOP STOP STOP STOP STOP STOP STOP STOP STOP STOP STOP STOP SAR 0xCD PUSH20 0xE46ACD8F8E0E2C7CE04BDE7F6D2A53043D5060A4 SHR PUSH18 0x43F08E6E9055D00000000000000000000000 STOP STOP STOP STOP STOP STOP STOP STOP STOP STOP STOP STOP STOP STOP STOP STOP STOP STOP STOP STOP STOP STOP STOP STOP STOP STOP STOP STOP STOP STOP STOP STOP STOP STOP STOP STOP STOP STOP STOP STOP STOP STOP STOP STOP STOP STOP STOP STOP STOP STOP STOP STOP STOP STOP STOP STOP STOP STOP STOP STOP STOP STOP STOP STOP STOP STOP STOP STOP STOP STOP STOP STOP STOP STOP STOP STOP STOP STOP STOP STOP STOP STOP STOP STOP STOP ADD LT SUB CALLF 0x2F6D SWAP13 PUSH7 0xF5852F05474A4D 0xEF 0xC 0xDA 0x29 BLOBBASEFEE 0xE 0xB4 0xE9 0xB9 0xB1 0x2B SWAP12 0xB4 MLOAD 0x2E SSTORE PUSH21 0x0 STOP STOP STOP STOP STOP STOP STOP STOP STOP STOP STOP STOP STOP STOP STOP STOP STOP STOP STOP STOP STOP STOP STOP STOP STOP STOP STOP STOP STOP STOP STOP STOP STOP STOP STOP STOP STOP STOP STOP STOP STOP STOP STOP STOP STOP STOP STOP STOP STOP STOP STOP STOP STOP STOP STOP STOP STOP STOP STOP STOP STOP STOP STOP STOP STOP STOP STOP STOP STOP STOP STOP STOP STOP STOP STOP 0x2B 0x1E DUP1 SWAP11 0xC1 DATALOADN 0xAB2 SWAP11 0xD5 CALLCODE 0xD SUB 0xA5 PUSH30 0xFEBADFE5903F58BAFED7C508DD2287AE8C00000000000000000000000000 STOP STOP STOP STOP STOP STOP STOP STOP STOP STOP STOP STOP STOP STOP STOP STOP STOP STOP STOP STOP STOP STOP STOP STOP STOP STOP STOP STOP STOP STOP STOP STOP STOP STOP STOP STOP STOP STOP STOP STOP STOP STOP STOP STOP STOP STOP STOP STOP STOP STOP STOP STOP STOP STOP STOP STOP STOP STOP STOP STOP STOP STOP STOP STOP STOP STOP STOP STOP STOP STOP STOP STOP STOP STOP STOP STOP STOP STOP STOP STOP STOP STOP STOP 0x25 CODECOPY 0xDE OR DUP6 0xB7 CALLDATALOAD SWAP10 SWAP16 0xB4 0xDA 0xC3 MCOPY RJUMPI 0x7ED0 0xEF SWAP10 TSTORE SDIV 0xAB 0x2F 0xC5 STATICCALL 0xEA 0xA6 SWAP11 0xE8 PUSH28 0xCEC0A500000000000000000000000000000000000000000000000000 STOP STOP STOP STOP STOP STOP STOP STOP STOP STOP STOP STOP STOP STOP STOP STOP STOP STOP STOP STOP STOP STOP STOP STOP STOP STOP STOP STOP STOP STOP STOP STOP STOP STOP STOP STOP STOP STOP STOP STOP STOP STOP STOP STOP STOP STOP STOP STOP STOP STOP STOP STOP STOP STOP STOP STOP STOP STOP STOP STOP STOP STOP STOP STOP STOP STOP STOP STOP STOP STOP STOP 0xC 0x24 PUSH13 0x5A2EF8EE0126497F222B3E0A0E DELEGATECALL RJUMPI 0xC3D4 SHR DUP7 0xD4 PUSH15 0x43982CB11D77951D00000000000000 STOP STOP STOP STOP STOP STOP STOP STOP STOP STOP STOP STOP STOP STOP STOP STOP STOP STOP STOP STOP STOP STOP STOP STOP STOP STOP STOP STOP STOP STOP STOP STOP STOP STOP STOP STOP STOP STOP STOP STOP STOP STOP STOP STOP STOP STOP STOP STOP STOP STOP STOP STOP STOP STOP STOP STOP STOP STOP STOP STOP STOP STOP STOP STOP STOP STOP STOP STOP STOP STOP STOP STOP STOP STOP STOP STOP STOP STOP STOP STOP STOP STOP STOP STOP STOP STOP STOP STOP STOP NOT KECCAK256 DUP10 0xC4 SWAP8 0x4F PUSH9 0xE95408148F7C0632ED 0xBB MULMOD DUPN 0xA6 0xAD BYTE SHR 0x2F EXTCODEHASH SUB SDIV CREATE2 0xD0 EXTCODESIZE MSTORE PUSH28 0x0 STOP STOP STOP STOP STOP STOP STOP STOP STOP STOP STOP STOP STOP STOP STOP STOP STOP STOP STOP STOP STOP STOP STOP STOP STOP STOP STOP STOP STOP STOP STOP STOP STOP STOP STOP STOP STOP STOP STOP STOP STOP STOP STOP STOP STOP STOP STOP STOP STOP STOP STOP STOP STOP STOP STOP STOP STOP STOP STOP STOP STOP STOP STOP STOP STOP STOP STOP STOP 0x1E 0xAE EXP 0xD8 0xAB PUSH9 0xB2F06A0EE36EEB0D0C SDIV DUP6 0x29 MULMOD PUSH30 0x91096B756D8FDC2FB5A60D85000000000000000000000000000000000000 STOP STOP STOP STOP STOP STOP STOP STOP STOP STOP STOP STOP STOP STOP STOP STOP STOP STOP STOP STOP STOP STOP STOP STOP STOP STOP STOP STOP STOP STOP STOP STOP STOP STOP STOP STOP STOP STOP STOP STOP STOP STOP STOP STOP STOP STOP STOP STOP STOP STOP STOP STOP STOP STOP STOP STOP STOP STOP STOP STOP STOP STOP STOP STOP STOP STOP STOP STOP STOP STOP STOP STOP STOP STOP STOP STOP STOP STOP OR SWAP2 SWAP1 JUMPF 0xD0E2 0x21 PUSH26 0xE46F8282872ABC88DB6E2FDC0DEE99E69768BD98C5D06BFB0000 STOP STOP STOP STOP STOP STOP STOP STOP STOP STOP STOP STOP STOP STOP STOP STOP STOP STOP STOP STOP STOP STOP STOP STOP STOP STOP STOP STOP STOP STOP STOP STOP STOP STOP STOP STOP STOP STOP STOP STOP STOP STOP STOP STOP STOP STOP STOP STOP STOP STOP STOP STOP STOP STOP STOP STOP STOP STOP STOP STOP STOP STOP STOP STOP STOP STOP STOP STOP STOP STOP STOP STOP STOP STOP STOP STOP STOP STOP STOP STOP STOP STOP STOP STOP STOP STOP STOP STOP STOP STOP STOP STOP STOP STOP 0x29 0xBB SWAP15 0x2C SWAP1 PUSH23 0x732576E9A81C7AC4B83214528F7DB00F31BF6CAFE794A9 0xB3 0xCD SHR STOP STOP STOP STOP STOP STOP STOP STOP STOP STOP STOP STOP STOP STOP STOP STOP STOP STOP STOP STOP STOP STOP STOP STOP STOP STOP STOP STOP STOP STOP STOP STOP STOP STOP STOP STOP STOP STOP STOP STOP STOP STOP STOP STOP STOP STOP STOP STOP STOP STOP STOP STOP STOP STOP STOP STOP STOP STOP STOP STOP STOP STOP STOP STOP STOP STOP STOP STOP STOP STOP STOP STOP STOP STOP STOP STOP STOP STOP STOP STOP STOP STOP STOP STOP STOP STOP STOP STOP STOP STOP STOP STOP STOP STOP STOP STOP 0x22 TSTORE CODECOPY 0x4E TIMESTAMP KECCAK256 PUSH22 0x99403EFD0C2464A90D52652645882AAC35B10E590E6E PUSH10 0x1E080000000000000000 STOP STOP STOP STOP STOP STOP STOP STOP STOP STOP STOP STOP STOP STOP STOP STOP STOP STOP STOP STOP STOP STOP STOP STOP STOP STOP STOP STOP STOP STOP STOP STOP STOP STOP STOP STOP STOP STOP STOP STOP STOP STOP STOP STOP STOP STOP STOP STOP STOP STOP STOP STOP STOP STOP STOP STOP STOP STOP STOP STOP STOP STOP STOP STOP STOP STOP STOP STOP STOP STOP STOP STOP STOP STOP STOP STOP STOP STOP STOP STOP STOP STOP STOP STOP STOP STOP STOP STOP MOD SELFBALANCE PUSH1 0x62 EXTCODECOPY 0x25 0xC8 0xCF PUSH22 0x3D238055B444532BE13557451C087DE09EFD454B23FD MSIZE STOP STOP STOP STOP STOP STOP STOP STOP STOP STOP STOP STOP STOP STOP STOP STOP STOP STOP STOP STOP STOP STOP STOP STOP STOP STOP STOP STOP STOP STOP STOP STOP STOP STOP STOP STOP STOP STOP STOP STOP STOP STOP STOP STOP STOP STOP STOP STOP STOP STOP STOP STOP STOP STOP STOP STOP STOP STOP STOP STOP STOP STOP STOP STOP STOP STOP STOP STOP STOP STOP STOP STOP STOP STOP STOP STOP STOP STOP STOP STOP STOP STOP STOP STOP STOP STOP STOP STOP STOP STOP STOP STOP STOP STOP STOP STOP LT 0xBA GASPRICE 0xE ADD 0xDF SWAP3 0xE8 PUSH32 0x301C4B716D8A394D67F4BF42A75C10922910A78F6B5B87000000000000000000 STOP STOP STOP STOP STOP STOP STOP STOP STOP STOP STOP STOP STOP STOP STOP STOP STOP STOP STOP STOP STOP STOP STOP STOP STOP STOP STOP STOP STOP STOP STOP STOP STOP STOP STOP STOP STOP STOP STOP STOP STOP STOP STOP STOP STOP STOP STOP STOP STOP STOP STOP STOP STOP STOP STOP STOP STOP STOP STOP STOP STOP STOP STOP STOP STOP STOP STOP STOP STOP STOP STOP STOP STOP STOP STOP STOP STOP STOP STOP STOP STOP STOP STOP STOP STOP STOP STOP 0xE SMOD SIGNEXTEND CREATE2 EXTCODEHASH DUP5 MLOAD 0xB2 0x4F SWAP13 PUSH15 0x96B0C2A801CB511BC0C242EB9D361B PUSH24 0x693F21471C00000000000000000000000000000000000000 STOP STOP STOP STOP STOP STOP STOP STOP STOP STOP STOP STOP STOP STOP STOP STOP STOP STOP STOP STOP STOP STOP STOP STOP STOP STOP STOP STOP STOP STOP STOP STOP STOP STOP STOP STOP STOP STOP STOP STOP STOP STOP STOP STOP STOP STOP STOP STOP STOP STOP STOP STOP STOP STOP STOP STOP STOP STOP STOP STOP STOP STOP STOP STOP STOP STOP STOP STOP STOP STOP STOP STOP STOP STOP STOP STOP STOP SHL SWAP5 0xCD PUSH2 0xB051 0xB0 0x4D 0xD3 SWAP8 SSTORE SELFDESTRUCT SWAP4 DUP3 BYTE PUSH20 0xCCD6CB11D2491D8AA7F921014DE252FB00000000 STOP STOP STOP STOP STOP STOP STOP STOP STOP STOP STOP STOP STOP STOP STOP STOP STOP STOP STOP STOP STOP STOP STOP STOP STOP STOP STOP STOP STOP STOP STOP STOP STOP STOP STOP STOP STOP STOP STOP STOP STOP STOP STOP STOP STOP STOP STOP STOP STOP STOP STOP STOP STOP STOP STOP STOP STOP STOP STOP STOP STOP STOP STOP STOP STOP STOP STOP STOP STOP STOP STOP STOP STOP STOP STOP STOP STOP STOP STOP STOP STOP STOP STOP STOP STOP STOP STOP STOP STOP STOP STOP STOP SAR PUSH29 0xB39BAFB8C744E148787A2E70230F9D4E917D5713BB050487B5AA7D7407 SIGNEXTEND STOP STOP STOP STOP STOP STOP STOP STOP STOP STOP STOP STOP STOP STOP STOP STOP STOP STOP STOP STOP STOP STOP STOP STOP STOP STOP STOP STOP STOP STOP STOP STOP STOP STOP STOP STOP STOP STOP STOP STOP STOP STOP STOP STOP STOP STOP STOP STOP STOP STOP STOP STOP STOP STOP STOP STOP STOP STOP STOP STOP STOP STOP STOP STOP STOP STOP STOP STOP STOP STOP STOP STOP STOP STOP STOP STOP STOP STOP STOP STOP STOP STOP STOP STOP STOP STOP STOP STOP STOP STOP STOP STOP STOP STOP STOP STOP 0x2E 0xC9 BALANCE DUP10 0xBD BYTE 0xB4 0xF6 SWAP2 OR 0xD0 INVALID SWAP9 0xC DUP1 SELFDESTRUCT DUP8 DUP6 0xC2 SWAP7 XOR 0x29 0xF7 ADD 0xBB PUSH21 0xAC1F303B17DB000000000000000000000000000000 STOP STOP STOP STOP STOP STOP STOP STOP STOP STOP STOP STOP STOP STOP STOP STOP STOP STOP STOP STOP STOP STOP STOP STOP STOP STOP STOP STOP STOP STOP STOP STOP STOP STOP STOP STOP STOP STOP STOP STOP STOP STOP STOP STOP STOP STOP STOP STOP STOP STOP STOP STOP STOP STOP STOP STOP STOP STOP STOP STOP STOP STOP STOP STOP STOP STOP STOP STOP STOP STOP STOP STOP STOP STOP STOP STOP STOP STOP STOP STOP STOP 0x2D 0xB3 PUSH7 0xBFDD36D277A692 0xBB DUP3 JUMPDEST DUP7 0x27 JUMPDEST 0xEA 0xC4 DIV LOG1 SWAP11 RJUMP 0x7A90 DUP3 0xEA CHAINID 0xBD DUP4 MLOAD PUSH26 0x2600000000000000000000000000000000000000000000000000 STOP STOP STOP STOP STOP STOP STOP STOP STOP STOP STOP STOP STOP STOP STOP STOP STOP STOP STOP STOP STOP STOP STOP STOP STOP STOP STOP STOP STOP STOP STOP STOP STOP STOP STOP STOP STOP STOP STOP STOP STOP STOP STOP STOP STOP STOP STOP STOP STOP STOP STOP STOP STOP STOP STOP STOP STOP STOP STOP STOP STOP STOP STOP STOP STOP STOP STOP STOP STOP STOP STOP MOD 0x21 STOP 0xEB BASEFEE TSTORE 0xB0 PUSH3 0x69655C CALL DUP7 0xA6 DUP6 ORIGIN SWAP9 MSTORE PUSH22 0x428450359ADC99CEC6960711B8000000000000000000 STOP STOP STOP STOP STOP STOP STOP STOP STOP STOP STOP STOP STOP STOP STOP STOP STOP STOP STOP STOP STOP STOP STOP STOP STOP STOP STOP STOP STOP STOP STOP STOP STOP STOP STOP STOP STOP STOP STOP STOP STOP STOP STOP STOP STOP STOP STOP STOP STOP STOP STOP STOP STOP STOP STOP STOP STOP STOP STOP STOP STOP STOP STOP STOP STOP STOP STOP STOP STOP STOP STOP STOP STOP STOP STOP STOP STOP STOP STOP STOP STOP STOP STOP STOP STOP STOP STOP SMOD PUSH2 0xD33C PUSH7 0x614AAA570E7F1E DUP3 PREVRANDAO 0xCA GT KECCAK256 0x24 EXTCODEHASH SWAP3 STATICCALL MSIZE RETF EXTDELEGATECALL STOP 0xC5 PUSH8 0xBF41F5A59B000000 STOP STOP STOP STOP STOP STOP STOP STOP STOP STOP STOP STOP STOP STOP STOP STOP STOP STOP STOP STOP STOP STOP STOP STOP STOP STOP STOP STOP STOP STOP STOP STOP STOP STOP STOP STOP STOP STOP STOP STOP STOP STOP STOP STOP STOP STOP STOP STOP STOP STOP STOP STOP STOP STOP STOP STOP STOP STOP STOP STOP STOP STOP STOP STOP STOP STOP STOP STOP STOP STOP STOP STOP STOP STOP STOP STOP STOP STOP STOP STOP STOP STOP STOP STOP STOP STOP STOP STOP STOP STOP STOP STOP STOP KECCAK256 0xFC COINBASE BYTE GT 0x4D SGT SWAP10 0x2C 0x27 SDIV 0xAA SUB 0x4E EXTCODEHASH BALANCE TSTORE PUSH25 0x608A0F7DE4CCF7A72E494855AD0D0000000000000000000000 STOP STOP STOP STOP STOP STOP STOP STOP STOP STOP STOP STOP STOP STOP STOP STOP STOP STOP STOP STOP STOP STOP STOP STOP STOP STOP STOP STOP STOP STOP STOP STOP STOP STOP STOP STOP STOP STOP STOP STOP STOP STOP STOP STOP STOP STOP STOP STOP STOP STOP STOP STOP STOP STOP STOP STOP STOP STOP STOP STOP STOP STOP STOP STOP STOP STOP STOP STOP STOP STOP STOP STOP STOP STOP STOP STOP STOP STOP STOP STOP STOP STOP STOP STOP STOP 0x25 0xB5 0xC0 DIV LOG4 0xBD 0xFC 0xB5 0xAD 0xD9 EOFCREATE 0x4E SWAP11 0xB2 NOT 0xBA LT 0x2C PUSH8 0xE8B3EFFB5FC3A30F BALANCE PUSH19 0x50BC5A00000000000000000000000000000000 STOP STOP STOP STOP STOP STOP STOP STOP STOP STOP STOP STOP STOP STOP STOP STOP STOP STOP STOP STOP STOP STOP STOP STOP STOP STOP STOP STOP STOP STOP STOP STOP STOP STOP STOP STOP STOP STOP STOP STOP STOP STOP STOP STOP STOP STOP STOP STOP STOP STOP STOP STOP STOP STOP STOP STOP STOP STOP STOP STOP STOP STOP STOP STOP STOP STOP STOP STOP STOP STOP STOP STOP STOP STOP STOP STOP STOP STOP STOP STOP 0x23 0xB1 DUP3 0x2D 0x27 DUP15 0xD6 ORIGIN LOG4 SWAP5 JUMPF 0x8F6D 0xF6 CREATE2 0xED SUB DUP12 XOR PUSH14 0x8474155AD87E7DFF62B37F4B0000 STOP STOP STOP STOP STOP STOP STOP STOP STOP STOP STOP STOP STOP STOP STOP STOP STOP STOP STOP STOP STOP STOP STOP STOP STOP STOP STOP STOP STOP STOP STOP STOP STOP STOP STOP STOP STOP STOP STOP STOP STOP STOP STOP STOP STOP STOP STOP STOP STOP STOP STOP STOP STOP STOP STOP STOP STOP STOP STOP STOP STOP STOP STOP STOP STOP STOP STOP STOP STOP STOP STOP STOP STOP STOP STOP STOP STOP STOP STOP STOP STOP STOP STOP STOP STOP STOP STOP STOP STOP STOP STOP STOP STOP STOP 0x22 PUSH20 0x4B4C5C3F9493606C4BA9012499BF0F14D13BFCFC 0xCC 0xAA AND LT 0x2A 0x29 0xCC 0x2F PUSH10 0xE0000000000000000000 STOP STOP STOP STOP STOP STOP STOP STOP STOP STOP STOP STOP STOP STOP STOP STOP STOP STOP STOP STOP STOP STOP STOP STOP STOP STOP STOP STOP STOP STOP STOP STOP STOP STOP STOP STOP STOP STOP STOP STOP STOP STOP STOP STOP STOP STOP STOP STOP STOP STOP STOP STOP STOP STOP STOP STOP STOP STOP STOP STOP STOP STOP STOP STOP STOP STOP STOP STOP STOP STOP STOP STOP STOP STOP STOP STOP STOP STOP STOP STOP STOP STOP STOP STOP STOP STOP STOP 0x26 0xC0 0xC8 INVALID MULMOD 0xEB ADDRESS 0xB7 0xE2 PUSH27 0x74DC33492347E5BDFF409AA3610254413D3FAD795CE50000000000 STOP STOP STOP STOP STOP STOP STOP STOP STOP STOP STOP STOP STOP STOP STOP STOP STOP STOP STOP STOP STOP STOP STOP STOP STOP STOP STOP STOP STOP STOP STOP STOP STOP STOP STOP STOP STOP STOP STOP STOP STOP STOP STOP STOP STOP STOP STOP STOP STOP STOP STOP STOP STOP STOP STOP STOP STOP STOP STOP STOP STOP STOP STOP STOP STOP STOP STOP STOP STOP STOP STOP STOP STOP STOP STOP STOP STOP STOP STOP STOP STOP STOP STOP STOP STOP STOP STOP STOP STOP STOP STOP SMOD 0xD 0xD0 0xCC 0xB6 0xBD PUSH28 0xBAE88EAC03FA1FBB26196BE3083A809829BBD626DF348CCAD9000000 STOP STOP STOP STOP STOP STOP STOP STOP STOP STOP STOP STOP STOP STOP STOP STOP STOP STOP STOP STOP STOP STOP STOP STOP STOP STOP STOP STOP STOP STOP STOP STOP STOP STOP STOP STOP STOP STOP STOP STOP STOP STOP STOP STOP STOP STOP STOP STOP STOP STOP STOP STOP STOP STOP STOP STOP STOP STOP STOP STOP STOP STOP STOP STOP STOP STOP STOP STOP STOP STOP STOP STOP STOP STOP STOP STOP STOP STOP STOP STOP STOP STOP STOP STOP STOP STOP STOP STOP STOP STOP STOP STOP STOP SLT 0xB6 MSIZE JUMPDEST 0xDB ORIGIN SWAP12 PUSH16 0xB043BA78BB28C3BEC2C0A6DE46D8C5AD PUSH1 0x67 0xC4 0xEB REVERT TIMESTAMP POP 0xDA STOP STOP STOP STOP STOP STOP STOP STOP STOP STOP STOP STOP STOP STOP STOP STOP STOP STOP STOP STOP STOP STOP STOP STOP STOP STOP STOP STOP STOP STOP STOP STOP STOP STOP STOP STOP STOP STOP STOP STOP STOP STOP STOP STOP STOP STOP STOP STOP STOP STOP STOP STOP STOP STOP STOP STOP STOP STOP STOP STOP STOP STOP STOP STOP STOP STOP STOP STOP STOP STOP STOP STOP STOP STOP STOP STOP STOP STOP STOP STOP STOP STOP STOP STOP STOP STOP STOP STOP STOP STOP STOP STOP STOP STOP STOP STOP 0x24 DUP14 SWAP8 0xD7 0xF7 PUSH3 0x83D63B EOFCREATE 0x30 SWAPN 0xA5 DUP8 PUSH13 0x11C06FCA9B275C671C5E33D95B 0xB7 0xE8 0xD7 0x29 STOP STOP STOP STOP STOP STOP STOP STOP STOP STOP STOP STOP STOP STOP STOP STOP STOP STOP STOP STOP STOP STOP STOP STOP STOP STOP STOP STOP STOP STOP STOP STOP STOP STOP STOP STOP STOP STOP STOP STOP STOP STOP STOP STOP STOP STOP STOP STOP STOP STOP STOP STOP STOP STOP STOP STOP STOP STOP STOP STOP STOP STOP STOP STOP STOP STOP STOP STOP STOP STOP STOP STOP STOP STOP STOP STOP STOP STOP STOP STOP STOP STOP STOP STOP STOP STOP STOP STOP STOP STOP STOP STOP STOP STOP STOP STOP BYTE ADDRESS PUSH14 0x439D463B0816FC6FD64CC939318B GASLIMIT 0xEB PUSH22 0x9DDDE4AA106D15D9BD9BAAAA00000000000000000000 STOP STOP STOP STOP STOP STOP STOP STOP STOP STOP STOP STOP STOP STOP STOP STOP STOP STOP STOP STOP STOP STOP STOP STOP STOP STOP STOP STOP STOP STOP STOP STOP STOP STOP STOP STOP STOP STOP STOP STOP STOP STOP STOP STOP STOP STOP STOP STOP STOP STOP STOP STOP STOP STOP STOP STOP STOP STOP STOP STOP STOP STOP STOP STOP STOP STOP STOP STOP STOP STOP STOP STOP STOP STOP STOP STOP STOP STOP STOP STOP STOP STOP STOP STOP STOP STOP 0x28 0xA8 EXTCALL CALLDATACOPY 0x2E EXTCODECOPY CODESIZE 0xDA 0xCE 0xD7 0xC0 DIV 0x21 0xCB CHAINID 0x21 DELEGATECALL CALL 0xB5 0x4D 0xDC 0x27 DUP3 SHL 0xD PUSH3 0xD3D6EC PUSH29 0x56CF000000000000000000000000000000000000000000000000000000 STOP STOP STOP STOP STOP STOP STOP STOP STOP STOP STOP STOP STOP STOP STOP STOP STOP STOP STOP STOP STOP STOP STOP STOP STOP STOP STOP STOP STOP STOP STOP STOP STOP STOP STOP STOP STOP STOP STOP STOP STOP STOP STOP STOP STOP STOP STOP STOP STOP STOP STOP STOP STOP STOP STOP STOP STOP STOP STOP STOP STOP STOP STOP STOP STOP STOP STOP STOP STOP STOP SWAP5 SWAP8 JUMPI OR EXTDELEGATECALL 0xA8 0xA8 0xBB CALLDATALOAD ISZERO 0x2F 0x24 0xD4 ORIGIN SWAP5 SMOD SHR CALLF 0x20C8 0x29 RETURN DUP9 0xBC DUP6 0x21 DUP4 RJUMPI 0xE2CE PUSH31 0x0 STOP STOP STOP STOP STOP STOP STOP STOP STOP STOP STOP STOP STOP STOP STOP STOP STOP STOP STOP STOP STOP STOP STOP STOP STOP STOP STOP STOP STOP STOP STOP STOP STOP STOP STOP STOP STOP STOP STOP STOP STOP STOP STOP STOP STOP STOP STOP STOP STOP STOP STOP STOP STOP STOP STOP STOP STOP STOP STOP STOP STOP STOP STOP STOP STOP DIV 0xD5 RETURNCONTRACT 0x4C GASPRICE 0xA7 DUP16 PUSH30 0x80FDE60D716480D3593F74D4F653AE83F4103246DB2E8D65000000000000 STOP STOP STOP STOP STOP STOP STOP STOP STOP STOP STOP STOP STOP STOP STOP STOP STOP STOP STOP STOP STOP STOP STOP STOP STOP STOP STOP STOP STOP STOP STOP STOP STOP STOP STOP STOP STOP STOP STOP STOP STOP STOP STOP STOP STOP STOP STOP STOP STOP STOP STOP STOP STOP STOP STOP STOP STOP STOP STOP STOP STOP STOP STOP STOP STOP STOP STOP STOP STOP STOP STOP STOP STOP STOP STOP STOP STOP STOP STOP STOP STOP STOP STOP STOP STOP STOP STOP STOP STOP STOP 0x2A PUSH13 0xF5E9AA03D4336349AD6FB8ED22 PUSH10 0xC7BEF54B8822CC76D084 SWAP6 0xC1 0x2E REVERT RJUMPI 0x8700 STOP STOP STOP STOP STOP STOP STOP STOP STOP STOP STOP STOP STOP STOP STOP STOP STOP STOP STOP STOP STOP STOP STOP STOP STOP STOP STOP STOP STOP STOP STOP STOP STOP STOP STOP STOP STOP STOP STOP STOP STOP STOP STOP STOP STOP STOP STOP STOP STOP STOP STOP STOP STOP STOP STOP STOP STOP STOP STOP STOP STOP STOP STOP STOP STOP STOP STOP STOP STOP STOP STOP STOP STOP STOP STOP STOP STOP STOP STOP STOP STOP STOP STOP STOP STOP STOP STOP STOP STOP STOP STOP STOP STOP STOP STOP 0x23 DIV 0xD3 0x1E 0xAA 0xB9 PUSH1 0xBA SWAP3 PUSH21 0xDA43E19DDEB7F792180808FD6E43BAAE48D7EFCBA3 RETURN STOP STOP STOP STOP STOP STOP STOP STOP STOP STOP STOP STOP STOP STOP STOP STOP STOP STOP STOP STOP STOP STOP STOP STOP STOP STOP STOP STOP STOP STOP STOP STOP STOP STOP STOP STOP STOP STOP STOP STOP STOP STOP STOP STOP STOP STOP STOP STOP STOP STOP STOP STOP STOP STOP STOP STOP STOP STOP STOP STOP STOP STOP STOP STOP STOP STOP STOP STOP STOP STOP STOP STOP STOP STOP STOP STOP STOP STOP STOP STOP STOP STOP STOP STOP STOP STOP STOP STOP STOP STOP STOP STOP STOP STOP STOP STOP SUB REVERT SWAP11 0xC8 PUSH6 0xA4B2A6D5E700 SWAP8 DUP6 DUP2 PUSH19 0x49BFF08A7E0726FCB4E1C11D39D199F0B00000 STOP STOP STOP STOP STOP STOP STOP STOP STOP STOP STOP STOP STOP STOP STOP STOP STOP STOP STOP STOP STOP STOP STOP STOP STOP STOP STOP STOP STOP STOP STOP STOP STOP STOP STOP STOP STOP STOP STOP STOP STOP STOP STOP STOP STOP STOP STOP STOP STOP STOP STOP STOP STOP STOP STOP STOP STOP STOP STOP STOP STOP STOP STOP STOP STOP STOP STOP STOP STOP STOP STOP STOP STOP STOP STOP STOP STOP STOP STOP STOP STOP STOP STOP STOP STOP STOP STOP STOP STOP STOP STOP STOP STOP STOP STOP 0xB7 0x25 DUP14 0xED MSTORE 0xBB 0xDA 0x22 BASEFEE BLOCKHASH 0x4D SSTORE RETURNCONTRACT 0x50 PREVRANDAO PUSH26 0x8AFC3A209193073F7954D4D63B0B640000000000000000000000 STOP STOP STOP STOP STOP STOP STOP STOP STOP STOP STOP STOP STOP STOP STOP STOP STOP STOP STOP STOP STOP STOP STOP STOP STOP STOP STOP STOP STOP STOP STOP STOP STOP STOP STOP STOP STOP STOP STOP STOP STOP STOP STOP STOP STOP STOP STOP STOP STOP STOP STOP STOP STOP STOP STOP STOP STOP STOP STOP STOP STOP STOP STOP STOP STOP STOP STOP STOP STOP STOP STOP STOP STOP STOP STOP STOP STOP STOP STOP STOP STOP STOP STOP STOP STOP ISZERO SWAP16 DUP2 0xAD LOG0 PUSH24 0x1799EC38FCA2D4BF65EBB13D3A74F3298DB36272C5CA65E9 0x2D SWAP11 STOP STOP STOP STOP STOP STOP STOP STOP STOP STOP STOP STOP STOP STOP STOP STOP STOP STOP STOP STOP STOP STOP STOP STOP STOP STOP STOP STOP STOP STOP STOP STOP STOP STOP STOP STOP STOP STOP STOP STOP STOP STOP STOP STOP STOP STOP STOP STOP STOP STOP STOP STOP STOP STOP STOP STOP STOP STOP STOP STOP STOP STOP STOP STOP STOP STOP STOP STOP STOP STOP STOP STOP STOP STOP STOP STOP STOP STOP STOP STOP STOP STOP STOP STOP STOP STOP STOP STOP STOP STOP STOP STOP STOP STOP STOP STOP 0x1E EXTDELEGATECALL 0xE PUSH8 0x437FBC8550237A75 0xBC 0x28 CALLF 0xBB90 STOP SGT 0xE LOG2 PUSH0 0xC SLOAD PUSH18 0xE144CF4264431F0000000000000000000000 STOP STOP STOP STOP STOP STOP STOP STOP STOP STOP STOP STOP STOP STOP STOP STOP STOP STOP STOP STOP STOP STOP STOP STOP STOP STOP STOP STOP STOP STOP STOP STOP STOP STOP STOP STOP STOP STOP STOP STOP STOP STOP STOP STOP STOP STOP STOP STOP STOP STOP STOP STOP STOP STOP STOP STOP STOP STOP STOP STOP STOP STOP STOP STOP STOP STOP STOP STOP STOP STOP STOP STOP STOP STOP STOP STOP STOP STOP STOP STOP STOP STOP STOP STOP STOP 0x1E PUSH6 0xF838515E5FF0 NOT PUSH12 0x49AA41A2D2568DF739BC176B ADDMOD EOFCREATE 0x95 0xA7 SWAP15 0xD8 0x29 ORIGIN CALLF 0xD00 STOP STOP STOP STOP STOP STOP STOP STOP STOP STOP STOP STOP STOP STOP STOP STOP STOP STOP STOP STOP STOP STOP STOP STOP STOP STOP STOP STOP STOP STOP STOP STOP STOP STOP STOP STOP STOP STOP STOP STOP STOP STOP STOP STOP STOP STOP STOP STOP STOP STOP STOP STOP STOP STOP STOP STOP STOP STOP STOP STOP STOP STOP STOP STOP STOP STOP STOP STOP STOP STOP STOP STOP STOP STOP STOP STOP STOP STOP STOP STOP STOP STOP STOP STOP STOP STOP STOP STOP STOP STOP STOP STOP STOP STOP STOP 0x2B SHL DIV TSTORE 0xEF GASPRICE AND PUSH13 0xEC6CE768D079BA74B18C844E57 0xE 0x1F DUP3 PUSH6 0x75C1068C94C3 EXTCODEHASH STOP STOP STOP STOP STOP STOP STOP STOP STOP STOP STOP STOP STOP STOP STOP STOP STOP STOP STOP STOP STOP STOP STOP STOP STOP STOP STOP STOP STOP STOP STOP STOP STOP STOP STOP STOP STOP STOP STOP STOP STOP STOP STOP STOP STOP STOP STOP STOP STOP STOP STOP STOP STOP STOP STOP STOP STOP STOP STOP STOP STOP STOP STOP STOP STOP STOP STOP STOP STOP STOP STOP STOP STOP STOP STOP STOP STOP STOP STOP STOP STOP STOP STOP STOP STOP STOP STOP STOP STOP STOP STOP STOP STOP STOP STOP STOP ADDMOD ORIGIN JUMPF 0x753C 0xEB 0xF 0xF6 BLOCKHASH 0x25 NUMBER 0xB1 LT SWAP3 0x29 0xC1 PUSH6 0xDC2D73BEF715 CALLF 0xF1C6 RJUMP 0x7C16 DUP12 0xB1 PUSH20 0x0 STOP STOP STOP STOP STOP STOP STOP STOP STOP STOP STOP STOP STOP STOP STOP STOP STOP STOP STOP STOP STOP STOP STOP STOP STOP STOP STOP STOP STOP STOP STOP STOP STOP STOP STOP STOP STOP STOP STOP STOP STOP STOP STOP STOP STOP STOP STOP STOP STOP STOP STOP STOP STOP STOP STOP STOP STOP STOP STOP STOP STOP STOP STOP STOP STOP STOP STOP STOP STOP STOP STOP STOP STOP STOP STOP STOP MUL 0xF6 EQ 0xE9 0xCE 0xDF 0xB3 0xDC PUSH12 0x762AE0A37D41BAB1B841C2E8 0xB6 GASLIMIT SHL 0xC5 0xA8 CALLF 0xC390 0xB6 0xAD AND STOP STOP STOP STOP STOP STOP STOP STOP STOP STOP STOP STOP STOP STOP STOP STOP STOP STOP STOP STOP STOP STOP STOP STOP STOP STOP STOP STOP STOP STOP STOP STOP STOP STOP STOP STOP STOP STOP STOP STOP STOP STOP STOP STOP STOP STOP STOP STOP STOP STOP STOP STOP STOP STOP STOP STOP STOP STOP STOP STOP STOP STOP STOP STOP STOP STOP STOP STOP STOP STOP STOP STOP STOP STOP STOP STOP STOP STOP STOP STOP STOP STOP STOP STOP STOP STOP STOP STOP STOP STOP STOP STOP STOP STOP STOP STOP 0xE 0x24 0x27 0xD3 DUP12 0xD4 PUSH11 0x60DD640B8E362CAD967370 0xEB 0xB7 PUSH24 0xBEDFF40F6A0BE27E7ED70500000000000000000000000000 STOP STOP STOP STOP STOP STOP STOP STOP STOP STOP STOP STOP STOP STOP STOP STOP STOP STOP STOP STOP STOP STOP STOP STOP STOP STOP STOP STOP STOP STOP STOP STOP STOP STOP STOP STOP STOP STOP STOP STOP STOP STOP STOP STOP STOP STOP STOP STOP STOP STOP STOP STOP STOP STOP STOP STOP STOP STOP STOP STOP STOP STOP STOP STOP STOP STOP STOP STOP STOP STOP STOP STOP STOP STOP STOP STOP STOP STOP STOP STOP STOP STOP STOP DIV SWAP4 PUSH4 0xB7C670B PUSH14 0xEB7C84D414E7CE79049F0EC098C3 0xC7 0xC5 SMOD PUSH9 0xBBE29214A53A000000 STOP STOP STOP STOP STOP STOP STOP STOP STOP STOP STOP STOP STOP STOP STOP STOP STOP STOP STOP STOP STOP STOP STOP STOP STOP STOP STOP STOP STOP STOP STOP STOP STOP STOP STOP STOP STOP STOP STOP STOP STOP STOP STOP STOP STOP STOP STOP STOP STOP STOP STOP STOP STOP STOP STOP STOP STOP STOP STOP STOP STOP STOP STOP STOP STOP STOP STOP STOP STOP STOP STOP STOP STOP STOP STOP STOP STOP STOP STOP STOP STOP STOP STOP STOP STOP STOP STOP STOP STOP STOP STOP STOP STOP 0x22 0xEA DATALOADN 0xE8 RETF DUP3 PUSH8 0x4DECDAB17066C5A2 PUSH12 0xB1515355D5461A3DC06CC853 0x27 0xCE 0xA9 STOP STOP STOP STOP STOP STOP STOP STOP STOP STOP STOP STOP STOP STOP STOP STOP STOP STOP STOP STOP STOP STOP STOP STOP STOP STOP STOP STOP STOP STOP STOP STOP STOP STOP STOP STOP STOP STOP STOP STOP STOP STOP STOP STOP STOP STOP STOP STOP STOP STOP STOP STOP STOP STOP STOP STOP STOP STOP STOP STOP STOP STOP STOP STOP STOP STOP STOP STOP STOP STOP STOP STOP STOP STOP STOP STOP STOP STOP STOP STOP STOP STOP STOP STOP STOP STOP STOP STOP STOP STOP STOP STOP STOP STOP STOP STOP 0x25 0xB3 JUMPF 0x6E65 JUMPDEST TIMESTAMP 0xCD 0xAA 0xE2 PUSH3 0x6ED255 0x4D BASEFEE PC EXTCODEHASH BYTE CALLF 0x5626 0xD0 0x4D JUMPF 0x84E SIGNEXTEND PUSH14 0x2A6F160000000000000000000000 STOP STOP STOP STOP STOP STOP STOP STOP STOP STOP STOP STOP STOP STOP STOP STOP STOP STOP STOP STOP STOP STOP STOP STOP STOP STOP STOP STOP STOP STOP STOP STOP STOP STOP STOP STOP STOP STOP STOP STOP STOP STOP STOP STOP STOP STOP STOP STOP STOP STOP STOP STOP STOP STOP STOP STOP STOP STOP STOP STOP STOP STOP STOP STOP STOP STOP STOP STOP STOP STOP STOP STOP STOP STOP STOP STOP STOP STOP STOP STOP STOP STOP STOP STOP STOP 0x1E ORIGIN PUSH22 0x2ADA8836EF5837A6CDE8FF13DBB599C336349E4C584B 0x4F 0xDC EXP 0xC 0xF6 EXTDELEGATECALL 0xD0 STOP STOP STOP STOP STOP STOP STOP STOP STOP STOP STOP STOP STOP STOP STOP STOP STOP STOP STOP STOP STOP STOP STOP STOP STOP STOP STOP STOP STOP STOP STOP STOP STOP STOP STOP STOP STOP STOP STOP STOP STOP STOP STOP STOP STOP STOP STOP STOP STOP STOP STOP STOP STOP STOP STOP STOP STOP STOP STOP STOP STOP STOP STOP STOP STOP STOP STOP STOP STOP STOP STOP STOP STOP STOP STOP STOP STOP STOP STOP STOP STOP STOP STOP STOP STOP STOP STOP STOP STOP STOP STOP STOP STOP STOP STOP STOP 0x2F LOG2 0xA8 PUSH18 0xC15A387CC50F68F6F3C3455B23C00995F050 PUSH25 0xF672A9864074D412E500000000000000000000000000000000 STOP STOP STOP STOP STOP STOP STOP STOP STOP STOP STOP STOP STOP STOP STOP STOP STOP STOP STOP STOP STOP STOP STOP STOP STOP STOP STOP STOP STOP STOP STOP STOP STOP STOP STOP STOP STOP STOP STOP STOP STOP STOP STOP STOP STOP STOP STOP STOP STOP STOP STOP STOP STOP STOP STOP STOP STOP STOP STOP STOP STOP STOP STOP STOP STOP STOP STOP STOP STOP STOP STOP STOP STOP STOP STOP STOP STOP STOP STOP STOP 0x2F JUMP SWAP12 DUP11 SWAP11 PREVRANDAO 0x24 0xC9 0x27 DUP15 SAR 0xB7 BALANCE 0x1E DUP9 SWAP16 SLOAD 0xCC 0xBF LT PUSH7 0x1BAB7FCD18E7C7 0xA7 0xD8 CALLDATALOAD SDIV STOP STOP STOP STOP STOP STOP STOP STOP STOP STOP STOP STOP STOP STOP STOP STOP STOP STOP STOP STOP STOP STOP STOP STOP STOP STOP STOP STOP STOP STOP STOP STOP STOP STOP STOP STOP STOP STOP STOP STOP STOP STOP STOP STOP STOP STOP STOP STOP STOP STOP STOP STOP STOP STOP STOP STOP STOP STOP STOP STOP STOP STOP STOP STOP STOP STOP STOP STOP STOP STOP STOP STOP STOP STOP STOP STOP STOP STOP STOP STOP STOP STOP STOP STOP STOP STOP STOP STOP STOP STOP STOP STOP STOP STOP STOP STOP DIV 0x4C 0xB4 SSTORE GT EXP DUP16 0xDD MSTORE8 BYTE 0xDE MSTORE8 MUL CALLVALUE 0xC5 XOR 0xA7 0xDF SWAP4 0xF7 CALLER 0x2F REVERT 0x21 PREVRANDAO AND MSTORE8 PUSH21 0xB246B43D0000000000000000000000000000000000 STOP STOP STOP STOP STOP STOP STOP STOP STOP STOP STOP STOP STOP STOP STOP STOP STOP STOP STOP STOP STOP STOP STOP STOP STOP STOP STOP STOP STOP STOP STOP STOP STOP STOP STOP STOP STOP STOP STOP STOP STOP STOP STOP STOP STOP STOP STOP STOP STOP STOP STOP STOP STOP STOP STOP STOP STOP STOP STOP STOP STOP STOP STOP STOP STOP STOP STOP STOP STOP STOP STOP STOP STOP STOP STOP STOP STOP STOP STOP 0x22 PUSH25 0x8DE93906D5D420246157F2E42B191FE8C90ADFE118178DDC7 0x23 0xA5 BALANCE SWAP1 0x25 STOP STOP STOP STOP STOP STOP STOP STOP STOP STOP STOP STOP STOP STOP STOP STOP STOP STOP STOP STOP STOP STOP STOP STOP STOP STOP STOP STOP STOP STOP STOP STOP STOP STOP STOP STOP STOP STOP STOP STOP STOP STOP STOP STOP STOP STOP STOP STOP STOP STOP STOP STOP STOP STOP STOP STOP STOP STOP STOP STOP STOP STOP STOP STOP STOP STOP STOP STOP STOP STOP STOP STOP STOP STOP STOP STOP STOP STOP STOP STOP STOP STOP STOP STOP STOP STOP STOP STOP STOP STOP STOP STOP STOP STOP STOP STOP MUL 0xFC 0xCA 0x29 CALLVALUE RJUMP 0x46BC PUSH3 0x3ADEAD DUP8 CALLDATALOAD PUSH26 0x865D03781AE090AD4A8579D2E7A6800355000000000000000000 STOP STOP STOP STOP STOP STOP STOP STOP STOP STOP STOP STOP STOP STOP STOP STOP STOP STOP STOP STOP STOP STOP STOP STOP STOP STOP STOP STOP STOP STOP STOP STOP STOP STOP STOP STOP STOP STOP STOP STOP STOP STOP STOP STOP STOP STOP STOP STOP STOP STOP STOP STOP STOP STOP STOP STOP STOP STOP STOP STOP STOP STOP STOP STOP STOP STOP STOP STOP STOP STOP STOP STOP STOP STOP STOP STOP STOP STOP STOP STOP STOP STOP STOP STOP STOP STOP STOP 0xE EXTDELEGATECALL ISZERO CREATE 0xAC SLT SIGNEXTEND DUP8 PUSH11 0xBCCCEB344A1D36BAD3F3C5 0xAB SWAP2 0xA8 0xDD 0xCB EOFCREATE 0x2E MOD 0xD DUP12 0xEF 0xAC STOP STOP STOP STOP STOP STOP STOP STOP STOP STOP STOP STOP STOP STOP STOP STOP STOP STOP STOP STOP STOP STOP STOP STOP STOP STOP STOP STOP STOP STOP STOP STOP STOP STOP STOP STOP STOP STOP STOP STOP STOP STOP STOP STOP STOP STOP STOP STOP STOP STOP STOP STOP STOP STOP STOP STOP STOP STOP STOP STOP STOP STOP STOP STOP STOP STOP STOP STOP STOP STOP STOP STOP STOP STOP STOP STOP STOP STOP STOP STOP STOP STOP STOP STOP STOP STOP STOP STOP STOP STOP STOP STOP STOP STOP STOP STOP OR SWAP8 SGT 0xF 0x4B PUSH27 0x3E1777EB757BC6F287F6AB0FB85F6BE63B09F3B16EF2B1405D380A PUSH23 0x225DC04170AE3306C85ABAB59E608C7F497C20156D4D36 0xC6 PUSH9 0x555DECC6E51FFFB9EC NOT SWAP3 0xD6 PUSH12 0xA1E77A7B93209AF6F8FA76D4 DUP11 0xCB PUSH7 0x4796174B5326A3 BYTE TLOAD 0x25 PUSH19 0x1C4FC15A3F2853B57C338FA538D85F8FBBA6C6 0xB9 0xC6 MULMOD MOD GT DUP9 SWAP12 PUSH26 0x7B9C5F0C817FD42D5F7A41215E3D07BA197216ADB4C3790705DA SWAP6 0xEB PUSH4 0xB982BFCA 0xF7 GAS SGT 0xAB CALLF 0xF523 SWAP10 ISZERO 0xD3 SWAP16 PUSH31 0x13C2C24970B6DF8CF86CE00A22002BC15866E52B5A962106FEEA546224EA12 0xEF PUSH32 0x39987A46C85C1BC3DC29BDBD7A92CD60ACB4D391CE21CA859468A746B6AAA794 PUSH21 0xA37DAB49F1CA5A28C748BC7157E1B3345BB0F95905 0xCC 0xD6 0x25 TLOAD 0x1E PUSH16 0xC5CF1F0DF934194C62911D14D032166 0x2A DUP16 BYTE BASEFEE SWAP10 SWAP15 CALLVALUE XOR JUMPDEST 0xF 0xE CALLVALUE 0xA6 0x4B PUSH17 0xA626E464D846674C4C8816C4FB267FE44F DUPN 0xEA 0x28 PUSH8 0x8CB09490A4055853 BYTE 0x4E 0x25 SELFBALANCE 0xC PUSH2 0x5779 0x4C LOG3 PUSH14 0xE9647DBFCFE350D64838F5B1A8A 0x2D RJUMP 0xD4BF MULMOD 0xD3 0xDC 0xA9 OR RETURNDATACOPY 0xD2 STATICCALL 0xCE 0xEA SLT MLOAD JUMPI PUSH9 0x3D18924CADAD3F655A PUSH1 0xB7 0x2F PC PUSH5 0x961F145503 0x28 0xCB 0xD5 0x4E DUP13 MULMOD SGT BLOBHASH EXTCODEHASH DUP7 PUSH15 0xD03D218BF23F92D68AAEC48617D4C7 0x22 JUMPF 0xBD43 CALLDATALOAD 0x2B CREATE PUSH19 0x16E2AFF0A223A487B1A7094E07E79E7BCC9798 0xC6 BASEFEE RETURNCONTRACT 0x33 SELFBALANCE 0xDD MSTORE8 0x29 0xD3 0x4B SAR 0xAF CALLVALUE GAS PC STOP PUSH12 0x736499C583CB76C316D6F78E 0xD6 0xA6 0xDF 0xFC DUP3 GT 0x1E GT 0xA6 EXTCODEHASH RETF SLT 0xDF OR PUSH6 0x63472456AAA7 CHAINID 0xB6 SWAP5 0xC6 0xE XOR 0x23 PUSH2 0x1EF3 SWAP1 CODECOPY 0xB2 0xED 0xC7 SELFDESTRUCT CODECOPY 0x1E PUSH16 0x2293D2C404A264697066735822122075 PUSH14 0x7FFE7EAF7CAD1E23127418152A3D PUSH2 0xAE85 0x28 0xB4 EXTCODESIZE LOG0 0x4C SWAP10 PUSH3 0x8EB27 0x26 0xF7 0xAF PUSH5 0x736F6C6343 STOP ADDMOD 0x1E STOP CALLER LOG2 PUSH5 0x6970667358 0x22 SLT KECCAK256 SGT PREVRANDAO SWAP15 CODECOPY GT BYTE PUSH25 0x541332A84019DC7911A6CF5CFE4FB0759DD05F0F59CE49803F PUSH5 0x736F6C6343 STOP ADDMOD 0x1E STOP CALLER "
		},
		"gasEstimates": {
			"creation": {
				"codeDepositCost": "3209400",
				"executionCost": "3553",
				"totalCost": "3212953"
			},
			"external": {
				"beforeAll()": "infinite",
				"test_hash2_small_values()": "infinite",
				"test_permutation_zero()": "infinite"
			}
		},
		"methodIdentifiers": {
			"beforeAll()": "7fea0d4b",
			"test_hash2_small_values()": "7bab1691",
			"test_permutation_zero()": "12020c03"
		}
	},
	"abi": [
		{
			"inputs": [],
			"name": "beforeAll",
			"outputs": [],
			"stateMutability": "nonpayable",
			"type": "function"
		},
		{
			"inputs": [],
			"name": "test_hash2_small_values",
			"outputs": [],
			"stateMutability": "nonpayable",
			"type": "function"
		},
		{
			"inputs": [],
			"name": "test_permutation_zero",
			"outputs": [],
			"stateMutability": "nonpayable",
			"type": "function"
		}
	]
}